:020000040800F2
:1000000078070020DD0100088B290008E72600089A
:100010008929000845090008053200080000000091
:100020000000000000000000000000008F29000810
:10003000F9090008000000008D2900089129000836
:10004000F7010008F7010008F7010008F7010008B0
:10005000F7010008F7010008F7010008F7010008A0
:10006000F7010008F7010008F7010008F701000890
:10007000F7010008F7010008F7010008F701000880
:10008000F7010008F701000801080008F70100085F
:10009000F7010008F7010008F7010008F701000860
:1000A000F7010008F7010008F7010008F701000850
:1000B000F7010008852A0008F7010008F701000889
:1000C000F7010008F7010008F7010008F701000830
:1000D000F7010008F7010008F7010008F701000820
:1000E000F7010008F7010008F7010008F701000810
:1000F000F7010008F7010008F7010008F701000800
:10010000F7010008F7010008F7010008F7010008EF
:10011000F7010008F7010008F7010008F7010008DF
:1001200049090008F7010008F7010008F701000875
:10013000F7010008F7010008F7010008F7010008BF
:10014000F7010008F7010008F7010008F7010008AF
:10015000F7010008F7010008F7010008F70100089F
:10016000F7010008F7010008F7010008F70100088F
:10017000F7010008F7010008F7010008000000007F
:10018000F7010008F7010008F7010008F70100086F
:10019000F7010008F7010008F7010008F70100085F
:1001A000F7010008F7010008F7010008F70100084F
:1001B000F7010008F7010008F7010008F70100083F
:1001C000F7010008F7010008DFF80CD000F050FA42
:1001D00000480047293B0008780700200648804770
:1001E00006480047FEE7FEE7FEE7FEE7FEE7FEE71C
:1001F000FEE7FEE7FEE7FEE7312A0008C901000836
:100200002DE9F05F0546002092469B46884606464B
:10021000814640241BE0284641464746224600F0DE
:100220005EF853465A46C01A914110D311461846FB
:10023000224600F045F82D1A67EB01084F4622468A
:100240000120002100F03CF817EB00094E41201E70
:10025000A4F10104DFDC484631462A464346BDE8A6
:10026000F09FD2B201E000F8012B491EFBD270478B
:100270000022F6E710B513460A4604461946FFF772
:10028000F0FF204610BD421C10F8011B0029FBD1D5
:10029000801A704730B50B46014600202022012409
:1002A00009E021FA02F59D4205D303FA02F5491B44
:1002B00004FA02F52844151EA2F10102F1DC30BD5A
:1002C000202A04DB203A00FA02F100207047914016
:1002D000C2F1200320FA03F3194390407047202A0B
:1002E00004DB203A21FA02F00021704721FA02F3E0
:1002F000D040C2F1200291400843194670472DE9D1
:10030000FE4F804681EA0300C00F0C46009021F0AA
:10031000004123F00045B8EB0200A94105D2404658
:10032000214690461C460B46024623F000401043EF
:1003300047D0270DC7F30A00C3F30A510290401AB1
:10034000019040286BDAC3F3130040F4801B00983F
:10035000924620B10023D2EB030A63EB0B0B01980A
:100360005946C0F140025046FFF7AAFF06460D4627
:1003700050465946019A00F08DF910EB0800614192
:10038000002487EA115284EAE7731A4340D0009AA6
:1003900062B3019A012A4FEA075215DC001B61EB98
:1003A00002014FF0004202EA0752CDE90042001C70
:1003B00041F5801132462B4600F08DF903B0BDE8BF
:1003C000F08F40462146F9E7001B61EB0201001C5B
:1003D00041F5801300185B412018A2F5001747EB88
:1003E000030140EAD570B6196D4111E06D084FEA7E
:1003F000360645EAC0754FEA0752001B61EB020161
:10040000001C41F5801149084FEA300000195141A4
:1004100032462B4603B0BDE8F04F00F04DB90098CE
:10042000012240000023D0EB020263EBE07300984E
:1004300021464FEAE074B8EB000061EB0401E9E704
:1004400083F000435BE781F0004158E72DE9FE4F60
:1004500081EA030404F0004421F0004100944FF0CD
:10046000000B23F0004350EA01045ED052EA03047B
:100470005BD0C3F30A54C1F30A552C44A4F2F334FD
:100480000194A0FB0254C1F3130141F48011C3F3A2
:10049000130343F4801301FB024400FB034E840A60
:1004A000970A44EA815447EA8357A4FB07680295F8
:1004B0008D0A05FB07854FEA932C04FB0C54270596
:1004C000029D4FEA065847EA1637B5EB08056EEB72
:1004D000070C870E920E47EA811742EA8312A7FBA8
:1004E0000201B6EB0B0164EB00042B0D43EA0C3365
:1004F0005E1844EB1C50DA465146E7FB0201C5F397
:1005000013044FEA0B3343EA14534FEA0432019CBD
:1005100043EA0603A4F10C040294009CCDE900B464
:1005200000F0D9F803B0BDE8F08F00200146F9E7EC
:100530002DE9F04D81EA030404F0004B21F0004561
:1005400014464FF0000A23F0004150EA050220D083
:1005500054EA01021DD0C5F30A570246C5F313033E
:10056000C1F31300C1F30A5640F4801543F480131D
:10057000A7EB0608101BD64608F2FD3873EB050002
:1005800002D308F1010801E092185B41B8F1000FB5
:1005900003DA00200146BDE8F08D00204FF4801101
:1005A000064684460EE0171B73EB050705D3121BA6
:1005B00063EB050306434CEA010C49084FEA30009F
:1005C00092185B4150EA0107EDD152EA030012D0C4
:1005D00082EA040083EA0501084305D0101BAB4101
:1005E00006D20122002306E000224FF0004302E081
:1005F0006FF0010253101AEB06004CEB085110EBA0
:100600000A0041EB0B01BDE8F04D00F055B8C1F315
:100610000A52C1F3130140F2FF3341F480119A42B0
:1006200002DA00200146704740F233439A42A2F2B8
:10063000334202DC5242FFF752BEFFF741BE0000D8
:1006400030B5041E71F1000404DB4FF00044404259
:1006500064EB0101141E73F1000405DB1C464FF02E
:100660000043524263EB0403994208BF904230BDFD
:10067000064C074D06E0E06840F0010394E80700EF
:1006800098471034AC42F6D3FFF7A2FD0C3C0008AB
:100690002C3C0008202A06DBCB17203A41FA02F056
:1006A00043EAE07306E041FA02F3D040C2F12002CF
:1006B000914008431946704710B5141E73F10004A9
:1006C00008DA401C41F1000192185B411A4301D144
:1006D00020F0010010BD2DE9F04D92469B4611B16E
:1006E000B1FA81F202E0B0FA80F220329046FFF7D0
:1006F000E7FD04460F4640EA0A0041EA0B01534673
:100700005A46084313D0114653EA010019D0C8F1E4
:1007100040025046FFF7E3FD05460E465046594657
:100720004246FFF7CDFD084305D0012004E02046F6
:100730003946BDE8F08D0020054346EAE0762C43BB
:1007400037430A986305E40AA0EB08000022FD0A7B
:1007500044EA47540A3002D500200146E9E7010582
:1007600010196941DDE9084500196941BDE8F04DFE
:10077000A2E710B50146806B026C12F0500F05D055
:10078000026CD20626D500F000FA10BD016C41F4CF
:100790000071016401688A6812F0405F17D18269B4
:1007A000AAB9CA6A12F4700F02D08A6852050ED430
:1007B0004A6822F020024A60016C21F480710164D1
:1007C000016CC90403D4016C41F00101016400F023
:1007D000C9F910BD806BC26C0846BDE810401047D7
:1007E00010B5806B40210164416C41F0040141640B
:1007F00000F0CBF910BD10B5806B00F0C5F910BD4D
:10080000014800F0C3B90000100000204A496FF011
:10081000706210B5D1F8043323F44033C1F80433C7
:10082000D1F8043344682343C1F8043301684B68AA
:1008300023F480734B60016803694C6844EA032326
:100840004B6001684B6823F040734B60016884681B
:100850004B6823434B6001688B6823F400638B6013
:100860000168C4688B6823438B60816AD142016848
:100870008A6822F070628A6001680DD0836A8A6893
:100880001A438A6001688A6822F040528A600168CF
:10089000C36A8A681A4302E08A6822F040528A607A
:1008A00001688A6822F002028A60016882698B68A6
:1008B00043EA42028A6090F820100029016811D0B2
:1008C0001E4A4B6843F400634B6001684B6823F495
:1008D00060434B600168446A4B6802EB4432134347
:1008E0004B6003E04A6822F400624A600168144BDE
:1008F000CA6A22F47002CA620168848BCA6A03EB76
:1009000004531A43CA6201688A6822F400728A603A
:10091000016890F830208B6843EA42228A600168BF
:100920008A6822F480628A60016840698A6842EAC3
:100930008020886010BD00000020014000E0FFFF23
:100940000000F0FFFEE70000014800F0CBBA000015
:100950001803002001681823CAB2103AB2FBF3F260
:10096000054B6FF30901032A9B5CC36500D9091D80
:100970008165084670470000EC3B000810B58369AC
:100980004FF0C074826A0146002053B1B3F5005F96
:1009900015D072B1012A0CD0022A0AD0032A09D13B
:1009A00004E01AB1012A06D0022A03D1C96AC9019A
:1009B00000D5012010BDC96AA142FAD010BD002A9D
:1009C000F7D0012AF2D0022AF3D0032AF3D010BDC7
:1009D00030B50468256825F48025256004686360C7
:1009E0008368402B036803D099600068C26030BD03
:1009F0009A600068C16030BD704770477047000062
:100A0000F8B50025009590F83C20012A18D0012265
:100A100080F83C200A6807234E4C0668092A1AD938
:100A20000A3A02EB4207F268BB409A43F2600E6852
:100A30000268A64206D10B7AD66846EA036308E04C
:100A40000220F8BD0A3E8B68D76806EB4606B34025
:100A50003B43D3600EE002EB42073269BB409A434E
:100A6000326103680E788A681F6906EB4606B24059
:100A70003A431A614A681F23072A13D20668521E96
:100A800002EB8207726BBB409A43726303680E7974
:100A90000A88761E5F6B92B206EB8606B2403A4336
:100AA0005A6327E006680D2A12D2D21F02EB820792
:100AB000326BBB409A43326302680E790B88F61F93
:100AC000176B9BB206EB8606B3403B43136311E002
:100AD0000D3A02EB8207F26ABB409A43F262026867
:100AE0000E790B880D3ED76A9BB206EB8606B340A3
:100AF0003B43D362184A0368934208D10B68122B18
:100B000005D1D2F8043343F48003C2F804330368F8
:100B100093421AD10B68A34201D0112B15D1D2F800
:100B2000043343F40003C2F804330968A1420CD132
:100B30000A490B4A0968B1FBF2F101EB8101490056
:100B400000E0491E00910029FBD180F83C500020B4
:100B5000F8BD000012000010002001400C00002031
:100B600040420F0007496FF07F434FF4FA72A1F142
:100B7000800010B501F05CFDBDE810401D2000F0C4
:100B800098BC0000180100207047704770B50446FB
:100B9000006801684268C1F34001C2F3401251B3DA
:100BA0004AB3216CC90603D4216C41F4007121645D
:100BB000816811F0405F17D1A169A9B9C16A11F428
:100BC000700F02D0816849050ED4416821F02001E0
:100BD0004160206C20F480702064206CC00403D439
:100BE000206C40F0010020642046FFF7BBFF216825
:100BF0006FF012000860206801684268C1F380014C
:100C0000C2F3C01289B382B3216CC90603D4216C2C
:100C100041F400512164816811F4401F1ED1816BA1
:100C200011F4401F02D08168490517D44168490575
:100C300014D4816811F0405F10D1A16971B9416885
:100C400021F080014160206C20F480502064206CF1
:100C5000C00503D4206C40F0010020642046FFF75B
:100C6000CDFE21686FF00C000860206801684368C1
:100C700011F0010FC3F380110ED069B10068C007F5
:100C80000AD0206C40F480302064204600F046F802
:100C900021686FF001000860206801684268C1F3B4
:100CA00040110029C2F380620DD0002A0BD0616C84
:100CB0006FF0200541F00201616405602046FFF7F6
:100CC00064FF2068056070BD70B504004FF000053A
:100CD00003D0206C002610B107E0012070BD204633
:100CE00000F01EF8666484F83C60206CC00610D4E6
:100CF000206C20F4885040F0020020642046FFF76A
:100D000085FD6664206C20F0020040F00100206444
:100D100000E0012584F83C60284670BD7047000063
:100D200070B586B0064614216846FFF7A1FA20493F
:100D3000306888423AD11F48016841F480710160EF
:100D4000006800F4807005901A481438016841F07A
:100D50000101016000680025032100F001000590F9
:100D600001208DE823001448694600F04DFA134C29
:100D700013480115206065604FF44030A560C4E958
:100D800003516561A561C4E907502046656200F022
:100D900079F908B1FFF731FE0022B4631220114641
:100DA000A66300F093FB122000F083FB06B070BD39
:100DB0000020014044380240000002401803002097
:100DC00010640240F8B50D4604460021009190F8E9
:100DD0003C00012807D0012084F83C00206883688B
:100DE000DB0702D011E00220F8BD8668364B46F0E2
:100DF0000106866035480068B0FBF3F000EB400068
:100E000000E0401E00900028FBD120688368DB07CB
:100E100058D0236C40F20166B34343F480732364DB
:100E20004068400505D5206C20F4005040F4805007
:100E30002064206CC00404D5606C20F0060060645F
:100E400000E061646FF0220084F83C10A36B20493D
:100E5000D963A36B1F491964A36B1F49D964216827
:100E600008602068416841F08061416020688168C5
:100E700041F48071816021681346A06B2A464C3191
:100E800000F072F91549D1F80403C006206811D0AA
:100E9000884207D1826812F0405F03D1826842F035
:100EA00080428260D1F80403C0060BD40C4920684C
:100EB000884207D1816811F0405F03D1816841F019
:100EC000804181600020F8BD40420F000C000020EE
:100ED00073070008F7070008E10700080020014039
:100EE000002201402DE9F84304464FF00009644B0D
:100EF0000820CDF800904FF41652A56D94F85C10C0
:100F00001B682E68B3FBF2F700FA01F131420FD0F3
:100F100021680A6852070BD50A6822F004020A60A9
:100F200094F85C108840A860606D40F00100606536
:100F300094F85C104FF0010808FA01F0304208D034
:100F400021684969090604D5A860606D40F0020077
:100F5000606594F85C1004208840304208D0216815
:100F60000968890704D5A860606D40F004006065D9
:100F700094F85C1010208840304218D0216809682D
:100F8000090714D5A86020680168490304D50068E2
:100F9000000308D5A16C07E00168C90503D4016806
:100FA00021F008010160216C09B12046884794F8BE
:100FB0005C1020208840304231D021680968C90681
:100FC0002DD5A86094F8350005282068016806D062
:100FD000490347D5006800031DD4616C1CE021F073
:100FE000160101602068416921F080014161206C97
:100FF00008B9A06C20B12068016821F008010160E7
:1010000094F85C303F229A40AA6084F8349084F8C7
:101010003580216D1FE0E16B09B120468847606D86
:1010200000282BD0606DC00714D0052084F835004F
:101030002068016821F0010101600098401C0090C7
:10104000B84203D820680068C007F6D184F834900D
:1010500084F83580E16C002910D001B02046BDE84D
:10106000F04308470168C905D5D4036823F010038D
:10107000036084F8349084F83580CCE7BDE8F883C9
:101080000C0000202DE9F047044600F0AFF90546BA
:1010900064B14FF0000984F83490022184F83510CF
:1010A0002068016821F0010101600EE00120BDE827
:1010B000F08700BF00F09AF9401B052805D92021D0
:1010C0006165032084F83500F1E720680068C007F7
:1010D000F0D1D4E90020D4E90251D4E9043C2843FA
:1010E00004F1180519430843116895E8E00140EA46
:1010F0000C001C4B2843194040EA060040EA070058
:10110000B8F1040F40EA010003D1D4E90B131943ED
:101110000843106020680126656A4069042D20F0AC
:10112000070045EA00050CD1D4E90A01054341B1A5
:101130002046FFF723FC20B14020606584F835602D
:10114000B4E7206845612046FFF704FC94F85C3062
:101150003F229A408260C4F8549084F835600020A1
:10116000A5E700003F8010F02DE9F041044690F81B
:10117000340000250128A66D0ED094F835C0012753
:10118000002084F83470BCF1010F07D0022584F8E8
:1011900034002846BDE8F0810220FBE7022784F8EE
:1011A000357060652046FFF713FC94F85C103F2013
:1011B0008840B0602068016841F016010160206835
:1011C000416941F080014161206C20B120680168D3
:1011D00041F0080101602068016841F001010160EF
:1011E000D7E7000070B5044600F000F90546601C22
:1011F00002D004480078044400F0F8F8401BA042F4
:10120000FAD370BD000000202DE9F84FDFF89CE113
:1012100000224FF001084FF0030B4FF00F0A00BF00
:101220000B6808FA02F42340A34271D14D68022DE5
:1012300001D0122D0FD1D5080E69570700EB850597
:10124000A9462D6AFF0E0AFA07FCBE4025EA0C05E6
:101250002E43C9F820600F79550006680BFA05FC8B
:1012600007F0030726EA0C06AF40374307604E68D5
:10127000012E05D0022E03D0112E01D0122E0ED138
:101280008668CF6826EA0C06AF4037438760466819
:101290000F79A643C7F30017974037434760C468E8
:1012A0008E6824EA0C04AE402643C6604C68E40015
:1012B00075D53F4C256845F480452560246822F0AB
:1012C0000306950704F4804400943A4C2D0F2644FD
:1012D000D6F80848DFF8E0C00AFA05F7604524EAC6
:1012E000070401D100272EE0344FB84201D1012775
:1012F00029E0334FB84201D1022724E0314FB842F0
:1013000001D103271FE0304FB84202D104271AE071
:1013100045E02E4FB84201D1052714E02C4FB842CA
:1013200001D106270FE02B4FB84201D107270AE071
:10133000294FB84201D1082705E0284FB84201D112
:10134000092700E00A27AF4027437546C6F808780A
:101350004E68DEF80040F60324EA030400D51C437F
:10136000124E2C60361D4D683468AD0324EA030428
:1013700000D51C430D4F346008374D683C68ED02C2
:1013800024EA030400D51C43084D3C600C354E682C
:101390002C68B60224EA030400D51C432C60521CBE
:1013A000102AFFF43DAFBDE8F88F0000003C01407B
:1013B0004438024000300140000002400004024076
:1013C00000080240000C02400010024000140240DD
:1013D00000180240001C024000200240002402408D
:1013E0000AB1816170470904FBE700000148806889
:1013F0007047000000000020024881680278114414
:101400008160704700000020032010B500F07EF8D6
:10141000002000F005F800F023F8002010BD0000C7
:1014200070B50D4D04464FF47A700C4A2978126855
:10143000B0FBF1F0B2FBF0F000F0B0FD48B9102CB9
:1014400007D200222146501E00F040F800206C60B8
:1014500070BD012070BD0000000000200C000020C5
:101460000A4808B5016841F080510160006800F049
:10147000805000900548001D016841F480410160E2
:10148000006800F48040009008BD00004038024031
:1014900000280DDB410900F01F028900012001F145
:1014A000E0219040C1F88001BFF34F8FBFF36F8FF1
:1014B0007047002809DB410900F01F028900012064
:1014C00001F1E0219040C1F8000170470E4BF0B4EB
:1014D0001B680D46C3F30223C3F10706042E00D98F
:1014E0000426191D072901D2002300E0DB1E012478
:1014F00004FA06F19C40491E2940641E994014409C
:101500002143F0BC01F092BE0CED00E0064900F072
:10151000070210B54FF6FF040868044B204040EA6C
:1015200002201843086010BD0CED00E00000FA0531
:101530001848F8B5016841F0805101600068164C08
:1015400000F080500090206840F480302060FFF769
:101550004DFF4FF47A76054605E000BFFFF746FFE2
:10156000401BB0420FD86068C003F7D5206840F434
:1015700000302060FFF73AFF054606E0FFF736FF30
:10158000401BB04201D90320F8BD60688003F5D547
:101590000020F8BD40380240007000402DE9F84FAF
:1015A00004460078DFF824944FF000063746C00761
:1015B0000ED0D9F8001021F40001C9F80010D9F8B4
:1015C0000010626B1143C9F80010606B00B901266E
:1015D000FE4D2068843500030ED5E16B286820F4A9
:1015E000401008432860E06BB0F5801F01D010B1B7
:1015F00002E0012600E0012720684FF4800BC002C2
:101600000CD5216C286820F4400008432860206C29
:10161000584501D1012601E000B901272068C10128
:1016200000D50126800666D5E8483830016841F0CB
:10163000805101600068DFF898A300F080500090AE
:10164000DAF8001041F48071CAF80010FFF7CEFEFE
:10165000804605E0FFF7CAFEA0EB080064287DD8AD
:10166000DAF80000C005F5D5DFF8608308F16808F6
:10167000D8F8000010F440702AD0218E01F4407197
:10168000814225D0D8F80010D8F8002021F440710C
:1016900042F48032C8F80020D8F8002022F48032CA
:1016A000C8F80020C8F80010D8F80000C0070FD014
:1016B000FFF79CFE824607E0FFF798FEA0EB0A01C9
:1016C00041F288308142CAD8D8F800008007F3D5AB
:1016D000206BC0F3012103297ED0D9F8001021F43A
:1016E000F811C9F80010228ED8F80010C2F30B02CE
:1016F0001143C8F800102078C00607D5286820F0EC
:10170000807028602868A16B084328602188AF4852
:101710008830490405D5626E016821F440311143D7
:1017200001602188090405D5A26E016821F44021D9
:10173000114301602168C90305D5E26E016821F4F7
:101740004011114301602168890305D5226F0168AA
:1017500021F4400111430160217800E018E14906BD
:1017600005D5626C016821F0030111430160217805
:10177000090605D5A26C016821F00C011143016036
:101780002188C90505D5E26C016821F030011143BB
:1017900001602188890505D5226D016821F0C0010D
:1017A000114301602188490505D5626D016821F466
:1017B0004071114301602188090505D5A26D0168BA
:1017C00021F44061114301602188C90407D5E26D0D
:1017D000016821F4405100E041E01143016021889B
:1017E000890405D5226E016821F44041114301604E
:1017F0002168490205D5A26F016821F0806111437B
:10180000016021684FF0006A890209D5E26F016822
:1018100021F0006111430160E16F514500D10127C2
:1018200021680A0700D50127490305D5626F0168C1
:1018300021F04071114301602168090206D5D4F8F6
:101840008020016821F0805111430160DFF884910C
:10185000012E0ED02068B0F1007F0AD08FE05E4AE2
:10186000D9F80030104023F4F8120243C9F80020E0
:1018700039E7D9F800004E4620F08060C9F8000032
:10188000FFF7B4FD804605E0FFF7B0FDA0EB0800D0
:1018900064287DD830680001F6D421784B487C302C
:1018A000C90712D0616B81B9237A62680168D0F8E8
:1018B00000C09201C1F3014142EA0142CCF303614D
:1018C00042EA016141EA0371016021680A0303D51C
:1018D000E26BB2F5801F04D0C9021AD5216C5945BC
:1018E00017D16368016894F80CC002689B01C1F3CA
:1018F000014143EA0141C2F3027241EA0C6141EA4B
:10190000027101602968626A21F01F01521E1143B1
:1019100029602168C90110D5238A62680168D0F85E
:1019200000C09201C1F3036142EA034242EA01624C
:10193000CCF3027142EA01710160216889010CD582
:101940006168228A237B94F808C0890141EA024138
:1019500041EA036141EA0C7101603168B04641F02F
:1019600080613160FFF742FD064604E0FFF73EFD6F
:10197000801B64280CD8D8F800000001F6D56FB39E
:10198000D9F800004E4620F08050C9F8000000E071
:1019900079E0FFF72BFD074605E000BFFFF726FDC6
:1019A000C01B64286FD83068C0438000F6D5074854
:1019B000216880300A0301D5E26B1AB1C90225D52E
:1019C000216C19BB63690168277E08E00838024072
:1019D0000070004000380240FFFCFF0F5AE0026830
:1019E000C1F301419B0143EA0143C2F3027143EA9F
:1019F000076242EA0171016029686FF0FF03A26A81
:101A000021F4F85103EB0222114329602168890275
:101A100012D5E16F51450FD1238C626901680768C7
:101A20009201C1F3036142EA034242EA0162C7F351
:101A3000027142EA017101602178090716D56169D6
:101A40000268D0F800C08B01277FC2F30362CCF399
:101A5000014143EA014141EA026141EA0771016043
:101A60002868E16A20F4403008432860306840F07C
:101A700080503060FFF7BAFC044607E0FFF7B6FC81
:101A8000001B642802D90320BDE8F88F3068C043EA
:101A90008000F3D40020F7E72DE9F04705000F465A
:101AA00063D0444E306800F00F00B84209D230686D
:101AB00020F00F0038433060306800F00F00B8426B
:101AC00053D128683C4C810712D5400703D52068C4
:101AD00040F4E05020602878000703D5206840F4E7
:101AE00060402060A968206820F0F0000843206072
:101AF0002878C0072AD0304968680839012810D0F2
:101B00000968022810D0890700292EDA216821F0FF
:101B1000030101432160FFF769FC804641F28839E7
:101B20000DE009688903EFE78901EDE7FFF75EFC47
:101B3000A0EB0801494502D90320BDE8F087686899
:101B4000216801F00C01B1EB800FEFD1306800F09B
:101B50000F00B8420BD9306820F00F0038433060D6
:101B6000306800F00F00B84201D00120E5E7287886
:101B7000400705D5E968206820F4E050084320605C
:101B80002878000706D52869216821F4604141EAD8
:101B9000C000206000F036F82168084AC1F3031144
:101BA000515CC840064908600020FFF739FC00205E
:101BB000C3E70000003C024008380240F43B000844
:101BC0000C0000200449054809680068044AC1F374
:101BD0008221515CC8407047083802400C00002048
:101BE000043C00080449054809680068044AC1F338
:101BF0004231515CC8407047083802400C00002058
:101C0000043C0008154910B51548096811F00C028C
:101C100013D04110042A0FD0082A0ED10F4C241FD4
:101C20002268236802F03F025B0207D52068C0F3F8
:101C30008810A0FB010106E0084610BD2168C1F331
:101C40008811A1FB00010023FEF7DAFA2168C1F335
:101C50000141491C4900B0FBF1F010BD08380240B9
:101C60000024F4002DE9F84F05004FF000076ED076
:101C70002878DFF81C93A9F1040AC007AAF104042C
:101C80004CD0D9F800104846C1F38101012908D091
:101C90000068C0F3810002280AD1DAF8000040028F
:101CA00006D52068800339D568680028DFD035E084
:101CB0006868B0F5803F0BD010B1B0F5A02F11D0FF
:101CC000206820F480302060206820F4802002E02A
:101CD000206840F480302060686890B1FFF786FB90
:101CE00006460AE0206840F480202060F0E700BF4C
:101CF000FFF77CFB801B642872D820688003F7D52F
:101D00000CE0FFF773FB064605E000BFFFF76EFB34
:101D1000801B6428F0D820688003F7D428788007D7
:101D200042D5D9F80010484611F00C0F08D00068D1
:101D3000C0F3810002280BD1DAF80000400207D47A
:101D40002068800718D5E868012800D114E01CE15C
:101D5000E8680028206817D040F001002060FFF7F5
:101D600045FB064605E000BFFFF740FB801B02284D
:101D7000C2D820688007F7D52869216821F0F801CA
:101D800041EAC00020600FE020F001002060FFF772
:101D90002DFB064605E000BFFFF728FB801B02284D
:101DA0001ED820688007F7D42878000729D57848FE
:101DB00069696C3000298046016812D041F0010148
:101DC0000160FFF713FB064605E000BFFFF70EFBBF
:101DD000801B022804D8D8F800008007F6D510E050
:101DE00089E021F001010160FFF700FB064604E0F5
:101DF000FFF7FCFA801B02287DD8D8F80000800786
:101E0000F6D4287840076BD5DFF8848108F13808CC
:101E1000D8F80000C0000BD4D8F8001041F0805171
:101E2000C8F80010D8F80000012700F0805000909A
:101E300058480168C90512D40168834641F480718D
:101E40000160FFF7D3FA064605E000BFFFF7CEFAC0
:101E5000801B64284FD8DBF80000C005F6D54C4E37
:101E6000A868683601280AD008B1052811D0306862
:101E700020F001003060306820F0040002E030689B
:101E800040F001003060A868A0B1FFF7AFFA8346C8
:101E90000CE0306840F004003060F0E7FFF7A6FA8D
:101EA000A0EB0B0141F28830814266D83068800790
:101EB000F4D50EE0FFF79AFA834607E0FFF796FAAB
:101EC000A0EB0B0141F28830814256D83068800780
:101ED000F4D42FB1D8F8001021F08051C8F80010C8
:101EE000A869C8B3D9F80010C1F3810102294CD008
:101EF0000228206800E040E020F08070206003D0DD
:101F0000FFF774FA05463BE0FFF770FA064604E077
:101F1000FFF76CFA801B02282FD820688001F7D4C5
:101F2000D5E90962D5E907011B4B570895F82C2024
:101F3000084303EB074343EA8611084340EA026083
:101F400040F00050CAF80000206840F08070206027
:101F5000FFF74CFA054606E015E000BFFFF746FA2A
:101F6000401B022809D820688001F7D50BE000BF8C
:101F7000FFF73CFA401B022802D90320BDE8F88F86
:101F800020688001F4D40020F8E70120F6E7000083
:101F900008380240007000400000FFFF401EB0F112
:101FA000807F10B501D3012010BD4FF0E0246061A7
:101FB0000F21601701F03AF90020A061072121618B
:101FC00010BD70477047704770B590F83C20012AEB
:101FD00024D0134C012580F83C50022280F83D208B
:101FE00002685368A242966802D00E4CA24203D106
:101FF0004C6823F4700323430C6823F07003896852
:102000001C435460002326F080060268314391602F
:1020100080F83D5080F83C30184670BD022070BDFD
:10202000000001400004014010B5040003D094F802
:102030003D0010B107E0012010BD002084F83C00F5
:10204000204600F00DF8022084F83D002068211D94
:1020500000F01EFD012084F83D00002010BD0000AE
:1020600008B500680B49884212D10B48016841F05D
:102070000201016000680022114600F00200009099
:102080001D20FFF723FABDE808401D20FFF711BA15
:1020900008BD0000000400404038024070B504460E
:1020A00090F83C00012817D0324B012584F83C50B1
:1020B000022084F83D0022689068184020F47F4098
:1020C00090600868502830D00DDC20284DD005DC09
:1020D00098B310283BD148E0022070BD302844D08E
:1020E000402834D139E0602828D0702806D0B0F5D7
:1020F000805F2CD0B0F5005F29D10AE04A682068E3
:10210000D1E9021300F037FD2068816841F07701C2
:1021100009E04A682068D1E9021300F02CFD20682C
:10212000816841F48041816011E0CA684968206893
:1021300000F068FE2068502107E016E0CA68496890
:10214000206800F070FE2068602100F01DFD002076
:1021500084F83D5084F83C0070BDCA684968206826
:1021600000F050FE20684021EFE72268014610464B
:10217000EBE7000088FFFEFF704770B5044600687B
:1021800000250169C943890715D4C168C943890776
:1021900011D4EA1E0261012121772068806980073D
:1021A000204602D0FFF7E8FF04E000F0CFF8204619
:1021B00000F07DF9257720680169C943490717D4E4
:1021C000C168C943490713D402216FF004020261B8
:1021D00021772068806910F4407F204602D0FFF705
:1021E000CBFF04E000F0B2F8204600F060F925775C
:1021F00020680169C943090716D4C168C9430907A2
:1022000012D404216FF00802026121772068C069AE
:102210008007204602D0FFF7AFFF04E000F096F8F9
:10222000204600F044F9257720680169C943C906B2
:1022300017D4C168C943C90613D408216FF010022E
:10224000026121772068C06910F4407F204602D0E7
:10225000FFF792FF04E000F079F8204600F027F93C
:10226000257720680169C943C90708D1C168C943F6
:10227000C90704D1891E0161204600F059F9206880
:102280000169C943090609D4C168C943090605D4CF
:102290006FF0800101612046FFF794FE206801691C
:1022A000C943C90509D4C168C943090605D46FF4F7
:1022B000807101612046FFF784FE20680169C943EF
:1022C000490609D4C168C943490605D46FF04001E5
:1022D0000161204600F046F920680169C94389067A
:1022E0000BD4C168C943890607D46FF0200101618E
:1022F0002046BDE87040FFF766BE70BD10B586B0E1
:10230000044614216846FDF7B3FF0D492068884252
:1023100014D10C48016841F00101016000680021FE
:10232000402200F00100059002200092CDE9010159
:10233000CDE9031004486946FEF766FF06B010BDFC
:10234000000400403038024000000240704770B581
:10235000044690F83C000D4601280ED0012684F872
:102360003C60022084F83D000C2A45D007DC5AB1BD
:10237000042A1BD0082A78D12CE0022070BD102A34
:102380004ED0142A71D15DE0206800F005FC206871
:10239000816941F0080181612068816921F00401AF
:1023A000816120682A698169114311E0206800F089
:1023B0002DFC2068816941F4006181612068816998
:1023C00021F48061816120682969826942EA0121E2
:1023D00081614AE0206800F055FC2068C16941F045
:1023E0000801C1612068C16921F00401C161206850
:1023F0002A69C169114311E0206800F07FFC206860
:10240000C16941F40061C1612068C16921F4806142
:10241000C16120682969C26942EA0121C16124E0E1
:10242000206800F097FC2068416D41F0080141658B
:102430002068416D21F00401416520682A69416DE1
:10244000114311E0206800F0B1FC2068416D41F4B7
:10245000006141652068416D21F48061416520681B
:102460002969426D42EA01214165002084F83D60FE
:1024700084F83C0070BD10B5040003D094F83D0012
:1024800010B107E0012010BD002084F83C00204678
:1024900000F00CF8022084F83D002068211D00F0B7
:1024A000F7FA012084F83D00002010BD7047704706
:1024B00010B50268044631B1042908D0082928D093
:1024C0000C2908D129E0D06840F0010002E0D06872
:1024D00040F00400D0602068012200F03FFB114969
:1024E0002068884202D01049884203D1416C41F4EF
:1024F0000041416420680D4A81681140062906D0D8
:10250000B1F5803F03D0016841F001010160002076
:1025100010BDD06840F00800DCE7D06840F0100043
:10252000D8E700000000014000040140070001005E
:102530001D2010B5FEF7ACFF08494FF4FA72A1F563
:102540008470FEF73FFC06490A22BDE810406FF098
:102550007F43A1F51D7000F06BB80000180100204A
:102560000C030020704710B5040002D0606F10B15A
:1025700007E0012010BD002084F87000204600F024
:1025800025F8242060672068016821F001010160BE
:10259000204600F0DDFC0128ECD0606A10B1204636
:1025A00000F053FC2068416821F4904141602068AC
:1025B000816821F02A0181602068016841F00101F1
:1025C00001602046BDE8104000F0A3BC10B586B005
:1025D000044614216846FDF74BFE124920688842E4
:1025E0001ED11148016841F010010160006800F03F
:1025F000100005900C481438016841F00101016099
:1026000000680221002200F0010005900323072446
:102610004FF4C0608DE81F0004486946FEF7F4FDE2
:1026200006B010BD001001404438024000000240D6
:102630002DE9F8430446406F1F4616460D462028F4
:102640004FD1CDB1C6B194F87000012849D0012214
:1026500084F8702021214FF00008C4F87C80616765
:10266000FEF7C4FE8146A068A4F85060A4F852604A
:10267000B0F5805F03D004E00120BDE8F883206955
:1026800010B12E46002510E000260EE080212046E5
:1026900000F088FDB8B9C6B116F8010B2168886250
:1026A000B4F85200401EA4F85200B4F852004B4651
:1026B0004FF0000200970028E8D14FF0400120467B
:1026C00000F070FD38B10320D7E735F8020B216820
:1026D000C0F30800E3E720216167002084F87080E0
:1026E000CBE70220C9E7FEE77FB5134800244FF48B
:1026F0008033104E0094012501945A0202940394F1
:10270000066085610461C0E901320C4980F820400F
:10271000C0E90A14C561C46080F830504561FEF715
:10272000D3FA05486946CDE900450294FEF768F9F9
:102730007FBD000000200140100000200100000FBC
:102740002DE9F04F87B014216846FDF791FD5748F9
:10275000016841F004010160016801F00401059184
:10276000016841F080010160016801F0800105917C
:10277000016841F001010160016801F0010105916A
:10278000016841F002010160016801F00201059158
:10279000016841F008010160016801F0080105913C
:1027A000016841F040010160006844F2010ADFF86D
:1027B00000B1002200F04000514605905846FEF757
:1027C0000FFE3C4800224021FEF70AFE00243A4951
:1027D000DFF8E8904FF40058CDF80080CDE90114FF
:1027E00069464846FEF710FD02256946322002AAD6
:1027F000CDE90005032648460B2782E8D000FEF706
:1028000003FD8620694602AACDE900052C4882E82E
:10281000D000FEF7F9FC4FF00109CDF800A0CDE99A
:102820000194694658460394FEF7EEFC02AA6946F5
:10283000584682E8D000CDE90085FEF7E5FC30027D
:102840000294CDE9000507206946CDE903601D48E3
:10285000FEF7DAFC40210091CDE901941548694664
:102860000394FEF7D1FC80206946CDE900041148AD
:102870000294FEF7C9FC4FF4C85000900A20694644
:10288000CDE903600E48CDE90154FEF7BDFC4FF4DD
:102890002050694602AACDE90005064882E8D0002A
:1028A000FEF7B2FC07B0BDE8F08F00003038024000
:1028B000000402400018024000001110000802400D
:1028C00000000240000C024010B58EB000241C2114
:1028D000009407A801940294039404940594069428
:1028E000FDF7C6FC174845F25F41154B8022C0E951
:1028F0000034C0E9024104618261FFF795FB4FF4A7
:10290000805000900F486946FFF7C8FB0D48FFF75D
:10291000B2FD0C4804A904940694FFF755FB07AADE
:102920006020052182E813000648002207A90B94C5
:10293000FFF70DFD0348FFF7E1FC0EB010BD0000EE
:1029400000040040580000200E484FF461230C4A58
:102950000021F0B402604FF4004543600C24EB10FA
:1029600081603022C1605E00C0E90414C0E9061530
:10297000C0E90812C0E90E36F0BCFFF7F4BD000054
:102980000010014098000020FEE770477047704734
:10299000FEF732BD30B5B3B0302121A8FDF768FC99
:1029A00014212DA8FDF764FC84216846FDF760FC26
:1029B0001D48016841F080510160006800F08050BE
:1029C00032901A48016841F44041016000680025D6
:1029D0000DF1A40C00F44040329002242194102107
:1029E0000822D823CDE927458CE81C0001202C942F
:1029F000CDE9240121A8FFF735F9FEF799FDE202A0
:102A00004FF4A0510F20CDE930122DAA072182E802
:102A100031002DA8FFF740F840201195009068463E
:102A2000FEF7BCFD33B030BD4038024000700040BE
:102A3000104A30B51048146800210F4B44F470045C
:102A40001460083305680D4A0D4C45F0010505601A
:102A500019600368051D1340074A03600C322C609F
:102A60000568E305034C25F480250560803C116072
:102A7000236030BD88ED00E000380240FFFFF6FE25
:102A8000103000240148FFF778BB000058000020F8
:102A9000F0B5274B4FF0804E264D02689842264EE7
:102AA000264F274C09D0704507D0A84205D0B04228
:102AB00003D0B84201D0A04205D1D1F804C022F021
:102AC00070024CEA020298421BD0704519D0A8420D
:102AD00017D0B04215D0B84213D0A04211D0194D32
:102AE000A8420ED0184DA8420BD0184DA84208D0CD
:102AF000174DA84205D0174DA84202D0164DA84246
:102B000003D1CD6822F440722A434D6922F080023D
:102B10002A43026098428A68C2620A68826201D0CF
:102B2000A04201D10969016301214161F0BD0000AA
:102B3000000001400004004000080040000C00407C
:102B400000040140004001400044014000480140B1
:102B500000180040001C00400020004010B5046A2E
:102B6000012301F01F018B409C4304628A40016AEB
:102B70001143016210BD42EA032283680A4323F431
:102B80007F410A4382607047826822F070020A43E4
:102B900042F0070181607047F0B5026ADFF860C05B
:102BA000184F22F00102DFF860E00262066A426814
:102BB000836926F002060D68B8428C6803EA0C03AC
:102BC00023F0030344EA060445EA030501D07045F7
:102BD00005D1CB6824F00804234323F00404B84251
:102BE00001D0704505D122F44076D1E90532334356
:102BF0001A4342608561496841630462F0BD000088
:102C00008FFFFEFF0000014000040140F0B5026AA2
:102C1000194E1A4C22F01002DFF864E00262056AD5
:102C20004368826925F02005D1F808C0A0420F68EA
:102C300002EA060222F4407245EA0C1542EA072233
:102C400001D0704506D1CE6825F0800545EA06150D
:102C500025F04005A04201D0704507D1D1E90546D5
:102C600023F4406343EA840343EA860343608261BA
:102C7000496881630562F0BDFF8FFFFE00000140DF
:102C800000040140F0B5026A194F1A4E22F4807216
:102C9000DFF864E00262056A4368C26925F40075E2
:102CA000D1F808C0B0420C6802EA070222F0030221
:102CB00045EA0C2544EA020401D0704506D1CF68EC
:102CC00025F4006242EA072222F48065B04201D076
:102CD000704507D123F44052D1E9053642EA031288
:102CE00042EA06134360C4614968C1630562F0BDEE
:102CF0008FFFFEFF0000014000040140F0B5026AB2
:102D0000124B114F22F4805298420262046A4268C8
:102D1000C36924F400548E680D6803EA070323F4A2
:102D2000407344EA063443EA052302D0084DA84222
:102D300004D14D6922F4804242EA85124260C361A7
:102D4000496801640462F0BDFF8FFFFE000001408E
:102D500000040140F0B5026ADFF844C022F480327A
:102D60000262056A4268446D25F400350E896045AB
:102D70000C4F0B6804EA070445EA064543EA0403DE
:102D800002D0094CA04204D14C6922F4803242EABC
:102D9000042242604365496881650562F0BD000018
:102DA000000001408FFFFEFF00040140F0B5026A01
:102DB000DFF844C022F480120262046A4268436D64
:102DC00024F400140E8960450C4F0D6803EA0703D4
:102DD00044EA065443EA052302D0094DA84204D12F
:102DE0004D6922F4802242EA8522426043654968A7
:102DF000C1650462F0BD000000000140FF8FFFFECE
:102E00000004014010B5036A046A23F00A0324F0A9
:102E10000104046284690B4324F0F00141EA0211C9
:102E20008161036210BD10B5036A23F010030362D1
:102E30008369046A23F4704324F0A00443EA023255
:102E4000826144EA0111016210BD90F82410C907A3
:102E500006D00168836A4A6822F400321A434A6045
:102E600090F82410890706D50168C36A4A6822F4DD
:102E700080321A434A6090F82410490706D5016849
:102E8000036B4A6822F480221A434A6090F82410A7
:102E9000090706D50168436B4A6822F400421A43C9
:102EA0004A6090F82410C90606D50168836B8A68C9
:102EB00022F480521A438A6090F82410890606D5BD
:102EC0000168C36B8A6822F400521A438A6090F842
:102ED0002410490611D50168036C4A6822F4801257
:102EE0001A434A60016CB1F5801F06D10168436C3A
:102EF0004A6822F4C0021A434A6090F82410090676
:102F000006D50168826C486820F4002010434860B0
:102F1000704738B500250446C567FEF767FA0346D3
:102F20002068006800070BD56FF07E4000900022FB
:102F300020464FF4001100F035F908B1032038BDE8
:102F40002020606784F87050A067002038BD000022
:102F50002DE9F04104468068DFF818C2864F2368E7
:102F6000D4E90452E16928431E6800250A438349D5
:102F7000104306EA0C0606431E604FF40042206828
:102F8000E668436823F44053334343602368A669EB
:102F9000206AD3F808C030432CF4306606439E60A4
:102FA0002068B8420AD1086810F0030052D0012806
:102FB0007BD002287AD003286ED186E0704B9842ED
:102FC0000AD1086810F00C0079D004287BD00828BA
:102FD00077D00C2860D178E06A4B98420AD1086813
:102FE00010F030006BD010286DD0202869D0302828
:102FF00052D16AE0644B98420AD1086810F0C000D0
:103000005DD040285FD080285BD0C02844D15CE0F0
:103010005E4B98420DD1086810F440704FD0B0F567
:10302000807F50D0B0F5007F4BD0B0F5407F33D1DA
:103030004BE0574B98420FD1086810F4406009D01C
:10304000B0F5806F3FD0B0F5006F3AD0B0F5406F6B
:1030500022D13AE0012120E04E4B98420DD1086880
:1030600010F440502BD0B0F5805F2CD0B0F5005F4D
:1030700027D0B0F5405F0FD127E0474B98420BD1E6
:10308000086810F440401AD0B0F5804F1BD0904231
:1030900017D0B0F5404F18D01021E0694FF6EF7609
:1030A000904238D109295DD202E00CE009E006E047
:1030B000DFE801F00D1027582A5858582D0000213C
:1030C000EBE70221E9E70421E7E70821E5E7FEF75E
:1030D00079FD01E0FEF786FD0146D4F804004900C1
:1030E00001EB5001B1FBF0F080B2A0F11001B14250
:1030F00038D84FF6F0732168C0F3420218401043ED
:1031000024E026496068EBE7FEF77CFDE4E76068B1
:103110004FF48031E4E7092924D2DFE801F0050803
:1031200019231C2323231F00FEF74CFD01E0FEF7AB
:1031300059FD0146D4F8040001EB5001B1FBF0F059
:1031400080B2A0F11001B1420CD82168C8600AE039
:1031500013496068F0E7FEF755FDEAE7606802EBA7
:103160005001EBE701250020206660662846BDE897
:10317000F0810000F369FFEF001001409038024039
:103180000044004000480040004C00400050004017
:103190000014014000780040007C00400048E80135
:1031A0000024F4002DE9F041984617460E460446E7
:1031B000069D08E0681C06D0FEF718F9A0EB080091
:1031C000A8420BD855B12068C06936EA000017D074
:1031D0000020B842EED00020BDE8F0812168202018
:1031E00000220B6823F4D0730B6021688B6823F0F6
:1031F00001038B606067A067032084F87020EBE711
:103200000120E6E7FEE7000037B514460846064B06
:103210006A46214600F0ECF804466946002000F0BA
:103220007EFC20463EBD00001F3B00080907002829
:103230004FEA116104DB00F1E02080F800147047D0
:1032400000F00F0000F1E02080F8141D704702E04C
:1032500008C8121F08C1002AFAD170477047002021
:1032600001E001C1121F002AFBD170472DE9FF5F69
:1032700082B00021DDE90430020DDDF840B00343E7
:1032800018D044F61050A2F2FF32424315141198A0
:1032900001281FD0A5EB0B00401C5FEA000A4FF08D
:1032A00000064E4FDFF83891B046504615D5CAF1AA
:1032B000000413E0119801244AA3012801D16FEA08
:1032C0000B010298119AC0E90031C0E9024206B030
:1032D000BDE8F09FCBF10000DFE704460021404A43
:1032E000491842EB0450CDE9001012E0E00707D086
:1032F00032463B4640464946FDF7A8F88046894697
:1033000032463B4610461946FDF7A0F806460F46E2
:103310006410002CEAD1DDE90401DDE90023BAF1F3
:10332000000F06DAFDF792F842464B46FDF78EF89D
:1033300005E0FDF7FDF842464B46FDF7F9F8044677
:103340000E460022284BFDF77BF903D84FF0FF30E3
:10335000014607E00022254B20463146FCF7CFFF0F
:10336000FDF755F9102409E0002C0ADB0A2200239E
:10337000FCF746FF039B30321A55641E50EA0102E7
:10338000F2D1641C039AC4F111031444119A012A66
:1033900003D0012208430DD10AE0084304D00020E5
:1033A0004FF0110B119072E7A3EB0B056D1E0DE0B2
:1033B0005B4504DD4FF0000205F1010504E003DA8E
:1033C0004FF00002A5F10105002AECD002981199F6
:1033D000C0E90231C0E9004579E70000000014406F
:1033E0000000F03F300000000000F0430000E03F2C
:1033F0002DE9FF4F95B09B468946064600250FE212
:10340000252877D100242746F84A0121059400E0B9
:10341000044316F8013F203B01FA03F01042F7D1B4
:1034200030782A2811D06FF02F033078A0F13002C5
:10343000092A16D8059A44F0020402EB820203EB33
:1034400042021044761C0590EFE759F8042B0592D0
:10345000002A03DA504244F40054059044F0020478
:10346000761C30782E2816D116F8010F44F004048B
:103470002A280DD06FF02F023078A0F13003092BED
:1034800009D807EB870302EB4303C718761CF3E761
:1034900059F8047B761C30786C280FD006DC4C2859
:1034A00017D068280DD06A2814D104E0742810D0F1
:1034B0007A280FD10DE044F400140AE044F480149B
:1034C00001E044F440147278824202D104F5801481
:1034D000761C761C307866280BD013DC582877D001
:1034E00009DC002875D04528F6D04628F4D04728B6
:1034F0001AD19DE118E0632835D0642879D0652879
:1035000012D195E1702873D008DC6728F1D06928C2
:103510006FD06E280DD06F2806D1B5E073282CD05F
:10352000752875D0782874D05A46179990476D1C25
:1035300075E1C4F30250022809D003280DD0D9F850
:10354000001004280DD00D6009F1040967E1D9F8D5
:103550000010EA17C1E90052F6E7D9F800100D8013
:10356000F2E70D70F0E719F8041B8DF80010002049
:103570008DF80100EA46012003E059F804AB4FF052
:10358000FF3061074FF0000102D40DE008F10101A6
:103590008846B9420FDA8045F8DB1AF8081000298E
:1035A000F4D108E008F1010188468142FADB1AF8FB
:1035B00008100029F6D105985B46A0EB08072146C4
:1035C0003846179A00F094FA284400EB080507E003
:1035D0004DE029E10DE01AF8010B5A461799904782
:1035E000B8F10108F7D25B4621463846179A13E135
:1035F00042E00A220092C4F302524FF0000A022A6B
:1036000008D059F804CB032A4FEAEC710AD00DE038
:1036100029E02AE009F1070121F00702F2E802C1DE
:10362000914609E00FFA8CFC4FEAEC71042A03D1B1
:103630004FFA8CFC4FEAEC71002907DA0A460021A8
:10364000DCF1000C61EB02012D2202E0220504D521
:103650002B228DF80420012203E0E20701D0202272
:10366000F7E7904659E00A2102E010220DE0102110
:103670004FF0000A00910BE010224FF0000A44F0D6
:1036800004040827009203E008224FF0000A009289
:10369000C4F30252022A05D059F804CB0021032AB0
:1036A00008D009E009F1070121F00702F2E802C1A0
:1036B000914605E01FFA8CFC042A01D10CF0FF0CA6
:1036C0004FF00008220728D5702806D0009B83F011
:1036D000100353EA0A0305D00EE040228DF80420BF
:1036E000012208E05CEA010206D030228DF80420B5
:1036F0008DF8050002229046009B83F0080353EAF0
:103700000A030AD15CEA010201D1620705D5302221
:103710008DF804204FF001087F1E582804D034A0F3
:1037200003900EA802900DE036A0F9E753466046DC
:10373000009AFCF765FD84460398825C0298401E5F
:10374000029002705CEA0100F0D1029806A9081A02
:1037500000F1200A600702D524F4803400E001273C
:10376000574502DDA7EB0A0000E0002000EB0A014C
:10377000009005984144401A0590E00306D45B464A
:103780002146179A059800F0B3F90544002706E092
:1037900001A85A46C05D179990476D1C7F1C47458C
:1037A000F6DBE0030CD55B462146179A059800F03E
:1037B0009FF9054404E030205A46179990476D1C44
:1037C0000099481E00900029F5DC08E00298029953
:1037D0005A460078491C0291179990476D1CBAF11E
:1037E0000001AAF1010AF1DC65E1000009280100ED
:1037F0003031323334353637383961626364656667
:103800000000000030313233343536373839414228
:10381000434445460000000000F058F90544761C7A
:10382000307800287FF4ECAD19B02846BDE8F08F61
:10383000620700D4062709F1070222F0070CFCE812
:103840000223E14603F000485FEA080C02D00FF2C1
:10385000702C0DE05FEA045C02D50FF2682C07E0E3
:103860005FEAC47C02D00FF2602C01E0AFF2700C72
:103870004FF0FF3823F00043CDF850C065280CD03E
:1038800006DC452809D046281DD047283DD13DE01B
:10389000662818D067287ED138E00021112F01DB7F
:1038A000112000E0781CCDE9000106A90EA8FFF761
:1038B000DDFCDDE90F010E9A03910021009207F172
:1038C000010A04914DE04FF000400097CDE901104E
:1038D00006A90EA8FFF7CAFCDDE90F0203920E9BB2
:1038E00011990022DDF80CA00093049211B9791C03
:1038F00000EB010AB7EB0A0004D4C0F1FF3007F176
:10390000010A0490AAEB0700019044E0012F00DABD
:1039100001270021112F01DD112000E03846CDE9FB
:10392000000106A90EA8FFF7A1FCDDE90F010E9A20
:103930000391002104910092BA4621070CD4039907
:10394000514500DA8A46BAF1010F05DD009AAAF165
:103950000101515C302908D0B84202DA10F1040F9D
:1039600006DA0121CDE9011015E0AAF10101E9E72C
:10397000002805DC049901440491AAEB000102E04F
:10398000411C514500DD8A460499401A401C0190B3
:103990004FF000400290200704D40198504501DB0D
:1039A000CDF8048000208DF84F0002980DF14F07EC
:1039B000B0F1004F25D02B200E9002984FF0020856
:1039C00000280CDA404202902D200E9007E00A21D8
:1039D0000298FCF75FFC3031029007F8011DB8F146
:1039E0000001A8F10108F2DC02980028EFD1791E4D
:1039F0000E980870307800F0200040F0450007F87D
:103A0000020D12A8C01B00F107081498007800B13D
:103A1000012000EB0A01019801EBE0710598414497
:103A2000401A401E0590E00306D45B462146179AD3
:103A3000059800F05DF805441498007818B15A46CE
:103A4000179990476D1CE00324D55B462146179AD1
:103A5000059800F04DF805441CE00498002807DBA9
:103A6000DDE90301884203DD0098405C179901E01D
:103A7000179930205A469047049805F10105401CDB
:103A800004900198401E019004D12E205A461799A7
:103A900090476D1CBAF10001AAF1010ADDDC05E0D6
:103AA00017F8010B5A46179990476D1CB8F10001A1
:103AB000A8F10108F4DC5B462146179A0598ABE6AD
:103AC0002D0000002B000000200000002DE9F04137
:103AD000044600251E461746880404D405E03946EE
:103AE0002020B0476D1C641EF9D52846BDE8F08142
:103AF0002DE9F041044600251E469046C80301D535
:103B0000302700E02027880404D505E041463846E8
:103B1000B0476D1C641EF9D52846BDE8F0810A68DF
:103B2000531C0B6010707047184AFF21002008B525
:103B30001154401C0A28FBDBFDF766FCFEF72AFF48
:103B4000FEF7FEFD1248016841F480010160006843
:103B50000022114600F4800000903820FDF7B6FCEA
:103B60003820FDF7A6FCFEF7BFFDFEF7EDFEFEF7E1
:103B7000ABFE4FF47A70FDF735FB06A000F014F8A9
:103B800008480021FEF794FCFEE700000C0300202B
:103B9000303802407374617274696E6720444D411D
:103BA000200D0A00580000200FB410B503A9029898
:103BB00000F004F810BC5DF814FB000000B5B3B0D1
:103BC0000A4601466846FFF71FFB002809DD6846E4
:103BD000FCF759FB82B204486FF07F436946FEF759
:103BE00027FD33B000BD000098000020000610162D
:103BF000000610160000000000000000010203048F
:103C00000607080900000000010203042C3C00081C
:103C100000000020100000004E3200083C3C00086C
:103C200010000020680700005E320008010000005C
:0C3C300010000000000000000024F40060
:04000005080001C925
:00000001FF
