:020000040800F2
:10000000502A0020DD0100086B380008AF340008DA
:1000100069380008C10900084959000800000000BB
:10002000000000000000000000000000F939000896
:10003000150B000800000000F7390008FB39000824
:10004000F7010008F7010008F7010008F7010008B0
:10005000F7010008F7010008F7010008F7010008A0
:10006000F7010008F7010008F7010008F701000890
:10007000F7010008F7010008F7010008F701000880
:10008000F7010008F70100087D080008F7010008E3
:10009000F7010008F7010008F7010008F701000860
:1000A000F7010008F7010008F7010008F701000850
:1000B000F7010008F93A0008F7010008F701000805
:1000C000F7010008F7010008F7010008F701000830
:1000D000F7010008F7010008F7010008F701000820
:1000E000F7010008F7010008F7010008F701000810
:1000F000F7010008F7010008F7010008F701000800
:10010000F7010008F7010008F7010008F7010008EF
:10011000F7010008F7010008F7010008F7010008DF
:10012000350A0008F7010008F7010008F701000888
:10013000F7010008F7010008F7010008F7010008BF
:10014000F7010008F7010008F70100086D38000802
:10015000F7010008F7010008F7010008F70100089F
:10016000F7010008F7010008F7010008F70100088F
:10017000F7010008F7010008F7010008000000007F
:10018000F7010008F7010008F7010008F70100086F
:10019000F7010008F7010008F7010008F70100085F
:1001A000F7010008F7010008F7010008F70100084F
:1001B000F7010008F7010008F7010008F70100083F
:1001C000F7010008F7010008DFF80CD000F062FA30
:1001D00000480047BD620008502A002006488047BA
:1001E00006480047FEE7FEE7FEE7FEE7FEE7FEE71C
:1001F000FEE7FEE7FEE7FEE7A53A0008C9010008B2
:100200002DE9F05F0546002092469B46884606464B
:10021000814640241BE0284641464746224600F0DE
:1002200070F853465A46C01A914110D311461846E9
:10023000224600F057F82D1A67EB01084F46224678
:100240000120002100F04EF817EB00094E41201E5E
:10025000A4F10104DFDC484631462A464346BDE8A6
:10026000F09F40EA01039B0703D009E008C9121F71
:1002700008C0042AFAD203E011F8013B00F8013B60
:10028000521EF9D27047D2B201E000F8012B491E8C
:10029000FBD270470022F6E710B513460A46044623
:1002A0001946FFF7F0FF204610BD421C10F8011B55
:1002B0000029FBD1801A704730B50B46014600205B
:1002C0002022012409E021FA02F59D4205D303FA18
:1002D00002F5491B04FA02F52844151EA2F1010299
:1002E000F1DC30BD202A04DB203A00FA02F10020C4
:1002F00070479140C2F1200320FA03F31943904064
:100300007047202A04DB203A21FA02F000217047CE
:1003100021FA02F3D040C2F120029140084319466D
:1003200070472DE9FE4F804681EA0300C00F0C465E
:10033000009021F0004123F00045B8EB0200A941F4
:1003400005D24046214690461C460B46024623F005
:100350000040104347D0270DC7F30A00C3F30A51EA
:100360000290401A019040286BDAC3F3130040F466
:10037000801B0098924620B10023D2EB030A63EB66
:100380000B0B01985946C0F140025046FFF7AAFFF7
:1003900006460D4650465946019A00F08DF910EB7D
:1003A00008006141002487EA115284EAE7731A4386
:1003B00040D0009A62B3019A012A4FEA075215DC35
:1003C000001B61EB02014FF0004202EA0752CDE947
:1003D0000042001C41F5801132462B4600F08DF999
:1003E00003B0BDE8F08F40462146F9E7001B61EB02
:1003F0000201001C41F5801300185B412018A2F592
:10040000001747EB030140EAD570B6196D4111E0C2
:100410006D084FEA360645EAC0754FEA0752001BE1
:1004200061EB0201001C41F5801149084FEA3000E0
:100430000019514132462B4603B0BDE8F04F00F0A1
:100440004DB90098012240000023D0EB020263EB7B
:10045000E073009821464FEAE074B8EB000061EBCE
:100460000401E9E783F000435BE781F0004158E7CE
:100470002DE9FE4F81EA030404F0004421F000411D
:1004800000944FF0000B23F0004350EA01045ED0CB
:1004900052EA03045BD0C3F30A54C1F30A552C4457
:1004A000A4F2F3340194A0FB0254C1F3130141F40C
:1004B0008011C3F3130343F4801301FB024400FBD8
:1004C000034E840A970A44EA815447EA8357A4FBFF
:1004D000076802958D0A05FB07854FEA932C04FBFC
:1004E0000C542705029D4FEA065847EA1637B5EB2C
:1004F00008056EEB070C870E920E47EA811742EA59
:100500008312A7FB0201B6EB0B0164EB00042B0D79
:1005100043EA0C335E1844EB1C50DA465146E7FBC5
:100520000201C5F313044FEA0B3343EA14534FEAB5
:100530000432019C43EA0603A4F10C040294009CDB
:10054000CDE900B400F0D9F803B0BDE8F08F002089
:100550000146F9E72DE9F04D81EA030404F0004B70
:1005600021F0004514464FF0000A23F0004150EA04
:10057000050220D054EA01021DD0C5F30A570246F5
:10058000C5F31303C1F31300C1F30A5640F48015F9
:1005900043F48013A7EB0608101BD64608F2FD387B
:1005A00073EB050002D308F1010801E092185B41EA
:1005B000B8F1000F03DA00200146BDE8F08D0020FD
:1005C0004FF48011064684460EE0171B73EB0507B7
:1005D00005D3121B63EB050306434CEA010C4908E3
:1005E0004FEA300092185B4150EA0107EDD152EA20
:1005F000030012D082EA040083EA0501084305D013
:10060000101BAB4106D20122002306E000224FF06E
:10061000004302E06FF0010253101AEB06004CEBAE
:10062000085110EB0A0041EB0B01BDE8F04D00F062
:1006300055B8C1F30A52C1F3130140F2FF3341F43C
:1006400080119A4202DA00200146704740F233439B
:100650009A42A2F2334202DC5242FFF752BEFFF747
:1006600041BE000030B5041E71F1000404DB4FF000
:100670000044404264EB0101141E73F1000405DBE9
:100680001C464FF00043524263EB0403994208BFFB
:10069000904230BD064C074D06E0E06840F0010393
:1006A00094E8070098471034AC42F6D3FFF790FD6A
:1006B0004C6400086C640008202A06DBCB17203A43
:1006C00041FA02F043EAE07306E041FA02F3D04057
:1006D000C2F12002914008431946704710B5141E1C
:1006E00073F1000408DA401C41F1000192185B41EB
:1006F0001A4301D120F0010010BD2DE9F04D9246C2
:100700009B4611B1B1FA81F202E0B0FA80F22032D8
:100710009046FFF7E7FD04460F4640EA0A0041EA2B
:100720000B0153465A46084313D0114653EA0100C1
:1007300019D0C8F140025046FFF7E3FD05460E46CA
:10074000504659464246FFF7CDFD084305D00120EB
:1007500004E020463946BDE8F08D0020054346EA16
:10076000E0762C4337430A986305E40AA0EB0800BF
:100770000022FD0A44EA47540A3002D5002001460F
:10078000E9E7010510196941DDE9084500196941EA
:10079000BDE8F04DA2E770B58C1810F8015B15F0BC
:1007A000070301D110F8013B2A1106D110F8012BE3
:1007B00003E010F8016B01F8016B5B1EF9D12B0708
:1007C00005D40023521E0DD401F8013BFAE710F8BE
:1007D000013BCB1A921C03E013F8015B01F8015BAB
:1007E000521EF9D5A142D8D3002070BD10B50146E4
:1007F000806B026C12F0500F05D0026CD20626D529
:1008000000F050FA10BD016C41F400710164016800
:100810008A6812F0405F17D18269AAB9CA6A12F4D5
:10082000700F02D08A6852050ED44A6822F0200266
:100830004A60016C21F480710164016CC90403D425
:10084000016C41F00101016400F01AFA10BD806BE7
:10085000C26C0846BDE81040104710B5806B4021BF
:100860000164416C41F00401416400F01BFA10BDC9
:1008700010B5806B00F00AFA10BD0000014800F0CE
:1008800012BA0000A40100204A496FF0706210B54E
:10089000D1F8043323F44033C1F80433D1F80433DE
:1008A00044682343C1F8043301684B6823F4807320
:1008B0004B60016803694C6844EA03234B6001689C
:1008C0004B6823F040734B60016884684B68234396
:1008D0004B6001688B6823F400638B600168C46817
:1008E0008B6823438B60816AD14201688A6822F059
:1008F00070628A6001680DD0836A8A681A438A60D0
:1009000001688A6822F040528A600168C36A8A6876
:100910001A4302E08A6822F040528A6001688A68BD
:1009200022F002028A60016882698B6843EA42020F
:100930008A6090F820100029016811D01E4A4B6887
:1009400043F400634B6001684B6823F460434B60E1
:100950000168446A4B6802EB443213434B6003E086
:100960004A6822F400624A600168144BCA6A22F4A1
:100970007002CA620168848BCA6A03EB04531A438B
:10098000CA6201688A6822F400728A60016890F87D
:1009900030208B6843EA42228A6001688A6822F428
:1009A00080628A60016840698A6842EA80208860C3
:1009B00010BD00000020014000E0FFFF0000F0FF3C
:1009C000FEE7002070470020704700000549002224
:1009D000054810B503F046FD0449034803F03CFD0B
:1009E000002010BD50160020B0050020500E002041
:1009F0000146044810B503F02FFD024803F00EFD38
:100A0000002010BDB0050020094A10B5D2F8902290
:100A1000D2F814220AB1012010BD0A46014604484A
:100A200003F020FDBDE81040014803F07ABD00004E
:100A3000B0050020014800F0E1BA00005005002098
:100A400001681823CAB2103AB2FBF3F2054B6FF3F8
:100A50000901032A9B5CC36500D9091D816508460D
:100A6000704700002C64000810B583694FF0C07413
:100A7000826A0146002053B1B3F5005F15D072B110
:100A8000012A0CD0022A0AD0032A09D104E01AB1A3
:100A9000012A06D0022A03D1C96AC90100D5012062
:100AA00010BDC96AA142FAD010BD002AF7D0012AB0
:100AB000F2D0022AF3D0032AF3D010BD30B5046877
:100AC000256825F480252560046863608368402BD1
:100AD000036803D099600068C26030BD9A60006806
:100AE000C16030BD094A07490748106008480B68D3
:100AF000002243F080730B604260016841F0010105
:100B000001607047FCED00E055CEACC5B01F00E0C1
:100B1000001000E07047704770470000F8B50025EE
:100B2000009590F83C20012A18D0012280F83C2042
:100B30000A6807234E4C0668092A1AD90A3A02EBBA
:100B40004207F268BB409A43F2600E680268A64210
:100B500006D10B7AD66846EA036308E00220F8BDA6
:100B60000A3E8B68D76806EB4606B3403B43D3602A
:100B70000EE002EB42073269BB409A4332610368E0
:100B80000E788A681F6906EB4606B2403A431A613E
:100B90004A681F23072A13D20668521E02EB8207F7
:100BA000726BBB409A43726303680E790A88761EA3
:100BB0005F6B92B206EB8606B2403A435A6327E077
:100BC00006680D2A12D2D21F02EB8207326BBB409D
:100BD0009A43326302680E790B88F61F176B9BB23B
:100BE00006EB8606B3403B43136311E00D3A02EB7C
:100BF0008207F26ABB409A43F26202680E790B8860
:100C00000D3ED76A9BB206EB8606B3403B43D362E8
:100C1000184A0368934208D10B68122B05D1D2F809
:100C2000043343F48003C2F80433036893421AD1B7
:100C30000B68A34201D0112B15D1D2F8043343F431
:100C40000003C2F804330968A1420CD10A490B4AD7
:100C50000968B1FBF2F101EB8101490000E0491E96
:100C600000910029FBD180F83C500020F8BD000025
:100C700012000010002001408400002040420F00BC
:100C800001490120087070470000002001A005F014
:100C9000ABBB000068616C665F63706C74200D0A0A
:100CA00000000000704770B50446006801684268A3
:100CB000C1F34001C2F3401251B34AB3216CC906DB
:100CC00003D4216C41F400712164816811F0405F0C
:100CD00017D1A169A9B9C16A11F4700F02D0816856
:100CE00049050ED4416821F020014160206C20F4B8
:100CF00080702064206CC00403D4206C40F001009C
:100D000020642046FFF7BCFF21686FF012000860E6
:100D1000206801684268C1F38001C2F3C01289B340
:100D200082B3216CC90603D4216C41F400512164C3
:100D3000816811F4401F1ED1816B11F4401F02D055
:100D40008168490517D44168490514D4816811F0B8
:100D5000405F10D1A16971B9416821F08001416003
:100D6000206C20F480502064206CC00503D4206CDB
:100D700040F0010020642046FFF7CEFE21686FF0AE
:100D80000C00086020680168436811F0010FC3F38C
:100D900080110ED069B10068C0070AD0206C40F401
:100DA00080302064204600F046F821686FF0010092
:100DB0000860206801684268C1F340110029C2F34D
:100DC00080620DD0002A0BD0616C6FF0200541F0DD
:100DD0000201616405602046FFF764FF206805603A
:100DE00070BD70B504004FF0000503D0206C0026E4
:100DF00010B107E0012070BD204600F01DF86664C8
:100E000084F83C60206CC00610D4206C20F488501C
:100E100040F0020020642046FFF736FD6664206C37
:100E200020F0020040F00100206400E0012584F879
:100E30003C60284670BD704770B586B006461421E8
:100E40006846FFF727FA2049306888423AD11F48A0
:100E5000016841F480710160006800F480700590C1
:100E60001A481438016841F001010160006800254A
:100E7000032100F00100059001208DE823001448B3
:100E8000694600F04DFA134C134801152060656067
:100E90004FF44030A560C4E903516561A561C4E920
:100EA00007502046656200F079F908B1FFF733FE7C
:100EB000B46300220221A663122000F093FB1220EB
:100EC00000F083FB06B070BD0020014044380240B2
:100ED000000002405005002010640240F8B50D46A5
:100EE00004460021009190F83C00012807D0012021
:100EF00084F83C0020688368DB0702D011E0022000
:100F0000F8BD8668364B46F00106866035480068B5
:100F1000B0FBF3F000EB400000E0401E0090002822
:100F2000FBD120688368DB0758D0236C40F2016650
:100F3000B34343F4807323644068400505D5206CB7
:100F400020F4005040F480502064206CC00404D58C
:100F5000606C20F00600606400E061646FF02200C5
:100F600084F83C10A36B2049D963A36B1F49196413
:100F7000A36B1F49D964216808602068416841F06B
:100F8000806141602068816841F4807181602168DE
:100F90001346A06B2A464C3100F072F91549D1F87E
:100FA0000403C006206811D0884207D1826812F07D
:100FB000405F03D1826842F080428260D1F804032E
:100FC000C0060BD40C492068884207D1816811F013
:100FD000405F03D1816841F0804181600020F8BD0D
:100FE00040420F0084000020ED070008710800084F
:100FF0005B08000800200140002201402DE9F84371
:1010000004464FF00009644B0820CDF800904FF4DF
:101010001652A56D94F85C101B682E68B3FBF2F7AE
:1010200000FA01F131420FD021680A6852070BD54E
:101030000A6822F004020A6094F85C108840A860F4
:10104000606D40F00100606594F85C104FF001089D
:1010500008FA01F0304208D021684969090604D530
:10106000A860606D40F00200606594F85C10042098
:101070008840304208D021680968890704D5A860F3
:10108000606D40F00400606594F85C1010208840AA
:10109000304218D021680968090714D5A860206873
:1010A0000168490304D50068000308D5A16C07E076
:1010B0000168C90503D4016821F008010160216CB1
:1010C00009B12046884794F85C10202088403042BF
:1010D00031D021680968C9062DD5A86094F835007B
:1010E00005282068016806D0490347D50068000339
:1010F0001DD4616C1CE021F016010160206841697B
:1011000021F080014161206C08B9A06C20B12068F9
:10111000016821F00801016094F85C303F229A4098
:10112000AA6084F8349084F83580216D1FE0E16B6B
:1011300009B120468847606D00282BD0606DC0073C
:1011400014D0052084F835002068016821F00101E1
:1011500001600098401C0090B84203D820680068E5
:10116000C007F6D184F8349084F83580E16C00290A
:1011700010D001B02046BDE8F04308470168C9051A
:10118000D5D4036823F01003036084F8349084F806
:101190003580CCE7BDE8F883840000202DE9F047D6
:1011A000044600F0AFF9054664B14FF0000984F839
:1011B0003490022184F835102068016821F0010183
:1011C00001600EE00120BDE8F08700BF00F09AF951
:1011D000401B052805D920216165032084F83500CE
:1011E000F1E720680068C007F0D1D4E90020D4E915
:1011F0000251D4E9043C284304F11805194308437B
:10120000116895E8E00140EA0C001C4B28431940A6
:1012100040EA060040EA0700B8F1040F40EA010086
:1012200003D1D4E90B131943084310602068012649
:10123000656A4069042D20F0070045EA00050CD1DD
:10124000D4E90A01054341B12046FFF70DFC20B166
:101250004020606584F83560B4E720684561204629
:10126000FFF7EEFB94F85C303F229A408260C4F8AE
:10127000549084F835600020A5E700003F8010F00E
:101280002DE9F041044690F8340000250128A66DB0
:101290000ED094F835C00127002084F83470BCF1DA
:1012A000010F07D0022584F834002846BDE8F081FC
:1012B0000220FBE7022784F8357060652046FFF7BF
:1012C000FDFB94F85C103F208840B0602068016806
:1012D00041F0160101602068416941F080014161DF
:1012E000206C20B12068016841F00801016020688D
:1012F000016841F001010160D7E7000070B50446C4
:1013000000F000F90546601C02D00448007804444F
:1013100000F0F8F8401BA042FAD370BD780000201E
:101320002DE9F84FDFF89CE100224FF001084FF063
:10133000030B4FF00F0A00BF0B6808FA02F42340BA
:10134000A34271D14D68022D01D0122D0FD1D508C5
:101350000E69570700EB8505A9462D6AFF0E0AFAAC
:1013600007FCBE4025EA0C052E43C9F820600F7922
:10137000550006680BFA05FC07F0030726EA0C0681
:10138000AF40374307604E68012E05D0022E03D0D0
:10139000112E01D0122E0ED18668CF6826EA0C06D7
:1013A000AF403743876046680F79A643C7F30017FD
:1013B000974037434760C4688E6824EA0C04AE4007
:1013C0002643C6604C68E40075D53F4C256845F45B
:1013D00080452560246822F00306950704F48044C4
:1013E00000943A4C2D0F2644D6F80848DFF8E0C0A8
:1013F0000AFA05F7604524EA070401D100272EE028
:10140000344FB84201D1012729E0334FB84201D10E
:10141000022724E0314FB84201D103271FE0304FAB
:10142000B84202D104271AE045E02E4FB84201D15C
:10143000052714E02C4FB84201D106270FE02B4FAF
:10144000B84201D107270AE0294FB84201D1082745
:1014500005E0284FB84201D1092700E00A27AF4034
:1014600027437546C6F808784E68DEF80040F60354
:1014700024EA030400D51C43124E2C60361D4D682F
:101480003468AD0324EA030400D51C430D4F3460D7
:1014900008374D683C68ED0224EA030400D51C437C
:1014A000084D3C600C354E682C68B60224EA0304F3
:1014B00000D51C432C60521C102AFFF43DAFBDE840
:1014C000F88F0000003C01404438024000300140E9
:1014D000000002400004024000080240000C0240EC
:1014E000001002400014024000180240001C02409C
:1014F00000200240002402400AB1816170470904C3
:10150000FBE7000001488068704700007800002079
:101510000248816802781144816070477800002099
:10152000032010B500F07EF8002000F005F800F070
:1015300023F8002010BD000070B50D4D04464FF497
:101540007A700C4A29781268B0FBF1F0B2FBF0F027
:1015500001F078FB48B9102C07D200222146501E1A
:1015600000F040F800206C6070BD012070BD0000EC
:1015700078000020840000200A4808B5016841F086
:1015800080510160006800F0805000900548001D07
:10159000016841F480410160006800F480400090DF
:1015A00008BD00004038024000280DDB410900F072
:1015B0001F028900012001F1E0219040C1F8800163
:1015C000BFF34F8FBFF36F8F7047002809DB4109CE
:1015D00000F01F028900012001F1E0219040C1F8D4
:1015E000000170470E4BF0B41B680D46C3F3022395
:1015F000C3F10706042E00D90426191D072901D2BC
:10160000002300E0DB1E012404FA06F19C40491E81
:101610002940641E994014402143F0BC04F0A8B94D
:101620000CED00E0064900F0070210B54FF6FF048C
:101630000868044B204040EA02201843086010BDAF
:101640000CED00E00000FA0501680123C0F8FC334E
:10165000002280F8F4238869044A40F00060886121
:10166000486D1043486500207047000003000010DB
:1016700070B5164D0446A1B1012911D12068D0F8EA
:10168000001E41F00101C0F8001ED4F8000403F070
:1016900099FA206A002803D0286840F006002860E4
:1016A00070BD206A28B102F0ABF9286820F006006E
:1016B00028602068D0F8001E21F00101C0F8001E4B
:1016C000D4F80004BDE8704003F021BA10ED00E04A
:1016D0000068416200207047F0B503685D6A39B167
:1016E0009F6A4C1E00204FF4827605EB17450BE0F5
:1016F00045EA0240986210E0471C06EB800053F870
:1017000000C0F8B205EB1C45A042F5D34FF4807041
:1017100000EB810045EA02421A500020F0BDD0F8EB
:10172000000403F062B9C1EBC10200EB8202D0F801
:101730000004926C03F0B7B8C1EBC10200EB820267
:10174000D0F80004D2F8082203F00EB9D0F8000453
:1017500003F04DB901F00F020B0670B5C2EBC201E8
:1017600004464FF001004FF0000504EB810103D562
:1017700081F83D003C3103E081F8FD5101F5FE7137
:101780000A7094F8BC23012A08D084F8BC032068AE
:1017900003F0A0FC002084F8BC5370BD022070BD93
:1017A00070B54268044601F00F00904201D9012053
:1017B00070BD01F00F024FF000050B06C2EBC20135
:1017C0004FF0010204EB810103D581F83D203C314B
:1017D00003E081F8FD5101F5FE718D70087094F8F9
:1017E000BC03012808D084F8BC23206803F04EFE17
:1017F000002084F8BC5370BD022070BD01F00F01C1
:10180000C1EBC10100EB8100D0F8140270472DE953
:10181000F04101F00F0604460D064FF00100C6EB43
:10182000C6014FF0000504EB810103D581F83D00AE
:101830003C3103E081F8FD5101F5FE714F788A607B
:10184000CB700E7007B1CE80022B00D10D7194F8D1
:10185000BC23012A09D084F8BC03206803F08EFB66
:10186000284684F8BC53BDE8F0810220FBE770B540
:1018700001F00F050C460026C5EBC50100EB810108
:10188000C1F80822C1E9843681F8FD6181F8FC5174
:1018900001F5FE710369012B00D10A612207027C68
:1018A000006803D003F04AFE002070BD03F03AFD4B
:1018B000FAE770B50D464168044605F00F0088420E
:1018C00001D9012070BD29064FF000064FF001023A
:1018D00007D5C0EBC00104EB810181F83D203C310C
:1018E00007E0C5EBC50104EB810181F8FD6101F55D
:1018F000FE718A70087094F8BC03012807D084F840
:10190000BC23206803F0EEFD280702D007E0022088
:1019100070BD217C04F57172206803F08BFD0020FE
:1019200084F8BC6370BD2DE9F04101F00F050C4651
:101930000026C5EBC501012700EB81018A64C1E9DE
:10194000143681F83D7001F83C5F0369012B00D12A
:101950000A612207027C006804D003F0EFFD00203A
:10196000BDE8F08103F0DEFCF9E700002DE9FC5F43
:1019700004460068002681464D4603F0F8FE002824
:101980007ED1206803F01FFF002879D0206803F083
:101990001AFF800704D52068416901F00201416106
:1019A000206803F010FF01034FF0010B04F5717084
:1019B000009077D5206803F0E5FEDFF838A40746ED
:1019C0006EE0F8076AD02068F1B203F0F4FE8046BA
:1019D000C00707D005EB4611C1F808BB31462046C9
:1019E00001F04AFF5FEA087034D5206821690129B7
:1019F00000EB4611006C0190D1F8080B10D0FE4BA3
:101A0000019A9A4215D1000403D54FF40040C1F861
:101A1000080B204600F0FEFA2069012810D014E0DF
:101A2000019A524505D9000403D54FF40040C1F88E
:101A3000080B204600F0EEFA01985045ECD804E07F
:101A400020680121009A03F0F5FC05EB46110820FF
:101A5000C1F8080B5FEAC86004D505EB46111020F9
:101A6000C1F8080B5FEA88600FD52069012804D10E
:101A700020680121009A03F0DDFC05EB461101E02E
:101A8000C7E10FE02020C1F8080B5FEA884005D5C8
:101A900005EB46114FF40050C1F8080B7F08761C87
:101AA000002F8ED1206803F08EFE40034FF0000A15
:101AB00060D5206803F05FFE0026074658E0F8076F
:101AC00054D02068F1B203F064FE8046C00726D0EF
:101AD000D5F8342806F00F0C05EB46130BFA0CF082
:101AE0008243C5F83428C3F808B92069012807D112
:101AF000C6EBC60004EB8000D0E9112111448164DB
:101B00002046F1B2FFF70FFE2069012807D136B950
:101B1000206D20B920680121009A03F08BFC5FEA58
:101B2000087004D505EB46110820C1F808095FEAE2
:101B3000C86004D505EB46111020C1F808095FEA1A
:101B4000486004D505EB46114020C1F808095FEA5A
:101B5000887004D505EB46110220C1F808095FEA38
:101B6000086003D53146204601F0F4FE7F08761C5C
:101B7000002FA4D1206803F026FE002811DAD5F842
:101B8000040820F00100C5F8040894F8F4030128C3
:101B90003BD0204600F022FA2068416901F0004164
:101BA0004161206803F00FFE00050BD5D5F8080849
:101BB000C00702D0204600F049FA2068416901F4CC
:101BC00000614161206803F0FEFD00010AD5206834
:101BD000416901F00061416194F8F403E0B12046ED
:101BE00000F034FA206803F0EEFDC0046AD5D5F8A1
:101BF000040820F00100C5F804082068102103F053
:101C000097FD00214FF67F3227E00021204684F81F
:101C1000F4A3FFF72DFDBFE784F8F4B32068406D0F
:101C20000121C0F38300C4F8F8032046FFF720FD2C
:101C3000D8E700BF05EB4110C0F80829D0F80039FB
:101C400023F40013C0F80039C0F8082BD0F8003B8B
:101C500023F40013C0F8003B491C60688842E9D8AF
:101C6000D5F81C0840F00110C5F81C08206B60B1C5
:101C7000D5F8840840F00B00C5F88408D5F844086E
:101C800040F00B00C5F844080CE0D5F8140842F207
:101C90002B010843C5F81408D5F8100840F00B00D4
:101CA000C5F81008D5F8000820F4FE60C5F8000853
:101CB000217C2068009A03F0BDFB2068416901F493
:101CC00080514161206803F07EFD800417D52068B3
:101CD00003F094F9206803F03DFD58B30320E06061
:101CE00000F016FD227B0146206803F0A7FD204688
:101CF00000F05EF92068416901F4005141612068FB
:101D000003F061FDC00639D52168886920F0100014
:101D10008861D9F8207007F00F01C7F34340C1EB89
:101D2000C101022804EB810505F5FE7505D00628E2
:101D300015D01EE0C4F80CA0D2E747F6F0710F42B0
:101D400017D0C7F30A12E9681746484603F03FFD6B
:101D5000A969E8683944A9613844E86009E0009954
:101D60000822484603F033FDA969C7F30A10084466
:101D7000A8612068816941F010018161206803F049
:101D800022FD000707D5204600F02CF920684169A4
:101D900001F008014161206803F015FDC00208D57B
:101DA0002046F1B200F037F82068416901F4801153
:101DB0004161206803F007FD800208D52046F1B29A
:101DC00000F02DF82068416901F40011416120689C
:101DD00003F0F9FC400007D52046FFF7A0FC20687F
:101DE000416901F080414161206803F0ECFC40074B
:101DF0000FD503E00A30544F0A31544F206845682C
:101E0000680702D52046FFF7A1FC206841682943F6
:101E10004160BDE8FC9FD0F8000402F037BED0F866
:101E2000000402F035BE00002DE9F04104008AB044
:101E300004D094F8BD03002520B108E001200AB0C9
:101E4000BDE8F081204684F8BC5300F063F803201D
:101E500084F8BD03206803F05FFA04F110016846BE
:101E600028228846FEF7FDF994E80F0003F0E0F819
:101E70000227E0BB2068002103F0B7FC0020012608
:101E800011E000BFC0EBC001421C04EB810181F8EE
:101E90003D6081F83F504D648D640D6581F83C00D4
:101EA000A1F84200D0B261688142EBD8002011E075
:101EB000C0EBC001421C04EB810181F8FD5181F8A7
:101EC000FF51C1F80452C1F80852C1F8105281F80C
:101ED000FC01D0B261688142EAD8282241466846B6
:101EE000FEF7BFF994E80F0003F04CF910B184F845
:101EF000BD73A3E7606A84F8385084F8BD63012895
:101F000002D12046FFF7A0FB206803F02FF9002044
:101F100095E7000030B587B0044614216846FEF707
:101F2000B9F92068B0F1A04F3BD11F48016841F0DA
:101F3000010101600068002402211C4D00F0010035
:101F400005904FF4E8500A238DE8130003226946F8
:101F5000CDE903232846FFF7E3F968156946CDE983
:101F6000000428460294FFF7DBF90F48001D0168C2
:101F700041F080010160006800F0800005900A488F
:101F80001430016841F480410160006800220121A1
:101F900000F4804005904320FFF724FB4320FFF727
:101FA00014FB07B030BD0000303802400000024092
:101FB00070B50446C068012570B1022801D0FEF753
:101FC000AAFDD4F80004294602F0B3FDD4F80004B9
:101FD000BDE8704002F073BD0025F2E7D0F80004C0
:101FE00002F095BDD0F8000402F097BD10B504468C
:101FF00090F8BC0301280BD0012084F8381084F835
:10200000BC03206803F008FC002084F8BC0310BD6A
:10201000022010BDD0F8002400F57171104602F0C6
:1020200094BD10B5044690F8BC0301280CD00120E3
:1020300084F8BC03206803F08DF8206803F062FB8D
:10204000002084F8BC0310BD022010BD10B504466A
:10205000D0F8000402F0B6FD2068D0F8001E41F070
:102060000101C0F8001E206A002804D0024801685F
:1020700041F00601016010BD10ED00E01848F8B510
:10208000016841F0805101600068164C00F08050FA
:102090000090206840F480302060FFF733FA4FF45E
:1020A0007A76054605E000BFFFF72CFA401BB042E8
:1020B0000FD86068C003F7D5206840F40030206076
:1020C000FFF720FA054606E0FFF71CFA401BB04276
:1020D00001D90320F8BD60688003F5D50020F8BD64
:1020E00040380240007000402DE9F84F0446007867
:1020F000DFF824944FF000063746C0070ED0D9F819
:10210000001021F40001C9F80010D9F80010626B2A
:102110001143C9F80010606B00B90126FE4D20681C
:10212000843500030ED5E16B286820F44010084385
:102130002860E06BB0F5801F01D010B102E00126ED
:1021400000E0012720684FF4800BC0020CD5216C01
:10215000286820F4400008432860206C584501D1CD
:10216000012601E000B901272068C10100D5012640
:10217000800666D5E8483830016841F0805101603A
:102180000068DFF898A300F080500090DAF80010A3
:1021900041F48071CAF80010FFF7B4F9804605E0F9
:1021A000FFF7B0F9A0EB080064287DD8DAF800004A
:1021B000C005F5D5DFF8608308F16808D8F800009D
:1021C00010F440702AD0218E01F44071814225D054
:1021D000D8F80010D8F8002021F4407142F4803281
:1021E000C8F80020D8F8002022F48032C8F8002077
:1021F000C8F80010D8F80000C0070FD0FFF782F928
:10220000824607E0FFF77EF9A0EB0A0141F2883031
:102210008142CAD8D8F800008007F3D5206BC0F3FC
:10222000012103297ED0D9F8001021F4F811C9F852
:102230000010228ED8F80010C2F30B021143C8F828
:1022400000102078C00607D5286820F0807028602C
:102250002868A16B084328602188AF48883049046A
:1022600005D5626E016821F4403111430160218877
:10227000090405D5A26E016821F4402111430160D3
:102280002168C90305D5E26E016821F440111143AC
:1022900001602168890305D5226F016821F440019E
:1022A00011430160217800E018E1490605D5626C10
:1022B000016821F00301114301602178090605D569
:1022C000A26C016821F00C01114301602188C9054D
:1022D00005D5E26C016821F03001114301602188CD
:1022E000890505D5226D016821F0C0011143016007
:1022F0002188490505D5626D016821F440711143BB
:1023000001602188090505D5A26D016821F44061AD
:10231000114301602188C90407D5E26D016821F4E9
:10232000405100E041E0114301602188890405D556
:10233000226E016821F44041114301602168490285
:1023400005D5A26F016821F0806111430160216809
:102350004FF0006A890209D5E26F016821F000613F
:1023600011430160E16F514500D1012721680A073F
:1023700000D50127490305D5626F016821F040713E
:10238000114301602168090206D5D4F88020016854
:1023900021F0805111430160DFF88491012E0ED0AD
:1023A0002068B0F1007F0AD08FE05E4AD9F8003093
:1023B000104023F4F8120243C9F8002039E7D9F895
:1023C00000004E4620F08060C9F80000FFF79AF840
:1023D000804605E0FFF796F8A0EB080064287DD85A
:1023E00030680001F6D421784B487C30C90712D000
:1023F000616B81B9237A62680168D0F800C09201EC
:10240000C1F3014142EA0142CCF3036142EA0161B6
:1024100041EA0371016021680A0303D5E26BB2F55A
:10242000801F04D0C9021AD5216C594517D16368A1
:10243000016894F80CC002689B01C1F3014143EAB2
:102440000141C2F3027241EA0C6141EA027101608A
:102450002968626A21F01F01521E11432960216818
:10246000C90110D5238A62680168D0F800C09201C2
:10247000C1F3036142EA034242EA0162CCF3027112
:1024800042EA01710160216889010CD56168228AE4
:10249000237B94F808C0890141EA024141EA0361C3
:1024A00041EA0C7101603168B04641F080613160F1
:1024B000FFF728F8064604E0FFF724F8801B64289D
:1024C0000CD8D8F800000001F6D56FB3D9F8000099
:1024D0004E4620F08050C9F8000000E079E0FFF798
:1024E00011F8074605E000BFFFF70CF8C01B642891
:1024F0006FD83068C0438000F6D507482168803027
:102500000A0301D5E26B1AB1C90225D5216C19BBAA
:1025100063690168277E08E00838024000700040C7
:1025200000380240FFFCFF0F5AE00268C1F301418E
:102530009B0143EA0143C2F3027143EA076242EAA4
:102540000171016029686FF0FF03A26A21F4F8515C
:1025500003EB0222114329602168890212D5E16F41
:1025600051450FD1238C6269016807689201C1F35C
:10257000036142EA034242EA0162C7F3027142EA9E
:10258000017101602178090716D561690268D0F8E8
:1025900000C08B01277FC2F30362CCF3014143EA01
:1025A000014141EA026141EA077101602868E16A7C
:1025B00020F4403008432860306840F0805030609C
:1025C000FEF7A0FF044607E0FEF79CFF001B64280F
:1025D00002D90320BDE8F88F3068C0438000F3D4EF
:1025E0000020F7E72DE9F04705000F4663D0444E81
:1025F000306800F00F00B84209D2306820F00F00B8
:1026000038433060306800F00F00B84253D128687A
:102610003C4C810712D5400703D5206840F4E050B8
:1026200020602878000703D5206840F460402060CF
:10263000A968206820F0F000084320602878C007CF
:102640002AD0304968680839012810D00968022862
:1026500010D0890700292EDA216821F003010143F7
:102660002160FEF74FFF804641F288390DE009688E
:102670008903EFE78901EDE7FEF744FFA0EB0801CE
:10268000494502D90320BDE8F0876868216801F058
:102690000C01B1EB800FEFD1306800F00F00B842B1
:1026A0000BD9306820F00F0038433060306800F0FC
:1026B0000F00B84201D00120E5E72878400705D592
:1026C000E968206820F4E05008432060287800077B
:1026D00006D52869216821F4604141EAC0002060E4
:1026E00000F03CF82168084AC1F30311515CC8406E
:1026F000064908600020FEF71FFF0020C3E7000026
:10270000003C024008380240346400088400002085
:102710000148006870470000840000200449054813
:1027200009680068044AC1F38221515CC8407047BF
:102730000838024084000020446400080449054829
:1027400009680068044AC1F34231515CC8407047CF
:10275000083802408400002044640008154910B580
:102760001548096811F00C0213D04110042A0FD04B
:10277000082A0ED10F4C241F2268236802F03F0262
:102780005B0207D52068C0F38810A0FB010106E0BA
:10279000084610BD2168C1F38811A1FB0001002388
:1027A000FDF72EFD2168C1F30141491C4900B0FB32
:1027B000F1F010BD083802400024F4002DE9F84F74
:1027C00005004FF000076ED02878DFF81C93A9F1C0
:1027D000040AC007AAF104044CD0D9F800104846F6
:1027E000C1F38101012908D00068C0F381000228EB
:1027F0000AD1DAF80000400206D52068800339D5F6
:1028000068680028DFD035E06868B0F5803F0BD0FD
:1028100010B1B0F5A02F11D0206820F480302060D6
:10282000206820F4802002E0206840F4803020609E
:10283000686890B1FEF766FE06460AE0206840F43C
:1028400080202060F0E700BFFEF75CFE801B64285C
:1028500072D820688003F7D50CE0FEF753FE0646D9
:1028600005E000BFFEF74EFE801B6428F0D820680C
:102870008003F7D42878800742D5D9F8001048465D
:1028800011F00C0F08D00068C0F3810002280BD1B2
:10289000DAF80000400207D42068800718D5E868FD
:1028A000012800D114E01CE1E8680028206817D056
:1028B00040F001002060FEF725FE064605E000BF5F
:1028C000FEF720FE801B0228C2D820688007F7D5BB
:1028D0002869216821F0F80141EAC00020600FE07A
:1028E00020F001002060FEF70DFE064605E000BF67
:1028F000FEF708FE801B02281ED820688007F7D448
:102900002878000729D5784869696C300029804605
:10291000016812D041F001010160FEF7F3FD0646A7
:1029200005E000BFFEF7EEFD801B022804D8D8F8B2
:1029300000008007F6D510E089E021F00101016078
:10294000FEF7E0FD064604E0FEF7DCFD801B0228F2
:102950007DD8D8F800008007F6D4287840076BD5DA
:10296000DFF8848108F13808D8F80000C0000BD4E3
:10297000D8F8001041F08051C8F80010D8F80000D5
:10298000012700F08050009058480168C90512D412
:102990000168834641F480710160FEF7B3FD06468D
:1029A00005E000BFFEF7AEFD801B64284FD8DBF8C2
:1029B0000000C005F6D54C4EA868683601280AD03C
:1029C00008B1052811D0306820F00100306030686F
:1029D00020F0040002E0306840F001003060A86898
:1029E000A0B1FEF78FFD83460CE0306840F0040094
:1029F0003060F0E7FEF786FDA0EB0B0141F2883076
:102A0000814266D830688007F4D50EE0FEF77AFD83
:102A1000834607E0FEF776FDA0EB0B0141F288301C
:102A2000814256D830688007F4D42FB1D8F800100E
:102A300021F08051C8F80010A869C8B3D9F8001077
:102A4000C1F3810102294CD00228206800E040E057
:102A500020F08070206003D0FEF754FD05463BE077
:102A6000FEF750FD064604E0FEF74CFD801B0228F1
:102A70002FD820688001F7D4D5E90962D5E907018C
:102A80001B4B570895F82C20084303EB074343EAF8
:102A90008611084340EA026040F00050CAF8000086
:102AA000206840F080702060FEF72CFD054606E0AF
:102AB00015E000BFFEF726FD401B022809D820685C
:102AC0008001F7D50BE000BFFEF71CFD401B02287C
:102AD00002D90320BDE8F88F20688001F4D40020DB
:102AE000F8E70120F6E700000838024000700040D7
:102AF0000000FFFF2DE9F047040005D094F85D00C9
:102B00000025A56218B107E00120BDE8F087204646
:102B100084F85C5000F050F8022284F85D204FF4F5
:102B2000E0632068016821F040010160E06898429C
:102B300001D9002101E04FF48051B0F5706F02D04F
:102B4000984200D0A5624FF00109266B2EB9984239
:102B500001D9226301E0C4F83090D4E90468D4E9D3
:102B60000102278B46EA0806A36A104307F400789F
:102B700030432668D4E907C240EA080040EA0C0066
:102B8000CC460427104318433060D4F81880666B95
:102B9000606AE26807EA1847236830433A43104303
:102BA000084358602068C16921F40061C16125664D
:102BB00084F85DC00020A8E72DE9F04186B0044606
:102BC00014216846FDF766FB1A49206888422DD11A
:102BD0001948016841F480510160006800F4805098
:102BE000059015481438016841F001010160016841
:102BF00001F001010591016841F0020101600068E6
:102C00004FF005083024694600F002000225002636
:102C1000CDE90480032709488DE8F000FEF780FB2A
:102C20008DE8F00106486946FEF77AFB06B0BDE87C
:102C3000F0810000003001404438024000000240B2
:102C400000040240401EB0F1807F10B501D3012086
:102C500010BD4FF0E02460610F21601702F088FE84
:102C60000020A0610721216110BD704770477047A7
:102C700070B590F83C20012A24D0134C012580F82F
:102C80003C50022280F83D2002685368A2429668B8
:102C900002D00E4CA24203D14C6823F470032343AC
:102CA0000C6823F0700389681C435460002326F0ED
:102CB000800602683143916080F83D5080F83C30D6
:102CC000184670BD022070BD0000014000040140A4
:102CD00010B5040003D094F83D0010B107E00120C6
:102CE00010BD002084F83C00204600F00DF80220C2
:102CF00084F83D002068211D00F004FF012084F8C5
:102D00003D00002010BD000008B500680B49884256
:102D100012D10B48016841F00201016000680022F5
:102D2000022100F0020000901D20FEF75BFCBDE8D0
:102D300008401D20FEF749BC08BD0000000400400B
:102D40004038024070B5044690F83C00012817D086
:102D5000324B012584F83C50022084F83D00226863
:102D60009068184020F47F4090600868502830D068
:102D70000DDC20284DD005DC98B310283BD148E06D
:102D8000022070BD302844D0402834D139E060287A
:102D900028D0702806D0B0F5805F2CD0B0F5005F49
:102DA00029D10AE04A682068D1E9021300F01DFF2A
:102DB0002068816841F0770109E04A682068D1E91C
:102DC000021300F012FF2068816841F480418160A5
:102DD00011E0CA684968206801F04EF82068502167
:102DE00007E016E0CA684968206801F056F82068D4
:102DF000602100F003FF002084F83D5084F83C007F
:102E000070BDCA684968206801F036F82068402122
:102E1000EFE7226801461046EBE7000088FFFEFF5F
:102E20002DE9F04104000D4603D094F83D0018B19F
:102E300008E00120BDE8F081002084F83C00204635
:102E400000F042F81F4A022084F83D0020688168A3
:102E5000114081602068211D00F054FE226840F27C
:102E60000336AF6940F60C4C2B684FF2F00EA868A1
:102E700091680B439169B14341EA07210843D5E9C1
:102E8000031720EA0C00D5E9076C20EA0E00D2F8FF
:102E900020E03F0140EA062668686D69314347EA51
:102EA0000C37936023680F4301229F612EF0AA0123
:102EB00041EA051321681843086284F83D20002088
:102EC000B8E70000F8BFFEFF10B586B00446142135
:102ED0006846FDF7DFF913492068884220D112487F
:102EE000016841F001010160006800F001000590F7
:102EF0000D481438016841F0100101600068012399
:102F0000022200F01000059000204FF42061009193
:102F10006946CDE90120CDE903030448FEF700FA34
:102F200006B010BD000001404438024000100240CD
:102F3000704770B50446006800250169C9438907D8
:102F400015D4C168C943890711D4EA1E0261012161
:102F50002177206880698007204602D0FFF7E8FFCC
:102F600004E000F0CFF8204600F07DF925772068D6
:102F70000169C943490717D4C168C943490713D434
:102F800002216FF00402026121772068806910F449
:102F9000407F204602D0FFF7CBFF04E000F0B2F8FC
:102FA000204600F060F9257720680169C9430907C8
:102FB00016D4C168C943090712D404216FF008026E
:102FC000026121772068C0698007204602D0FFF7A0
:102FD000AFFF04E000F096F8204600F044F92577B2
:102FE00020680169C943C90617D4C168C943C90625
:102FF00013D408216FF01002026121772068C069A4
:1030000010F4407F204602D0FFF792FF04E000F06A
:1030100079F8204600F027F9257720680169C9432F
:10302000C90708D1C168C943C90704D1891E016114
:10303000204600F059F920680169C943090609D4FE
:10304000C168C943090605D46FF0800101612046BB
:10305000FFF70CFE20680169C943C90509D4C1689E
:10306000C943090605D46FF4807101612046FFF75A
:10307000FCFD20680169C943490609D4C168C943F8
:10308000490605D46FF040010161204600F03EF989
:1030900020680169C94389060BD4C168C943890600
:1030A00007D46FF0200101612046BDE87040FFF7B2
:1030B000DEBD70BD10B586B0044614216846FDF72C
:1030C000E9F80D492068884214D10C48016841F0A4
:1030D0000101016000680021402200F0010005901C
:1030E00002200092CDE90101CDE9031004486946B0
:1030F000FEF716F906B010BD00040040303802405B
:1031000000000240704770B5044690F83C000D4640
:1031100001280ED0012684F83C60022084F83D008E
:103120000C2A45D007DC5AB1042A1BD0082A78D1D2
:103130002CE0022070BD102A4ED0142A71D15DE01F
:10314000206800F063FD2068816941F00801816119
:103150002068816921F00401816120682A69816900
:10316000114311E0206800F08BFD2068816941F473
:10317000006181612068816921F48061816120683A
:103180002969826942EA012181614AE0206800F0F0
:10319000B3FD2068C16941F00801C1612068C169BF
:1031A00021F00401C16120682A69C169114311E05D
:1031B000206800F0DDFD2068C16941F40061C16153
:1031C0002068C16921F48061C16120682969C269F0
:1031D00042EA0121C16124E0206800F0F5FD206889
:1031E000416D41F0080141652068416D21F0040105
:1031F000416520682A69416D114311E0206800F0A3
:103200000FFE2068416D41F4006141652068416D09
:1032100021F48061416520682969426D42EA0121FB
:103220004165002084F83D6084F83C0070BD10B515
:10323000040003D094F83D0010B107E0012010BD58
:10324000002084F83C00204600F00CF8022084F8AE
:103250003D002068211D00F055FC012084F83D0050
:10326000002010BD7047704710B50268044631B1A8
:10327000042908D0082928D00C2908D129E0D068D1
:1032800040F0010002E0D06840F00400D060206807
:10329000012200F09DFC11492068884202D01049AB
:1032A000884203D1416C41F40041416420680D4AD9
:1032B00081681140062906D0B1F5803F03D001682E
:1032C00041F001010160002010BDD06840F008000D
:1032D000DCE7D06840F01000D8E7000000000140B3
:1032E00000040140070001001D2010B5FEF75CF945
:1032F00004484FF4FA724168BDE810400248FDF7F7
:10330000EDBD000000000020A4010020704710B5B2
:10331000040002D0606F10B107E0012010BD002052
:1033200084F87000204600F025F8242060672068AB
:10333000016821F001010160204600F043FE0128F0
:10334000ECD0606A10B1204600F0B9FD20684168F9
:1033500021F4904141602068816821F02A01816058
:103360002068016841F0010101602046BDE810407D
:1033700000F009BEF0B587B0044614216846FCF79A
:1033800089FF1949206888422CD11848016841F406
:1033900000310160006800F40030059013481038D7
:1033A000016841F001010160016801F0010105912E
:1033B000016841F0080101600068022400256946A7
:1033C00000F0080005900326072708208DE8F1008B
:1033D0000748FDF7A5FF202069468DE8F100054864
:1033E000FDF79EFF07B0F0BD0044004040380240AA
:1033F00000000240000C02402DE9F8430446406FF3
:103400001F4616460D4620284FD1CDB1C6B194F8BF
:103410007000012849D0012284F8702021214FF04A
:103420000008C4F87C806167FEF76CF88146A068EC
:10343000A4F85060A4F85260B0F5805F03D004E0B7
:103440000120BDE8F883206910B12E46002510E068
:1034500000260EE08021204600F0DEFEB8B9C6B19D
:1034600016F8010B21688862B4F85200401EA4F8D7
:103470005200B4F852004B464FF00002009700286B
:10348000E8D14FF04001204600F0C6FE38B10320DD
:10349000D7E735F8020B2168C0F30800E3E72021E5
:1034A0006167002084F87080CBE70220C9E7FEE75F
:1034B000F0B500230A251C463026372711E000BF4F
:1034C000B5EB107F02D906EB107C01E007EB107C16
:1034D00001F813C001EB430C00015B1C8CF80140A8
:1034E000DBB29342ECD3F0BD7FB5134800244FF418
:1034F0008033104E0094012501945A0202940394E3
:10350000066085610461C0E901320C4980F8204001
:10351000C0E90A14C561C46080F830504561FDF708
:1035200060FC05486946CDE900450294FDF7F6FACE
:103530007FBD000000200140A40100200100000F19
:103540002DE9F04F87B014216846FCF7A3FE5548DB
:10355000016841F004010160016801F00401059176
:10356000016841F080010160016801F0800105916E
:10357000016841F001010160016801F0010105915C
:10358000016841F002010160016801F0020105914A
:10359000016841F010010160016801F0100105911E
:1035A000016841F008010160016801F0080105911E
:1035B000016841F040010160006844F2810ADFF8CF
:1035C000E8B0002200F04000514605905846FDF753
:1035D00093FF364800224021FDF78EFF0024344936
:1035E000DFF8D0804FF40059CDF80090CDE90114F8
:1035F00069464046FDF794FE02256946322002AA3C
:10360000CDE90005032640460B2782E8D000FDF7F0
:1036100087FE8620694602AACDE90005264882E891
:10362000D000FDF77DFE4FF00108CDF800A0CDE9F8
:103630000184694658460394FDF772FE02AA694662
:10364000584682E8D000CDE90095FDF769FE3002CA
:10365000009007206946CDE903601848CDE9015480
:10366000FDF75EFE40210091CDE901840F486946D7
:103670000394FDF755FE80206946CDE900040B4810
:103680000294FDF74DFE4FF42050694602AACDE9A1
:103690000005064882E8D000FDF742FE07B0BDE80D
:1036A000F08F000030380240000402400018024051
:1036B000000011100008024000000240000C02400F
:1036C000F0B40F484FF4E06400210C4E4FF48275C3
:1036D0003023C0E9021401617215E0E80565072492
:1036E000082580E80E00C1600161C0E90514C0E949
:1036F0000715F0BC0248FFF7FDB90000003001409B
:10370000EC01002030B58DB024216846FCF7C2FDE5
:103710001348002440F6FF73104D099480220A9448
:1037200001210B94C0E90054C0E902430461C0E9DF
:103730000542CDE90014CDE902140494CDE9054118
:10374000694607940894FFF76BFB054809A909949B
:103750000A940B94FFF78CFA0DB030BD00000140C5
:103760005002002010B58EB000241C21009407A840
:10377000019402940394049405940694FCF78AFD42
:10378000164845F25F41144AC0E90024C0E90241ED
:1037900004618461FFF79CFA4FF4805000900F4859
:1037A0006946FFF7CFFA0D48FFF741FD0B4804A922
:1037B00004940694FFF75CFA07AA6020052182E8CA
:1037C00013000648002207A90B94FFF79CFC03484E
:1037D000FFF770FC0EB010BD000400409002002006
:1037E0000A48002130B4084D0C22094C0560EB1347
:1037F000C0E90141C160C0E90412C0E906130162D9
:10380000416230BCFFF783BD00440040D00200207D
:10381000D8EC0D0010490022104810B501F01CF83A
:1038200008B1FDF778F90E490C4801F0F1F908B13B
:10383000FDF771F90B49094800F004FE08B1FDF7E6
:103840006AF9064801F03CFA002803D0BDE81040B0
:10385000FDF761B910BD000008000020B005002090
:103860006401002068000020FEE770470148FEF771
:103870007DB800004C0800202DE9F0410E4601699A
:1038800004460068202301294FF40042016C00EB3C
:103890004615D5F8080B08D02C4FB9424FD101047A
:1038A00049D500BFC5F8082B4DE05FEA007CDFF882
:1038B000A0C004F5717711D5614503D9000401D585
:1038C000C5F8082B2046FEF7A5FB206801213A46E3
:1038D00001F0B0FD0820C5F8080B34E05FEA806E07
:1038E00002D5C5F8083B2EE010F0280F2BD161451A
:1038F00001D90004D6D4D5F8102BC6EBC60004EBD2
:103900008000C2F31202D0F804128A1AC0F81422FE
:10391000D0F808221144C0F808122046F1B2FDF791
:103920000BFF86B9D4F8100268B9206801213A4625
:1039300001F080FD07E0800601D5C5F8083B204670
:10394000F1B2FDF7F9FE0020BDE8F0810A31544FD5
:103950000A30544F2DE9F84F0E4605688146C1EBF9
:10396000C60100EB8104D4E914203C34904202D912
:103970000120BDE8F88FA168101A814200D20846E4
:10398000C01C05EB461887081BE000BFA268A0EB2F
:10399000010A524500D2924699F810100AF103002C
:1039A00000911FFA8AF3E16887082846F2B201F015
:1039B000B9FFE16801EB0A00E060A16901EB0A00D0
:1039C000A061D8F8180980B2B84205D3D4E905013E
:1039D000814201D20028D9D1D4E90501884208D812
:1039E000D5F83418012006F00F0290408143C5F845
:1039F00034180020BDE770477047FDF789BD00000F
:103A000070B5B4B0302121A8FCF744FC14212DA8D6
:103A1000FCF740FC84216846FCF73CFC1E4801682A
:103A200041F080510160006800F0805032901B48E6
:103A3000016841F44041016000680224D82500F487
:103A40004040329001200926820501040423CDE97B
:103A50002742CDE92101CDE92935CDE92B4621A821
:103A6000FEF7ACFEFEF70AFBE2024FF4A051002580
:103A7000CDE930122DAA0F20072182E831002DA8B0
:103A8000FEF7B0FD064812951F9500906846FEF7B8
:103A90002BFB34B070BD0000403802400070004085
:103AA00080002000104A30B51048146800210F4BE8
:103AB00044F470041460083305680D4A0D4C45F059
:103AC0000105056019600368051D1340074A03607E
:103AD0000C322C600568E305034C25F48025056055
:103AE000803C1160236030BD88ED00E0003802406A
:103AF000FFFFF6FE103000240148FFF71ABA00005D
:103B000090020020F0B5274B4FF0804E264D026802
:103B10009842264E264F274C09D0704507D0A84220
:103B200005D0B04203D0B84201D0A04205D1D1F8AF
:103B300004C022F070024CEA020298421BD0704589
:103B400019D0A84217D0B04215D0B84213D0A04225
:103B500011D0194DA8420ED0184DA8420BD0184DC7
:103B6000A84208D0174DA84205D0174DA84202D050
:103B7000164DA84203D1CD6822F440722A434D6904
:103B800022F080022A43026098428A68C2620A6870
:103B9000826201D0A04201D1096901630121416122
:103BA000F0BD00000000014000040040000800409B
:103BB000000C00400004014000400140004401406E
:103BC0000048014000180040001C00400020004058
:103BD00010B5046A012301F01F018B409C4304626D
:103BE0008A40016A1143016210BD42EA03228368E0
:103BF0000A4323F47F410A4382607047826822F0BF
:103C000070020A4342F0070181607047F0B5026A12
:103C1000DFF860C0184F22F00102DFF860E00262B6
:103C2000066A4268836926F002060D68B8428C680D
:103C300003EA0C0323F0030344EA060445EA030500
:103C400001D0704505D1CB6824F00804234323F04C
:103C50000404B84201D0704505D122F44076D1E980
:103C6000053233431A434260856149684163046207
:103C7000F0BD00008FFFFEFF000001400004014086
:103C8000F0B5026A194E1A4C22F01002DFF864E017
:103C90000262056A4368826925F02005D1F808C0F0
:103CA000A0420F6802EA060222F4407245EA0C15AF
:103CB00042EA072201D0704506D1CE6825F0800582
:103CC00045EA061525F04005A04201D0704507D110
:103CD000D1E9054623F4406343EA840343EA8603BB
:103CE00043608261496881630562F0BDFF8FFFFE1A
:103CF0000000014000040140F0B5026A194F1A4E5D
:103D000022F48072DFF864E00262056A4368C269E7
:103D100025F40075D1F808C0B0420C6802EA070229
:103D200022F0030245EA0C2544EA020401D0704562
:103D300006D1CF6825F4006242EA072222F48065AA
:103D4000B04201D0704507D123F44052D1E9053685
:103D500042EA031242EA06134360C4614968C16340
:103D60000562F0BD8FFFFEFF00000140000401402E
:103D7000F0B5026A124B114F22F48052984202624F
:103D8000046A4268C36924F400548E680D6803EA2B
:103D9000070323F4407344EA063443EA052302D0C0
:103DA000084DA84204D14D6922F4804242EA8512AE
:103DB0004260C361496801640462F0BDFF8FFFFE89
:103DC0000000014000040140F0B5026ADFF844C081
:103DD00022F480320262056A4268446D25F400359F
:103DE0000E8960450C4F0B6804EA070445EA064556
:103DF00043EA040302D0094CA04204D14C6922F4E6
:103E0000803242EA04224260436549688165056266
:103E1000F0BD0000000001408FFFFEFF00040140E4
:103E2000F0B5026ADFF844C022F480120262046A2C
:103E30004268436D24F400140E8960450C4F0D68F0
:103E400003EA070344EA065443EA052302D0094D76
:103E5000A84204D14D6922F4802242EA85224260C0
:103E600043654968C1650462F0BD0000000001407F
:103E7000FF8FFFFE0004014010B5036A046A23F0BF
:103E80000A0324F00104046284690B4324F0F00166
:103E900041EA02118161036210BD10B5036A23F08B
:103EA000100303628369046A23F4704324F0A004BE
:103EB00043EA0232826144EA0111016210BD90F8C6
:103EC0002410C90706D00168836A4A6822F40032C8
:103ED0001A434A6090F82410890706D50168C36A1E
:103EE0004A6822F480321A434A6090F82410490745
:103EF00006D50168036B4A6822F480221A434A609F
:103F000090F82410090706D50168436B4A6822F42B
:103F100000421A434A6090F82410C90606D5016889
:103F2000836B8A6822F480521A438A6090F82410C6
:103F3000890606D50168C36B8A6822F400521A43C9
:103F40008A6090F82410490611D50168036C4A680C
:103F500022F480121A434A60016CB1F5801F06D129
:103F60000168436C4A6822F4C0021A434A6090F820
:103F70002410090606D50168826C486820F40020E8
:103F800010434860704738B500250446C567FDF703
:103F9000B9FA03462068006800070BD56FF07E4031
:103FA0000090002220464FF4001100F035F908B1CE
:103FB000032038BD2020606784F87050A06700207F
:103FC00038BD00002DE9F04104468068DFF818C2D2
:103FD000864F2368D4E90452E16928431E6800250E
:103FE0000A438349104306EA0C0606431E604FF459
:103FF00000422068E668436823F44053334343603B
:104000002368A669206AD3F808C030432CF43066D0
:1040100006439E602068B8420AD1086810F0030089
:1040200052D001287BD002287AD003286ED186E0B6
:10403000704B98420AD1086810F00C0079D004281F
:104040007BD0082877D00C2860D178E06A4B984262
:104050000AD1086810F030006BD010286DD02028ED
:1040600069D0302852D16AE0644B98420AD108687E
:1040700010F0C0005DD040285FD080285BD0C02801
:1040800044D15CE05E4B98420DD1086810F440705A
:104090004FD0B0F5807F50D0B0F5007F4BD0B0F559
:1040A000407F33D14BE0574B98420FD1086810F452
:1040B000406009D0B0F5806F3FD0B0F5006F3AD0C6
:1040C000B0F5406F22D13AE0012120E04E4B9842FA
:1040D0000DD1086810F440502BD0B0F5805F2CD083
:1040E000B0F5005F27D0B0F5405F0FD127E0474B18
:1040F00098420BD1086810F440401AD0B0F5804FB8
:104100001BD0904217D0B0F5404F18D01021E06975
:104110004FF6EF76904238D109295DD202E00CE0EB
:1041200009E006E0DFE801F00D1027582A5858583A
:104130002D000021EBE70221E9E70421E7E7082150
:10414000E5E7FEF7EBFA01E0FEF7F8FA0146D4F8EE
:104150000400490001EB5001B1FBF0F080B2A0F186
:104160001001B14238D84FF6F0732168C0F3420213
:104170001840104324E026496068EBE7FEF7EEFAAA
:10418000E4E760684FF48031E4E7092924D2DFE8EE
:1041900001F0050819231C2323231F00FEF7BEFA94
:1041A00001E0FEF7CBFA0146D4F8040001EB500120
:1041B000B1FBF0F080B2A0F11001B1420CD821683F
:1041C000C8600AE013496068F0E7FEF7C7FAEAE75B
:1041D000606802EB5001EBE7012500202066606675
:1041E0002846BDE8F0810000F369FFEF00100140B0
:1041F000903802400044004000480040004C00401D
:10420000005000400014014000780040007C004055
:104210000048E8010024F4002DE9F04198461746D3
:104220000E460446069D08E0681C06D0FDF76AF9B4
:10423000A0EB0800A8420BD855B12068C06936EA47
:10424000000017D00020B842EED00020BDE8F08179
:104250002168202000220B6823F4D0730B602168B2
:104260008B6823F001038B606067A067032084F8EC
:104270007020EBE70120E6E72DE9F041D0F8983215
:10428000D0F89022DAB101EB8104002500EB840420
:10429000E6694EB1C1EBC10703EB87035B6CB6FB6C
:1042A000F3F703FB176323B1C2F814520020BDE8F3
:1042B000F0810023E5611A4600F08DFCF6E702204C
:1042C000F5E770B5D0F89042054600F09BFBC4F8C6
:1042D0000C02D5F8900248B1D5F8940204F50371A8
:1042E000C268D4F804029047002070BD022070BD5F
:1042F00070B500260446812100F0CCFA0025204646
:104300000121E56200F0C6FA82212046C4F8585126
:1043100000F0C0FAD4F89002256448B1D4F89402B1
:1043200004F5247440688047206801F09FFF2560F1
:10433000304670BD10B5D0E9A44159B194F80002DF
:10434000FF2807D08B68214694F801229847FF2068
:1043500084F80002002010BD0A2101800048704747
:104360008C0000204321018000487047DC000020C1
:1043700043210180004870479800002043210180BC
:1043800000487047200100202DE9F0410125044636
:10439000007C00264FF4007790B340232046022291
:1043A000812100F077FB4023E562022220460121B3
:1043B00000F070FB082320460322C4F858518221E4
:1043C00000F068FB4FF40770256401F0D7FFC4F8D4
:1043D0009002F8B10546D4F89402006880470020A6
:1043E000C5F81402C5F81802207CD5F8042298B14B
:1043F00040232046012100F059FB3046BDE8F08102
:10440000FFE702223B468121204600F043FB3B466A
:10441000E562CAE70126F0E73B46EAE710B5D0F8C7
:10442000901269B1027C002AD1F8042205D0402301
:10443000012100F03BFB002010BD4FF40073F7E7B3
:10444000022010BD002902464FF0020003D04FF0B9
:104450000000C2F894127047D0F89002C0F804121D
:1044600000207047D0F89002C0F81022C0F808125F
:10447000002070472DE9FC4105460C460020064609
:10448000D5F890728DF80000ADF80400087810F0AF
:10449000600122D020293CD1E288B2B1000608D5C3
:1044A000D5F894023946836860789847E28839469F
:1044B00027E06078394687F80002A07987F8010282
:1044C0002846E28800F06AF828E0D5F89402002235
:1044D000214683686078984720E0607820B10A28F8
:1044E00009D00B2815D110E095F87402032810D1DB
:1044F000022201A905E095F87402032809D10122DE
:104500006946284600F064F808E095F8740203282C
:1045100004D02146284600F036F802263046BDE891
:10452000FC8110B5D0F89012A1B1D1F814220AB1D3
:10453000012010BD0122C1F81422D1F8102202631B
:10454000B1F81032D1F8082281219BB200F043FB70
:10455000002010BD022010BD10B5D0F88C2252688A
:104560009047002010BD13460A46002110B500F008
:104570009DFA002010BD13460A46002110B500F038
:104580002AFB002010BD10B58021044600F008FB76
:104590002046BDE81040002100F002BB10B5C0F875
:1045A00048210323C0F86C321346C0F84C210A4658
:1045B000002100F07BFA002010BD0521002310B57A
:1045C0001A46C0F86C12194600F070FA002010BDAF
:1045D00010B5C2610223C0F86C32134602620A466B
:1045E000002100F0F8FA002010BD0421002310B5CE
:1045F0001A46C0F86C12194600F0EDFA002010BD02
:1046000004A00A46024910B500F0F5F8004810BDB4
:10461000500C002043444320436F6E6669670000DE
:1046200012200880004870472C00002004A00A4691
:10463000024910B500F0DFF8004810BD500C002012
:1046400043444320496E74657266616365000000EF
:1046500004200880004870472800002004A00A4673
:10466000024910B500F0C7F8004810BD500C0020FA
:1046700053544D6963726F656C656374726F6E69D4
:104680006373000004A00A46024910B500F0B3F8B5
:10469000004810BD500C002053544D333220566951
:1046A000727475616C20436F6D506F7274000000FE
:1046B00010B51A2008800B480A490830021F096803
:1046C00000681468081809D007490822FEF7F0FEB0
:1046D0000549042220461031FEF7EAFE0248801EFA
:1046E00010BD000020F4F01F4E0000200C200880B8
:1046F0000048704740000020F8B5044648880D4641
:10470000010A06294CD006DC01290DD0022910D05F
:1047100003294FD11BE007294AD00F294AD1D4F8E9
:104720008812207CCA6937E0D4F88812207C0A6895
:1047300032E0207C02260028D4F88C0205D0C16A21
:10474000684688470146467041E0816AF8E7C0B292
:1047500006282FD2DFE800F003080D12171CD4F84A
:104760008812207C4A6817E0D4F88812207C8A6876
:1047700012E0D4F88812207CCA680DE0D4F88812C0
:10478000207C0A6908E0D4F88812207C4A6903E09A
:10479000D4F88812207C8A6969469047014616E061
:1047A000207C38B9D4F88C02416B68468847F5E71D
:1047B000207C20B129462046FFF7E5FEF8BDD4F85D
:1047C0008C02016B68468847014607204870BDF897
:1047D000000048B1EA8852B1824200D90246204620
:1047E000ADF80020FFF7F4FEE8880028E6D1204667
:1047F000FFF7FBFEF8BD70B500284FF000061ED095
:104800000546344602E0641C6D1CE4B22B78002B94
:10481000F9D1022505EB440414801278731C03259A
:104820008A550024B21CCD5406E0551C8B54EAB2C4
:10483000531C401C8C54DAB20378002BF5D170BDA8
:1048400001004FF0000004D0012901D0022901D05D
:10485000022070470120704710B580B1D0F88C322B
:1048600013B10023C0F88C3209B1C0F888120121BD
:10487000027080F8741200F0C9F8002010BD022008
:1048800010BD10B5D0F89802FCF78AFFBDE81040C3
:10489000FFF7D6BF10B5D0F89802FCF75BFFBDE874
:1048A0001040FFF7CDBF70B51646044649B1D4F8A5
:1048B0008C0242691AB194F87402032850D0022085
:1048C00070BDD4F86C32002504F11400022B03D023
:1048D000042B3AD0C3B33CE0D0E90313994207D983
:1048E000C91AC1608AB231462046FFF744FE12E081
:1048F0008068B0FBF3F103FB110199B9984211D321
:10490000D4F8701288420DD2002220461146FFF7DB
:1049100032FEC4F8705200231A461946204600F0B1
:10492000C5F816E0D4F88C02C16829B194F8740275
:10493000032801D1204688478021204600F030F925
:104940002046FFF73AFE04E0FFE78021204600F012
:1049500027F994F87802012804D184F8785201E00C
:1049600020469047002070BD70B51546044649B1F9
:10497000D4F88C0282691AB194F87402032830D0FA
:10498000022070BDD4F86C1204F5A070032902D087
:1049900005291ED027E0D0E903218A420BD9531AFA
:1049A000C3600846834200D3034629469AB2204694
:1049B000FFF7D9FD17E0D4F88C02016929B194F80A
:1049C0007402032801D1204688472046FFF70DFED8
:1049D00009E00020C4F86C020146204600F0E0F82F
:1049E00001E020469047002070BD0020704710B5C0
:1049F000012180F87412D0F88C2201795268904716
:104A0000002010BDD0F89802FCF7F8BE70B5017810
:104A100039BB15490022022306254FF0A044C1F8F6
:104A20000004C0F898120846C1E90332C1E9063211
:104A30000A624A62CA620A63C1E90045FDF7F4F9F5
:104A400008B1FCF768F808488021FCF741FE0648E9
:104A500040220021FCF740FE034880220121FCF7A0
:104A60003BFE002070BD00004C080020D0F89822CA
:104A700001F07F000B06C0EBC00002EB800002D506
:104A800090F83E00704790F8FE0170470020704794
:104A90000020704710B51C46D0F8980213462246F5
:104AA000FCF7B5FEBDE81040FFF7CABE10B5D0F860
:104AB0009802FCF7DCFEBDE81040FFF7C1BE70B500
:104AC0000022044640231146FFF7E4FF4026C4F8C5
:104AD000506101253346002220468021C4F844510C
:104AE000FFF7D8FFD4F8901200206662A56184F821
:104AF0007452C4F86C026060C4F87C0229B1D4F826
:104B00008C020021426820469047002070BD90F83A
:104B1000751280F874120020704710B590F8741266
:104B2000032904D1D0F88C12C96901B1884700204B
:104B300010BD01740020704710B5D0F89802FDF741
:104B400055FABDE81040FFF77BBE70B5044600F58E
:104B50002070054600F048F8B4F88632012194F838
:104B6000800210F01F02C4E99B130AD0012A0DD065
:104B7000022A10D000F08001204600F011F8002039
:104B800070BD2946204600F0A0F8F8E729462046E7
:104B900000F0CDF9F3E72946204600F020F9EEE7D2
:104BA00010B5D0F89802FCF784FEBDE81040FFF77E
:104BB00047BE10B5D0F89802FDF733FABDE81040B3
:104BC000FFF73EBE90F87422042180F8752280F829
:104BD00074120020704710B5D0F89802FCF7A3FEBD
:104BE000BDE81040FFF72CBE0A7802704A78427088
:104BF000CB788A7802EB032242804B790A7902EB68
:104C0000032282808A79C97902EB0121C180704731
:104C100002464FF0000011B1C2F88C12704702201A
:104C2000704710B5D0F88C2202241AB11268904750
:104C300000B90024204610BD70B5204D0446887888
:104C40000E46C1B20129297031D894F874020228A5
:104C50000BD003280FD031462046FFF794FC29786B
:104C60002046BDE87040FFF777BCD9B161600320F2
:104C700084F8740209E071B16068884212D0C1B250
:104C80002046FFF769FC297861602046FFF7C9FFDD
:104C900002280CD006E00220616084F874022046ED
:104CA000FFF75AFC2046BDE87040FFF79EBC314636
:104CB0002046BDE87040FFF766BC00008800002079
:104CC00010B5FFF776FF002010BD2DE9F0410A78FE
:104CD0004FF0000612F0600208D0202A01D0402ACE
:104CE00070D1D0F88C22926890476DE04B7800220A
:104CF00001250A2B66D2DFE803F0405D65576508A1
:104D000005652C29FFF7F8FC5EE004468888D8B9D1
:104D1000C888C8B94888802816D294F8742200F050
:104D20007F07032A10D03946204684F87672FFF7B1
:104D300003FF2046FFF759FC1FB1022084F87402DC
:104D400042E084F874523FE020463BE0FFF774FFF6
:104D50003AE0CB88012B35D190F87432012B04D086
:104D6000022B02D0032B2DD104E000F10801826058
:104D7000012216E00122011D13E090F87422012A9D
:104D800003D0022A01D0032A1CD1CA88022A19D1D1
:104D9000D0F87C12C56009B10321C160022200F184
:104DA0000C01FFF715FC0FE0498801290CD1C0F870
:104DB0007C5211E090F87432012B08D0022B06D0FF
:104DC000032B04D0FFF7DFFB3046BDE8F0814988B4
:104DD0000129F9D1C0F87C22FFF707FCF4E70A4665
:104DE0002DE9F041044610780979002710F060039E
:104DF0000AD0202B01D0402B50D1D4F88C02114680
:104E00008368204698478FE0C0F34110012806D000
:104E10005078D0B301282AD003283FD107E0D4F836
:104E20008C02114683682046BDE8F041184794F88B
:104E30007402022802D0032872D10AE071B38029DB
:104E40006ED02046FFF7ACFE80212046FFF7A8FE7B
:104E50006AE0508838B931B1802904D0D08810B9BF
:104E60002046FFF79DFE2046FFF7BFFB5CE094F86D
:104E700074020228E2D0032852D1508898BB480619
:104E8000F1D02046FFF7FDFCEDE7FFE794F8740250
:104E90000026022803D0032842D112E040E009B1E5
:104EA00080293DD1080601F07F0000EB800004EB73
:104EB000800101D5143101E001F5A07102220E60DC
:104EC0002AE0080601F00F0000EB800004EB8000F0
:104ED0000AD5806920B301F07F0000EB800004EB6D
:104EE000800514350BE01FE0D0F84401C0B101F09B
:104EF0007F0000EB800004EB800505F5A07541B153
:104F0000802906D02046FFF7B1FD10B101202860AE
:104F100000E02E60022229462046FFF759FB03E0FD
:104F200011462046FFF72FFB3846BDE8F08170B5EB
:104F3000054608780C4610F0600003D0202801D008
:104F4000402816D195F87402012803D0022801D018
:104F500003280ED1207901280BD8D5F88C0282685D
:104F600028469047E188014306D12846FFF73DFBDC
:104F700002E02846FFF707FB002070BD70B54D78B2
:104F800001230A78012D1C4C02F00F0503FA05F3EA
:104F9000D0F81C5817D000EB421245EA0343C0F882
:104FA0001C38D2F8000B00040BD40B89C978D2F856
:104FB000000BC3F30A03184344EA81410843C2F8D3
:104FC000000B002070BD9EB23543C0F81C5800EBAA
:104FD0004213D3F800090004F3D40D89C978D3F83B
:104FE0000009C5F30A058904284341EA82510843B0
:104FF0002043C3F80009E4E700800010D0F800194E
:105000006FF30A01C0F80019D0F80818C1F3410184
:10501000022905D1D0F8001941F00301C0F80019A8
:10502000D0F8041841F48071C0F8041800207047CB
:1050300070B504460698049D0D99012815D0E068C6
:1050400040F04000E060204600F028F8A16B41F4F9
:105050008031A163012D07D1A16841F00601A16053
:10506000A16841F02001A16070BDA06B01290A4A2E
:1050700020F48030A063E06800EA0200E060E068AD
:1050800020F44010E06003D1E06840F48010E0605C
:10509000204600F003F8DDE7BFFFBDFF0C49012209
:1050A00002E0521C8A420BD80369002BF9DA03692B
:1050B000012243F00103036104E0521C8A4201D93A
:1050C000032070470369DB07F7D100207047000019
:1050D000400D030030B54C7801220B78012CD0F83C
:1050E0003C5803F00F0402FA04F417D025EA0444F4
:1050F000C0F83C480978D0F81C4801F00F018A40FC
:1051000000EB431124EA0243104AC0F81C38D1F8DE
:10511000000B1040C1F8000B002030BDA4B2A54325
:10512000C0F83C580978D0F81C4801F00F018A40BB
:1051300092B29443064A00EB4311C0F81C48D1F8E0
:1051400000091040C1F80009E6E700000078F3EF1D
:10515000007833EC10B5D0F8041821F00201C0F843
:1051600004180320FCF7CAF8002010BD10B5D0F8D1
:10517000041841F00201C0F804180320FCF7BEF83F
:10518000002010BD2DE9F04F0E4604460021DDE958
:105190000B2BDDF840800D46099F084604EB800C80
:1051A000CCF80411401C0F28F8D32046A06BB8F1AE
:1051B000000F15D040F4001CC4F838C089460846DA
:1051C000C4F8000E2046D4F80018012AC4F80018CC
:1051D00034D0032A32D0D0F8001841F0030111E096
:1051E00020F4001CC4F838C0206840F0400CC4F81B
:1051F00000C0206840F0800CC4F800C0DEE700BFAB
:1052000041F00101C0F80018102100F091FA00B13E
:105210000125204600F07CFA00B1012548464FF0F8
:10522000006C4FF67F334FF0904AC4F81098C4F8E2
:105230001498C4F81C980021994619E0D0F8001879
:10524000002BDFD0DCE700BF04EB4112D2F80039BD
:10525000002B06DA11B1C2F800A904E0C4F800C9B5
:1052600001E0C2F80009C2F81009C2F80899491C07
:105270008E42E9D8002113E004EB4112D2F8003B42
:10528000002B06DA11B1C2F800AB04E0C4F800CB81
:1052900001E0C2F8000BC2F8100BC2F8089B491CD1
:1052A0008E42E9D8D4F81018012F21F480722146DB
:1052B000C4F8102808D1144B144AC1F83038D1F87A
:1052C00030181143C4F830186FF08041A06161615B
:1052D0001FB9A06940F01000A061A069BBF1000FE8
:1052E0000B4A40EA0200A06103D0A06940F0080028
:1052F000A061B8F1010F03D1A06906490843A0617C
:105300002846BDE8F08F0000000180000300010086
:1053100000383C8004000040816821F00101816078
:105320000020704770B50B784E78414C0D78012EF7
:1053300000EB431320D0D3F8100B6FF31200C3F827
:10534000100BD3F8100B2040C3F8100B486908B1BC
:1053500088684861D3F8100B012A40F40020C3F894
:10536000100BD3F8100B8A68C2F3120240EA020055
:10537000C3F8100B4FD052E04E69002ED3F81069DD
:1053800033D06FF31206C3F81069D3F810692640C2
:10539000C3F810694E698C68A64200D94C61D3F8F5
:1053A000104944F40024C3F81049D3F810494E6959
:1053B000C6F3120654EA0604C3F81049012A22D0A3
:1053C0004A694AB10B78D0F83428012103F00F0361
:1053D00099400A43C0F8342800EB4510D0F8001972
:1053E00041F00441C0F800191FE02640C3F81069DD
:1053F000D3F8104944F40024C3F81049D3F81049F5
:105400006FF31204D8E709690029E5D000EB4512D3
:10541000C2F81419E0E7C86808B1C3F8140BD3F850
:10542000000B40F00440C3F8000B002070BD0000EA
:10543000FFFF07E010B5144C036CA34203D9D0F86A
:10544000003B002B1EDB0023C0F8103B0129D0F8E5
:10545000101B41F40021C0F8101BD0F8101B41F0C4
:105460001801C0F8101BD0F8101B41F0C041C0F863
:10547000101B07D1C0F8142BD0F8001B41F080217D
:10548000C0F8001B002010BD0A30544F0B784A783A
:10549000012A00EB43100BD0D0F8002B22F40012AD
:1054A000C0F8002BC978032914D0022912D017E0C4
:1054B000D0F8002922F40012C0F80029C978032985
:1054C00001D002290CD1D0F8001941F08051C0F868
:1054D000001905E0D0F8001B41F08051C0F8001B16
:1054E000002070470A784B78D1B2012B00EB4210B4
:1054F00012D0D0F8002B002A06DB29B1D0F8001B0F
:1055000021F08041C0F8001BD0F8001B41F40011CD
:10551000C0F8001B00207047D0F80029002A06DBE5
:1055200029B1D0F8001921F08041C0F80019D0F855
:10553000001941F40011C0F80019EBE7F8B50B7839
:105540006FF060464F786E4DDCB2012F00EB4313D5
:1055500026D0D3F8104B6FF31204C3F8104BD3F8D6
:10556000104B2C40C3F8104B4D69002D70D08C6847
:10557000D3F8107B25446D1EB5FBF4F4A4B206EA03
:10558000C4452F43C3F8107BD3F8105B8E68664385
:10559000C6F312042543C3F8105B012A7ED097E0BE
:1055A0004F6927B3D3F810796FF31207C3F8107956
:1055B000D3F810792F40C3F810794F698D68D3F86C
:1055C00010C92F447F1EB7FBF5F506EAC54545EA2D
:1055D0000C05C3F81059D3F810594E69C6F31206DA
:1055E0003543C3F81059CD78012D10D01BE0D3F806
:1055F00010692E40C3F81069D3F8105945F40025FE
:10560000C3F81059D3F810596FF3120509E0D3F815
:10561000105925F0C045C3F81059D3F8105945F07A
:105620000055C3F81059012A13D0CB78012B18D09C
:105630004B692BB30E78D0F83438012506F00F06ED
:10564000B5402B43C0F83438CB78012B09D017E094
:105650002BE00B69002BF7D000EB4415C5F814398B
:10566000F2E7D0F80838DB0500EB4413D3F8005913
:1056700002D445F0005501E045F08055C3F80059CB
:1056800000EB4413D3F8004944F00444C3F8004944
:10569000CB78012B32D100928B8A00E014E00A789B
:1056A0009BB2C96800F03EF928E08D68D3F8104B32
:1056B000C5F312052C43C3F8104BD3F8104B44F438
:1056C0000024C3F8104B68E7CA680AB1C3F8142B6A
:1056D000C97801290CD1D0F80808C005D3F8000B0F
:1056E00002D440F0005001E040F08050C3F8000BBD
:1056F000D3F8000B40F00440C3F8000B0020F8BDC5
:10570000FFFF07E0816841F00101816000207047E0
:10571000064A102101610021491C914201D9032050
:1057200070470369DB06F7D400207047400D030083
:105730002023074A43EA811303610021491C914257
:1057400001D90320704703699B06F7D400207047F6
:10575000400D0300D0F8080810F0060004D002281D
:1057600003D0062801D0002070470320704740690D
:1057700000F001007047D0F81818D0F81C08084055
:1057800080B27047D0F81818D0F81C080840000CF8
:10579000704710B5D0F8102801F00F0300EB41144A
:1057A000D0F83418D4F80809D94001F0010142EAD0
:1057B000C111084010BD00EB4111D1F8081BD0F811
:1057C0001408084070474169806908407047D21C3E
:1057D00000F580509308002210B502E00468521CC6
:1057E00010C19A42FAD3084610BD10B5C26801290B
:1057F00022F0C042C26002D029B1012010BDC168B0
:1058000041F0005102E0C16841F08041C1603220A6
:10581000FBF774FD002010BDD0F800284FF4FE63A4
:1058200003EA011322F4FE62C0F80028D0F8001841
:105830001943C0F80018002070470000032A3ED129
:10584000264A274B0A449A4201D20F2138E0254AC2
:10585000254B0A449A4201D20E2131E0234A244BBF
:105860000A449A4201D20D212AE0224A224B0A44DC
:105870009A4201D20C2123E0204B214A0B4493424F
:1058800001D20B211CE01F4B1F4A0B44934201D253
:105890000A2115E01D4B1E4A0B4493420FD31D4BAA
:1058A0001D4A0B44934201D2082109E01B4B1C4ABC
:1058B0001944914201D2072102E0062100E00921AA
:1058C000C2684FF4705322F47052C26003EA81231D
:1058D000C1681943C160002070470000405327FF92
:1058E00000350C00401E1BFF40420F0000DC0BFF88
:1058F000804F1200808CF9FE20D6130060B6E5FEC2
:1059000060E3160000D3CEFE40771B00C05BB3FE01
:10591000C091210000CA91FE20753800E05459FE64
:10592000E09C410010B5029C64B900EB0230DB1C26
:1059300000229B0800F5805002E010C90460521C50
:105940009A42FAD3002010BDFEE7000037B5144696
:105950000846064B6A46214600F0ECF804466946C4
:10596000002000F07EFC20463EBD0000636200087F
:10597000090700284FEA116104DB00F1E02080F8FC
:105980000014704700F00F0000F1E02080F8141DB3
:10599000704702E008C8121F08C1002AFAD17047F8
:1059A0007047002001E001C1121F002AFBD170479F
:1059B0002DE9FF5F82B00021DDE90430020DDDF842
:1059C00040B0034318D044F61050A2F2FF324243D5
:1059D0001514119801281FD0A5EB0B00401C5FEA9D
:1059E000000A4FF000064E4FDFF83891B04650469F
:1059F00015D5CAF1000413E0119801244AA3012827
:105A000001D16FEA0B010298119AC0E90031C0E997
:105A1000024206B0BDE8F09FCBF10000DFE704468C
:105A20000021404A491842EB0450CDE9001012E031
:105A3000E00707D032463B4640464946FAF718FD94
:105A40008046894632463B4610461946FAF710FD15
:105A500006460F466410002CEAD1DDE90401DDE9B9
:105A60000023BAF1000F06DAFAF702FD42464B4670
:105A7000FAF7FEFC05E0FAF76DFD42464B46FAF7F1
:105A800069FD04460E460022284BFAF7EBFD03D8C9
:105A90004FF0FF30014607E00022254B20463146FB
:105AA000FAF73FFCFAF7C5FD102409E0002C0ADBE9
:105AB0000A220023FAF7A4FB039B30321A55641E16
:105AC00050EA0102F2D1641C039AC4F11103144498
:105AD000119A012A03D0012208430DD10AE008439C
