:020000040800F2
:10000000C0280020DD010008332400080322000876
:1000100031240008ED0700084941000800000000F5
:10002000000000000000000000000000C1250008E2
:100030006108000800000000BF250008C325000873
:10004000F7010008F7010008F7010008F7010008B0
:10005000F7010008F7010008F7010008F7010008A0
:10006000F7010008F7010008F7010008F701000890
:10007000F7010008F7010008F7010008F701000880
:10008000F7010008F7010008F7010008F701000870
:10009000F7010008F7010008F7010008F701000860
:1000A000F7010008F7010008F7010008F701000850
:1000B000F7010008F7010008F7010008F701000840
:1000C000F7010008F7010008F7010008F701000830
:1000D000F7010008F7010008F7010008F701000820
:1000E000F7010008F7010008F7010008F701000810
:1000F000F7010008F7010008F7010008F701000800
:10010000F7010008F7010008F7010008F7010008EF
:10011000F7010008F7010008F7010008F7010008DF
:10012000F7010008F7010008F7010008F7010008CF
:10013000F7010008F7010008F7010008F7010008BF
:10014000F7010008F7010008F7010008352400084E
:10015000F7010008F7010008F7010008F70100089F
:10016000F7010008F7010008F7010008F70100088F
:10017000F7010008F7010008F7010008000000007F
:10018000F7010008F7010008F7010008F70100086F
:10019000F7010008F7010008F7010008F70100085F
:1001A000F7010008F7010008F7010008F70100084F
:1001B000F7010008F7010008F7010008F70100083F
:1001C000F7010008F7010008DFF80CD000F062FA30
:1001D00000480047BD4A0008C02800200648804764
:1001E00006480047FEE7FEE7FEE7FEE7FEE7FEE71C
:1001F000FEE7FEE7FEE7FEE76D260008C9010008FE
:100200002DE9F05F0546002092469B46884606464B
:10021000814640241BE0284641464746224600F0DE
:1002200070F853465A46C01A914110D311461846E9
:10023000224600F057F82D1A67EB01084F46224678
:100240000120002100F04EF817EB00094E41201E5E
:10025000A4F10104DFDC484631462A464346BDE8A6
:10026000F09F40EA01039B0703D009E008C9121F71
:1002700008C0042AFAD203E011F8013B00F8013B60
:10028000521EF9D27047D2B201E000F8012B491E8C
:10029000FBD270470022F6E710B513460A46044623
:1002A0001946FFF7F0FF204610BD421C10F8011B55
:1002B0000029FBD1801A704730B50B46014600205B
:1002C0002022012409E021FA02F59D4205D303FA18
:1002D00002F5491B04FA02F52844151EA2F1010299
:1002E000F1DC30BD202A04DB203A00FA02F10020C4
:1002F00070479140C2F1200320FA03F31943904064
:100300007047202A04DB203A21FA02F000217047CE
:1003100021FA02F3D040C2F120029140084319466D
:1003200070472DE9FE4F804681EA0300C00F0C465E
:10033000009021F0004123F00045B8EB0200A941F4
:1003400005D24046214690461C460B46024623F005
:100350000040104347D0270DC7F30A00C3F30A51EA
:100360000290401A019040286BDAC3F3130040F466
:10037000801B0098924620B10023D2EB030A63EB66
:100380000B0B01985946C0F140025046FFF7AAFFF7
:1003900006460D4650465946019A00F08DF910EB7D
:1003A00008006141002487EA115284EAE7731A4386
:1003B00040D0009A62B3019A012A4FEA075215DC35
:1003C000001B61EB02014FF0004202EA0752CDE947
:1003D0000042001C41F5801132462B4600F08DF999
:1003E00003B0BDE8F08F40462146F9E7001B61EB02
:1003F0000201001C41F5801300185B412018A2F592
:10040000001747EB030140EAD570B6196D4111E0C2
:100410006D084FEA360645EAC0754FEA0752001BE1
:1004200061EB0201001C41F5801149084FEA3000E0
:100430000019514132462B4603B0BDE8F04F00F0A1
:100440004DB90098012240000023D0EB020263EB7B
:10045000E073009821464FEAE074B8EB000061EBCE
:100460000401E9E783F000435BE781F0004158E7CE
:100470002DE9FE4F81EA030404F0004421F000411D
:1004800000944FF0000B23F0004350EA01045ED0CB
:1004900052EA03045BD0C3F30A54C1F30A552C4457
:1004A000A4F2F3340194A0FB0254C1F3130141F40C
:1004B0008011C3F3130343F4801301FB024400FBD8
:1004C000034E840A970A44EA815447EA8357A4FBFF
:1004D000076802958D0A05FB07854FEA932C04FBFC
:1004E0000C542705029D4FEA065847EA1637B5EB2C
:1004F00008056EEB070C870E920E47EA811742EA59
:100500008312A7FB0201B6EB0B0164EB00042B0D79
:1005100043EA0C335E1844EB1C50DA465146E7FBC5
:100520000201C5F313044FEA0B3343EA14534FEAB5
:100530000432019C43EA0603A4F10C040294009CDB
:10054000CDE900B400F0D9F803B0BDE8F08F002089
:100550000146F9E72DE9F04D81EA030404F0004B70
:1005600021F0004514464FF0000A23F0004150EA04
:10057000050220D054EA01021DD0C5F30A570246F5
:10058000C5F31303C1F31300C1F30A5640F48015F9
:1005900043F48013A7EB0608101BD64608F2FD387B
:1005A00073EB050002D308F1010801E092185B41EA
:1005B000B8F1000F03DA00200146BDE8F08D0020FD
:1005C0004FF48011064684460EE0171B73EB0507B7
:1005D00005D3121B63EB050306434CEA010C4908E3
:1005E0004FEA300092185B4150EA0107EDD152EA20
:1005F000030012D082EA040083EA0501084305D013
:10060000101BAB4106D20122002306E000224FF06E
:10061000004302E06FF0010253101AEB06004CEBAE
:10062000085110EB0A0041EB0B01BDE8F04D00F062
:1006300055B8C1F30A52C1F3130140F2FF3341F43C
:1006400080119A4202DA00200146704740F233439B
:100650009A42A2F2334202DC5242FFF752BEFFF747
:1006600041BE000030B5041E71F1000404DB4FF000
:100670000044404264EB0101141E73F1000405DBE9
:100680001C464FF00043524263EB0403994208BFFB
:10069000904230BD064C074D06E0E06840F0010393
:1006A00094E8070098471034AC42F6D3FFF790FD6A
:1006B000084C0008284C0008202A06DBCB17203AFB
:1006C00041FA02F043EAE07306E041FA02F3D04057
:1006D000C2F12002914008431946704710B5141E1C
:1006E00073F1000408DA401C41F1000192185B41EB
:1006F0001A4301D120F0010010BD2DE9F04D9246C2
:100700009B4611B1B1FA81F202E0B0FA80F22032D8
:100710009046FFF7E7FD04460F4640EA0A0041EA2B
:100720000B0153465A46084313D0114653EA0100C1
:1007300019D0C8F140025046FFF7E3FD05460E46CA
:10074000504659464246FFF7CDFD084305D00120EB
:1007500004E020463946BDE8F08D0020054346EA16
:10076000E0762C4337430A986305E40AA0EB0800BF
:100770000022FD0A44EA47540A3002D5002001460F
:10078000E9E7010510196941DDE9084500196941EA
:10079000BDE8F04DA2E770B58C1810F8015B15F0BC
:1007A000070301D110F8013B2A1106D110F8012BE3
:1007B00003E010F8016B01F8016B5B1EF9D12B0708
:1007C00005D40023521E0DD401F8013BFAE710F8BE
:1007D000013BCB1A921C03E013F8015B01F8015BAB
:1007E000521EF9D5A142D8D3002070BDFEE70020EB
:1007F000704700207047000005490022054810B5E9
:1008000002F030FA0449034802F026FA002010BD35
:10081000BC1400201C040020BC0C0020014604482D
:1008200010B502F019FA024802F0F8F9002010BDE4
:100830001C040020094A10B5D2F89022D2F81422E4
:100840000AB1012010BD0A460146044802F00AFA26
:10085000BDE81040014802F064BA00001C0400200A
:100860007047704770B5044600F000F90546601CFB
:1008700002D004480078044400F0F8F8401BA0427D
:10088000FAD370BD700000202DE9F84FDFF89CE12D
:1008900000224FF001084FF0030B4FF00F0A00BF8A
:1008A0000B6808FA02F42340A34271D14D68022D6F
:1008B00001D0122D0FD1D5080E69570700EB850521
:1008C000A9462D6AFF0E0AFA07FCBE4025EA0C0570
:1008D0002E43C9F820600F79550006680BFA05FC15
:1008E00007F0030726EA0C06AF40374307604E685F
:1008F000012E05D0022E03D0112E01D0122E0ED1C2
:100900008668CF6826EA0C06AF40374387604668A2
:100910000F79A643C7F30017974037434760C46871
:100920008E6824EA0C04AE402643C6604C68E4009E
:1009300075D53F4C256845F480452560246822F034
:100940000306950704F4804400943A4C2D0F264486
:10095000D6F80848DFF8E0C00AFA05F7604524EA4F
:10096000070401D100272EE0344FB84201D10127FE
:1009700029E0334FB84201D1022724E0314FB84279
:1009800001D103271FE0304FB84202D104271AE0FB
:1009900045E02E4FB84201D1052714E02C4FB84254
:1009A00001D106270FE02B4FB84201D107270AE0FB
:1009B000294FB84201D1082705E0284FB84201D19C
:1009C000092700E00A27AF4027437546C6F8087894
:1009D0004E68DEF80040F60324EA030400D51C4309
:1009E000124E2C60361D4D683468AD0324EA0304B2
:1009F00000D51C430D4F346008374D683C68ED024C
:100A000024EA030400D51C43084D3C600C354E68B5
:100A10002C68B60224EA030400D51C432C60521C47
:100A2000102AFFF43DAFBDE8F88F0000003C014004
:100A300044380240003001400000024000040240FF
:100A400000080240000C0240001002400014024066
:100A500000180240001C0240002002400024024016
:100A60000AB1816170470904FBE700000148806812
:100A7000704700007000002002488168027811442D
:100A80008160704770000020032010B500F06EF800
:100A9000002000F005F800F023F8002010BD000051
:100AA00070B50D4D04464FF47A700C4A29781268DF
:100AB000B0FBF1F0B2FBF0F001F0C0FA48B9102C35
:100AC00007D200222146501E00F030F800206C6052
:100AD00070BD012070BD0000700000207C0000206F
:100AE0000A4808B5016841F080510160006800F0D3
:100AF000805000900548001D016841F4804101606C
:100B0000006800F48040009008BD000040380240BA
:100B1000002809DB410900F01F028900012001F1D2
:100B2000E0219040C1F80001704700000E4BF0B486
:100B30001B680D46C3F30223C3F10706042E00D938
:100B40000426191D072901D2002300E0DB1E012421
:100B500004FA06F19C40491E2940641E9940144045
:100B60002143F0BC03F004BB0CED00E0064900F0AB
:100B7000070210B54FF6FF040868044B204040EA16
:100B800002201843086010BD0CED00E00000FA05DB
:100B900001680123C0F8FC33002280F8F42388693F
:100BA000044A40F000608861486D104348650020A9
:100BB000704700000300001070B5164D0446A1B147
:100BC000012911D12068D0F8001E41F00101C0F8C0
:100BD000001ED4F8000402F0F5FB206A002803D0C0
:100BE000286840F00600286070BD206A28B101F036
:100BF000EBFC286820F0060028602068D0F8001E72
:100C000021F00101C0F8001ED4F80004BDE87040D6
:100C100002F07DBB10ED00E00068416200207047EB
:100C2000F0B503685D6A39B19F6A4C1E00204FF42D
:100C3000827605EB17450BE045EA0240986210E02A
:100C4000471C06EB800053F800C0F8B205EB1C45CA
:100C5000A042F5D34FF4807000EB810045EA0242D8
:100C60001A500020F0BDD0F8000402F0BEBAC1EB6B
:100C7000C10200EB8202D0F80004926C02F013BAB9
:100C8000C1EBC10200EB8202D0F80004D2F80822C6
:100C900002F06ABAD0F8000402F0A9BA01F00F021B
:100CA0000B0670B5C2EBC20104464FF001004FF0D5
:100CB000000504EB810103D581F83D003C3103E0E0
:100CC00081F8FD5101F5FE710A7094F8BC23012AE8
:100CD00008D084F8BC03206802F0FCFD002084F8F2
:100CE000BC5370BD022070BD70B54268044601F06F
:100CF0000F00904201D9012070BD01F00F024FF0AA
:100D000000050B06C2EBC2014FF0010204EB8101AA
:100D100003D581F83D203C3103E081F8FD5101F518
:100D2000FE718D70087094F8BC03012808D084F817
:100D3000BC23206802F0AAFF002084F8BC5370BDD9
:100D4000022070BD01F00F01C1EBC10100EB810079
:100D5000D0F8140270472DE9F04101F00F06044667
:100D60000D064FF00100C6EBC6014FF0000504EB85
:100D7000810103D581F83D003C3103E081F8FD514C
:100D800001F5FE714F788A60CB700E7007B1CE808E
:100D9000022B00D10D7194F8BC23012A09D084F8EC
:100DA000BC03206802F0EAFC284684F8BC53BDE886
:100DB000F0810220FBE770B501F00F050C4600261C
:100DC000C5EBC50100EB8101C1F80822C1E98436F9
:100DD00081F8FD6181F8FC5101F5FE710369012B79
:100DE00000D10A612207027C006803D002F0A6FF4E
:100DF000002070BD02F096FEFAE770B50D4641681E
:100E0000044605F00F00884201D9012070BD290673
:100E10004FF000064FF0010207D5C0EBC00104EB14
:100E2000810181F83D203C3107E0C5EBC50104EBB1
:100E3000810181F8FD6101F5FE718A70087094F8F6
:100E4000BC03012807D084F8BC23206802F04AFFC5
:100E5000280702D007E0022070BD217C04F57172E2
:100E6000206802F0E7FE002084F8BC6370BD2DE925
:100E7000F04101F00F050C460026C5EBC501012726
:100E800000EB81018A64C1E9143681F83D7001F8F4
:100E90003C5F0369012B00D10A612207027C0068D4
:100EA00004D002F04BFF0020BDE8F08102F03AFED2
:100EB000F9E700002DE9FC5F044600680026814642
:100EC0004D4603F054F800287ED1206803F07BF8EB
:100ED000002879D0206803F076F8800704D52068D0
:100EE000416901F002014161206803F06CF80103DF
:100EF0004FF0010B04F57170009077D5206803F076
:100F000041F8DFF838A407466EE0F8076AD0206899
:100F1000F1B203F050F88046C00707D005EB461148
:100F2000C1F808BB3146204601F08AFA5FEA087032
:100F300034D520682169012900EB4611006C01902D
:100F4000D1F8080B10D0FE4B019A9A4215D100043B
:100F500003D54FF40040C1F8080B204600F0FEFA1C
:100F60002069012810D014E0019A524505D90004E7
:100F700003D54FF40040C1F8080B204600F0EEFA0C
:100F800001985045ECD804E020680121009A02F055
:100F900051FE05EB46110820C1F8080B5FEAC86056
:100FA00004D505EB46111020C1F8080B5FEA8860F4
:100FB0000FD52069012804D120680121009A02F090
:100FC00039FE05EB461101E0C7E10FE02020C1F832
:100FD000080B5FEA884005D505EB46114FF4005039
:100FE000C1F8080B7F08761C002F8ED1206802F014
:100FF000EAFF40034FF0000A60D5206802F0BBFF13
:101000000026074658E0F80754D02068F1B202F0F5
:10101000C0FF8046C00726D0D5F8342806F00F0C54
:1010200005EB46130BFA0CF08243C5F83428C3F8DD
:1010300008B92069012807D1C6EBC60004EB80007F
:10104000D0E91121114481642046F1B2FFF70FFE6F
:101050002069012807D136B9206D20B92068012107
:10106000009A02F0E7FD5FEA087004D505EB46112F
:101070000820C1F808095FEAC86004D505EB4611ED
:101080001020C1F808095FEA486004D505EB461155
:101090004020C1F808095FEA887004D505EB4611C5
:1010A0000220C1F808095FEA086003D531462046EE
:1010B00001F034FA7F08761C002FA4D1206802F0DA
:1010C00082FF002811DAD5F8040820F00100C5F8E5
:1010D000040894F8F40301283BD0204600F022FADB
:1010E0002068416901F000414161206802F06BFF16
:1010F00000050BD5D5F80808C00702D0204600F03F
:1011000049FA2068416901F400614161206802F0F8
:101110005AFF00010AD52068416901F00061416170
:1011200094F8F403E0B1204600F034FA206802F0AD
:101130004AFFC0046AD5D5F8040820F00100C5F8BC
:1011400004082068102102F0F3FE00214FF67F32E0
:1011500027E00021204684F8F4A3FFF72DFDBFE728
:1011600084F8F4B32068406D0121C0F38300C4F813
:10117000F8032046FFF720FDD8E700BF05EB41103C
:10118000C0F80829D0F8003923F40013C0F800395A
:10119000C0F8082BD0F8003B23F40013C0F8003B44
:1011A000491C60688842E9D8D5F81C0840F0011055
:1011B000C5F81C08206B60B1D5F8840840F00B001E
:1011C000C5F88408D5F8440840F00B00C5F8440879
:1011D0000CE0D5F8140842F22B010843C5F81408B6
:1011E000D5F8100840F00B00C5F81008D5F8000835
:1011F00020F4FE60C5F80008217C2068009A02F007
:1012000019FD2068416901F480514161206802F0B4
:10121000DAFE800417D5206802F0F0FA206802F0A8
:1012200099FE58B30320E06000F016FD227B0146D2
:10123000206802F003FF204600F05EF92068416953
:1012400001F400514161206802F0BDFEC00639D5AD
:101250002168886920F010008861D9F8207007F0B3
:101260000F01C7F34340C1EBC101022804EB810524
:1012700005F5FE7505D0062815D01EE0C4F80CA0B3
:10128000D2E747F6F0710F4217D0C7F30A12E968A8
:101290001746484602F09BFEA969E8683944A961EF
:1012A0003844E86009E000990822484602F08FFEC1
:1012B000A969C7F30A100844A8612068816941F050
:1012C00010018161206802F07EFE000707D52046EC
:1012D00000F02CF92068416901F0080141612068A3
:1012E00002F071FEC00208D52046F1B200F037F8D6
:1012F0002068416901F480114161206802F063FEB9
:10130000800208D52046F1B200F02DF8206841692E
:1013100001F400114161206802F055FE400007D53C
:101320002046FFF7A0FC2068416901F0804141613F
:10133000206802F048FE40070FD503E00A30544F02
:101340000A31544F20684568680702D52046FFF7E8
:10135000A1FC2068416829434160BDE8FC9FD0F8AA
:10136000000401F093BFD0F8000401F091BF000029
:101370002DE9F04104008AB004D094F8BD030025A3
:1013800020B108E001200AB0BDE8F081204684F8D1
:10139000BC5300F063F8032084F8BD03206802F01A
:1013A000BBFB04F11001684628228846FEF759FF6E
:1013B00094E80F0002F03CFA0227E0BB206800210D
:1013C00002F013FE0020012611E000BFC0EBC001B7
:1013D000421C04EB810181F83D6081F83F504D646F
:1013E0008D640D6581F83C00A1F84200D0B26168BF
:1013F0008142EBD8002011E0C0EBC001421C04EB9D
:10140000810181F8FD5181F8FF51C1F80452C1F802
:101410000852C1F8105281F8FC01D0B261688142D3
:10142000EAD8282241466846FEF71BFF94E80F00E1
:1014300002F0A8FA10B184F8BD73A3E7606A84F8DB
:10144000385084F8BD63012802D12046FFF7A0FB85
:10145000206802F08BFA002095E7000030B587B0D5
:10146000044614216846FEF715FF2068B0F1A04F2E
:101470003BD11F48016841F0010101600068002470
:1014800002211C4D00F0010005904FF4E8500A23A2
:101490008DE8130003226946CDE903232846FFF7B0
:1014A000F3F968156946CDE9000428460294FFF770
:1014B000EBF90F48001D016841F0800101600068F0
:1014C00000F0800005900A481430016841F4804122
:1014D000016000680022114600F48040059043201E
:1014E000FFF724FB4320FFF713FB07B030BD0000DC
:1014F000303802400000024070B50446C068012543
:1015000070B1022801D0FFF7ACF9D4F800042946E5
:1015100001F00FFFD4F80004BDE8704001F0CFBE29
:101520000025F2E7D0F8000401F0F1BED0F8000485
:1015300001F0F3BE10B5044690F8BC0301280BD0AF
:10154000012084F8381084F8BC03206802F064FDA0
:10155000002084F8BC0310BD022010BDD0F8002488
:1015600000F57171104601F0F0BE10B5044690F818
:10157000BC0301280CD0012084F8BC03206802F0D1
:10158000E9F9206802F0BEFC002084F8BC0310BD1D
:10159000022010BD10B50446D0F8000401F012FF7F
:1015A0002068D0F8001E41F00101C0F8001E206A3A
:1015B000002804D00248016841F00601016010BD16
:1015C00010ED00E01848F8B5016841F08051016065
:1015D0000068164C00F080500090206840F4803085
:1015E0002060FFF743FA4FF47A76054605E000BF26
:1015F000FFF73CFA401BB0420FD86068C003F7D534
:10160000206840F400302060FFF730FA054606E01D
:10161000FFF72CFA401BB04201D90320F8BD6068E7
:101620008003F5D50020F8BD40380240007000402E
:101630002DE9F84F04460078DFF824944FF00006B7
:101640003746C0070ED0D9F8001021F40001C9F8C0
:101650000010D9F80010626B1143C9F80010606BDC
:1016600000B90126FE4D2068843500030ED5E16BDC
:10167000286820F4401008432860E06BB0F5801F14
:1016800001D010B102E0012600E0012720684FF4EC
:10169000800BC0020CD5216C286820F44000084360
:1016A0002860206C584501D1012601E000B90127CE
:1016B0002068C10100D50126800666D5E84838308B
:1016C000016841F0805101600068DFF898A300F0E4
:1016D00080500090DAF8001041F48071CAF80010D0
:1016E000FFF7C4F9804605E0FFF7C0F9A0EB08005A
:1016F00064287DD8DAF80000C005F5D5DFF86083EE
:1017000008F16808D8F8000010F440702AD0218E43
:1017100001F44071814225D0D8F80010D8F800209B
:1017200021F4407142F48032C8F80020D8F800203B
:1017300022F48032C8F80020C8F80010D8F8000061
:10174000C0070FD0FFF792F9824607E0FFF78EF946
:10175000A0EB0A0141F288308142CAD8D8F80000D3
:101760008007F3D5206BC0F3012103297ED0D9F87F
:10177000001021F4F811C9F80010228ED8F80010DA
:10178000C2F30B021143C8F800102078C00607D539
:10179000286820F0807028602868A16B08432860C2
:1017A0002188AF488830490405D5626E016821F46C
:1017B0004031114301602188090405D5A26E0168FA
:1017C00021F44021114301602168C90305D5E26E6F
:1017D000016821F44011114301602168890305D596
:1017E000226F016821F4400111430160217800E07B
:1017F00018E1490605D5626C016821F00301114327
:1018000001602178090605D5A26C016821F00C0160
:10181000114301602188C90505D5E26C016821F0FA
:101820003001114301602188890505D5226D0168C9
:1018300021F0C001114301602188490505D5626D81
:10184000016821F44071114301602188090505D523
:10185000A26D016821F44061114301602188C9042F
:1018600007D5E26D016821F4405100E041E01143E9
:1018700001602188890405D5226E016821F4404168
:10188000114301602168490205D5A26F016821F06A
:1018900080611143016021684FF0006A890209D517
:1018A000E26F016821F0006111430160E16F514571
:1018B00000D1012721680A0700D50127490305D572
:1018C000626F016821F040711143016021680902D3
:1018D00006D5D4F88020016821F0805111430160C1
:1018E000DFF88491012E0ED02068B0F1007F0AD07D
:1018F0008FE05E4AD9F80030104023F4F81202431A
:10190000C9F8002039E7D9F800004E4620F0806081
:10191000C9F80000FFF7AAF8804605E0FFF7A6F82F
:10192000A0EB080064287DD830680001F6D4217847
:101930004B487C30C90712D0616B81B9237A626849
:101940000168D0F800C09201C1F3014142EA0142AE
:10195000CCF3036142EA016141EA0371016021684D
:101960000A0303D5E26BB2F5801F04D0C9021AD571
:10197000216C594517D16368016894F80CC002685E
:101980009B01C1F3014143EA0141C2F3027241EA02
:101990000C6141EA027101602968626A21F01F014D
:1019A000521E114329602168C90110D5238A62683B
:1019B0000168D0F800C09201C1F3036142EA03421A
:1019C00042EA0162CCF3027142EA017101602168CE
:1019D00089010CD56168228A237B94F808C08901AB
:1019E00041EA024141EA036141EA0C710160316858
:1019F000B04641F080613160FFF738F8064604E0F8
:101A0000FFF734F8801B64280CD8D8F800000001D8
:101A1000F6D56FB3D9F800004E4620F08050C9F8D3
:101A2000000000E079E0FFF721F8074605E000BF7D
:101A3000FFF71CF8C01B64286FD83068C0438000D3
:101A4000F6D50748216880300A0301D5E26B1AB148
:101A5000C90225D5216C19BB63690168277E08E09E
:101A6000083802400070004000380240FFFCFF0FC1
:101A70005AE00268C1F301419B0143EA0143C2F30A
:101A8000027143EA076242EA0171016029686FF05E
:101A9000FF03A26A21F4F85103EB022211432960EB
:101AA0002168890212D5E16F51450FD1238C6269FB
:101AB000016807689201C1F3036142EA034242EA06
:101AC0000162C7F3027142EA0171016021780907DE
:101AD00016D561690268D0F800C08B01277FC2F378
:101AE0000362CCF3014143EA014141EA026141EA68
:101AF000077101602868E16A20F4403008432860DB
:101B0000306840F080503060FEF7B0FF044607E0D8
:101B1000FEF7ACFF001B642802D90320BDE8F88F54
:101B20003068C0438000F3D40020F7E72DE9F04788
:101B300005000F4663D0444E306800F00F00B842F5
:101B400009D2306820F00F0038433060306800F070
:101B50000F00B84253D128683C4C810712D540078A
:101B600003D5206840F4E05020602878000703D5B2
:101B7000206840F460402060A968206820F0F000F0
:101B8000084320602878C0072AD03049686808399F
:101B9000012810D00968022810D0890700292EDA00
:101BA000216821F0030101432160FEF75FFF8046B9
:101BB00041F288390DE009688903EFE78901EDE713
:101BC000FEF754FFA0EB0801494502D90320BDE808
:101BD000F0876868216801F00C01B1EB800FEFD14C
:101BE000306800F00F00B8420BD9306820F00F00C9
:101BF00038433060306800F00F00B84201D0012057
:101C0000E5E72878400705D5E968206820F4E0502A
:101C1000084320602878000706D52869216821F448
:101C2000604141EAC000206000F03CF82168084AA9
:101C3000C1F30311515CC840064908600020FEF75B
:101C40002FFF0020C3E70000003C0240083802409C
:101C5000F04B00087C00002001480068704700003D
:101C60007C0000200449054809680068044AC1F363
:101C70008221515CC8407047083802407C00002037
:101C8000004C00080449054809680068044AC1F38B
:101C90004231515CC8407047083802407C00002047
:101CA000004C0008154910B51548096811F00C02E0
:101CB00013D04110042A0FD0082A0ED10F4C241F34
:101CC0002268236802F03F025B0207D52068C0F358
:101CD0008810A0FB010106E0084610BD2168C1F391
:101CE0008811A1FB00010023FEF78AFA2168C1F3E5
:101CF0000141491C4900B0FBF1F010BD0838024019
:101D00000024F4002DE9F84F05004FF000076ED0D5
:101D10002878DFF81C93A9F1040AC007AAF104048B
:101D20004CD0D9F800104846C1F38101012908D0F0
:101D30000068C0F3810002280AD1DAF800004002EE
:101D400006D52068800339D568680028DFD035E0E3
:101D50006868B0F5803F0BD010B1B0F5A02F11D05E
:101D6000206820F480302060206820F4802002E089
:101D7000206840F480302060686890B1FEF776FEFD
:101D800006460AE0206840F480202060F0E700BFAB
:101D9000FEF76CFE801B642872D820688003F7D59C
:101DA0000CE0FEF763FE064605E000BFFEF75EFEB0
:101DB000801B6428F0D820688003F7D42878800737
:101DC00042D5D9F80010484611F00C0F08D0006831
:101DD000C0F3810002280BD1DAF80000400207D4DA
:101DE0002068800718D5E868012800D114E01CE1BC
:101DF000E8680028206817D040F001002060FEF756
:101E000035FE064605E000BFFEF730FE801B0228C7
:101E1000C2D820688007F7D52869216821F0F80129
:101E200041EAC00020600FE020F001002060FEF7D2
:101E30001DFE064605E000BFFEF718FE801B0228C7
:101E40001ED820688007F7D42878000729D578485D
:101E500069696C3000298046016812D041F00101A7
:101E60000160FEF703FE064605E000BFFEF7FEFD3B
:101E7000801B022804D8D8F800008007F6D510E0AF
:101E800089E021F001010160FEF7F0FD064604E063
:101E9000FEF7ECFD801B02287DD8D8F800008007F3
:101EA000F6D4287840076BD5DFF8848108F138082C
:101EB000D8F80000C0000BD4D8F8001041F08051D1
:101EC000C8F80010D8F80000012700F080500090FA
:101ED00058480168C90512D40168834641F48071ED
:101EE0000160FEF7C3FD064605E000BFFEF7BEFD3C
:101EF000801B64284FD8DBF80000C005F6D54C4E97
:101F0000A868683601280AD008B1052811D03068C1
:101F100020F001003060306820F0040002E03068FA
:101F200040F001003060A868A0B1FEF79FFD834635
:101F30000CE0306840F004003060F0E7FEF796FDFA
:101F4000A0EB0B0141F28830814266D830688007EF
:101F5000F4D50EE0FEF78AFD834607E0FEF786FD26
:101F6000A0EB0B0141F28830814256D830688007DF
:101F7000F4D42FB1D8F8001021F08051C8F8001027
:101F8000A869C8B3D9F80010C1F3810102294CD067
:101F90000228206800E040E020F08070206003D03C
:101FA000FEF764FD05463BE0FEF760FD064604E0F3
:101FB000FEF75CFD801B02282FD820688001F7D433
:101FC000D5E90962D5E907011B4B570895F82C2084
:101FD000084303EB074343EA8611084340EA0260E3
:101FE00040F00050CAF80000206840F08070206087
:101FF000FEF73CFD054606E015E000BFFEF736FDA6
:10200000401B022809D820688001F7D50BE000BFEB
:10201000FEF72CFD401B022802D90320BDE8F88FF3
:1020200020688001F4D40020F8E70120F6E70000E2
:1020300008380240007000400000FFFF401EB0F171
:10204000807F10B501D3012010BD4FF0E024606106
:102050000F21601702F08CF80020A0610721216198
:1020600010BD10B5040002D0606F10B107E0012070
:1020700010BD002084F87000204600F025F82420D0
:1020800060672068016821F001010160204600F0CE
:1020900099FB0128ECD0606A10B1204600F010FBDB
:1020A0002068416821F4904141602068816821F0F6
:1020B0002A0181602068016841F001010160204629
:1020C000BDE8104000F060BBF0B587B004461421B5
:1020D0006846FEF7DFF81949206888422CD1184875
:1020E000016841F400310160006800F4003005909F
:1020F00013481038016841F001010160016801F0E6
:1021000001010591016841F00801016000680224A5
:102110000025694600F008000590032607270820DF
:102120008DE8F1000748FEF7AFFB202069468DE8F7
:10213000F1000548FEF7A8FB07B0F0BD00440040E1
:102140004038024000000240000C02402DE9F843F4
:102150000446406F1F4616460D4620284FD1CDB18C
:10216000C6B194F87000012849D0012284F870208B
:1021700021214FF00008C4F87C806167FEF776FCEF
:102180008146A068A4F85060A4F85260B0F5805F62
:1021900003D004E00120BDE8F883206910B12E4689
:1021A000002510E000260EE08021204600F034FCDF
:1021B000B8B9C6B116F8010B21688862B4F85200AC
:1021C000401EA4F85200B4F852004B464FF00002F3
:1021D00000970028E8D14FF04001204600F01CFC99
:1021E00038B10320D7E735F8020B2168C0F30800A7
:1021F000E3E720216167002084F87080CBE70220AC
:10220000C9E7FEE7F0B500230A251C46302637272C
:1022100011E000BFB5EB107F02D906EB107C01E0A6
:1022200007EB107C01F813C001EB430C00015B1CB1
:102230008CF80140DBB29342ECD3F0BD2DE9F04FB6
:1022400087B014216846FEF725F85148016841F02F
:1022500004010160016801F004010591016841F089
:1022600080010160016801F080010591016841F081
:1022700001010160016801F001010591016841F06F
:1022800002010160016801F002010591016841F05D
:1022900008010160016801F008010591016841F041
:1022A00040010160006844F2810ADFF8E8B00022D2
:1022B00000F04000514605905846FEF7D1FB3648E5
:1022C00000224021FEF7CCFB00243449DFF8D08007
:1022D0004FF40059CDF80090CDE90114694640460D
:1022E000FEF7D2FA02256946322002AACDE900059E
:1022F000032640460B2782E8D000FEF7C5FA862069
:10230000694602AACDE90005264882E8D000FEF71A
:10231000BBFA4FF00108CDF800A0CDE90184694671
:1023200058460394FEF7B0FA02AA6946584682E876
:10233000D000CDE90095FEF7A7FA30020090072003
:102340006946CDE903601848CDE90154FEF79CFACF
:1023500040210091CDE901840F4869460394FEF7BE
:1023600093FA80206946CDE900040B480294FEF7F9
:102370008BFA4FF42050694602AACDE900050648C1
:1023800082E8D000FEF780FA07B0BDE8F08F0000C9
:1023900030380240000402400018024000001110D2
:1023A0000008024000000240000C02400A480021E0
:1023B00030B4084C0C224FF416530460C0E90131CC
:1023C000C160C0E904128161C1610162416230BC37
:1023D000FFF747BE004400409C0100201049002246
:1023E000104810B500F038FE08B1FEF73AFA0E4971
:1023F0000C4801F00DF808B1FEF733FA0B49094813
:1024000000F020FC08B1FEF72CFA064801F058F85D
:10241000002803D0BDE81040FEF723BA10BD00002D
:10242000000000201C0400205C010020600000204F
:10243000FEE770470148FEF73DBD0000B8060020EA
:102440002DE9F0410E460169044600682023012968
:102450004FF40042016C00EB4615D5F8080B08D08C
:102460002C4FB9424FD1010449D500BFC5F8082B04
:102470004DE05FEA007CDFF8A0C004F5717711D56C
:10248000614503D9000401D5C5F8082B2046FFF7A4
:1024900065F8206801213A4601F0CCFB0820C5F818
:1024A000080B34E05FEA806E02D5C5F8083B2EE0E9
:1024B00010F0280F2BD1614501D90004D6D4D5F8EE
:1024C000102BC6EBC60004EB8000C2F31202D0F85A
:1024D00004128A1AC0F81422D0F808221144C0F855
:1024E00008122046F1B2FEF7CBFB86B9D4F81002F1
:1024F00068B9206801213A4601F09CFB07E080069C
:1025000001D5C5F8083B2046F1B2FEF7B9FB002023
:10251000BDE8F0810A31544F0A30544F2DE9F84F8D
:102520000E4605688146C1EBC60100EB8104D4E983
:1025300014203C34904202D90120BDE8F88FA168F4
:10254000101A814200D20846C01C05EB46188708C5
:102550001BE000BFA268A0EB010A524500D29246E0
:1025600099F810100AF1030000911FFA8AF3E1684C
:1025700087082846F2B201F0D5FDE16801EB0A00B8
:10258000E060A16901EB0A00A061D8F8180980B2E7
:10259000B84205D3D4E90501814201D20028D9D13E
:1025A000D4E90501884208D8D5F83418012006F08E
:1025B0000F0290408143C5F834180020BDE77047F2
:1025C0007047FEF759BA000070B5B4B0302121A8A9
:1025D000FDF760FE14212DA8FDF75CFE84216846FE
:1025E000FDF758FE1E48016841F080510160006807
:1025F00000F0805032901B48016841F44041016076
:1026000000680224D82500F44040329001200926B9
:10261000820501040423CDE92742CDE92101CDE95A
:102620002935CDE92B4621A8FFF76CFBFEF7CAFF41
:10263000E2024FF4A0510025CDE930122DAA0F205F
:10264000072182E831002DA8FFF770FA064812959D
:102650001F9500906846FEF7EBFF34B070BD000098
:10266000403802400070004080002000104A30B521
:102670001048146800210F4B44F4700414600833B0
:1026800005680D4A0D4C45F00105056019600368A9
:10269000051D1340074A03600C322C600568E305F2
:1026A000034C25F480250560803C1160236030BD1B
:1026B00088ED00E000380240FFFFF6FE10300024F5
:1026C00090F82410C90706D00168836A4A6822F48A
:1026D00000321A434A6090F82410890706D5016831
:1026E000C36A4A6822F480321A434A6090F8241080
:1026F000490706D50168036B4A6822F480221A4311
:102700004A6090F82410090706D50168436B4A68AF
:1027100022F400421A434A6090F82410C90606D5F4
:102720000168836B8A6822F480521A438A6090F8A9
:102730002410890606D50168C36B8A6822F400520A
:102740001A438A6090F82410490611D50168036C79
:102750004A6822F480121A434A60016CB1F5801F66
:1027600006D10168436C4A6822F4C0021A434A60E9
:1027700090F82410090606D50168826C486820F498
:10278000002010434860704738B500250446C567EF
:10279000FEF76CF903462068006800070BD56FF060
:1027A0007E400090002220464FF4001100F034F9E2
:1027B00008B1032038BD2020606784F87050A067FE
:1027C000002038BD2DE9F04104468068DFF818C2CA
:1027D000864F2368D4E90452E16928431E68002526
:1027E0000A438349104306EA0C0606431E604FF471
:1027F00000422068E668436823F440533343436053
:102800002368A669206AD3F808C030432CF43066E8
:1028100006439E602068B8420AD1086810F00300A1
:1028200052D001287BD002287AD003286ED186E0CE
:10283000704B98420AD1086810F00C0079D0042837
:102840007BD0082877D00C2860D178E06A4B98427A
:102850000AD1086810F030006BD010286DD0202805
:1028600069D0302852D16AE0644B98420AD1086896
:1028700010F0C0005DD040285FD080285BD0C02819
:1028800044D15CE05E4B98420DD1086810F4407072
:102890004FD0B0F5807F50D0B0F5007F4BD0B0F571
:1028A000407F33D14BE0574B98420FD1086810F46A
:1028B000406009D0B0F5806F3FD0B0F5006F3AD0DE
:1028C000B0F5406F22D13AE0012120E04E4B984212
:1028D0000DD1086810F440502BD0B0F5805F2CD09B
:1028E000B0F5005F27D0B0F5405F0FD127E0474B30
:1028F00098420BD1086810F440401AD0B0F5804FD0
:102900001BD0904217D0B0F5404F18D01021E0698D
:102910004FF6EF76904238D109295DD202E00CE003
:1029200009E006E0DFE801F00D1027582A58585852
:102930002D000021EBE70221E9E70421E7E7082168
:10294000E5E7FFF78FF901E0FFF79CF90146D4F8BE
:102950000400490001EB5001B1FBF0F080B2A0F19E
:102960001001B14238D84FF6F0732168C0F342022B
:102970001840104324E026496068EBE7FFF792F91E
:10298000E4E760684FF48031E4E7092924D2DFE806
:1029900001F0050819231C2323231F00FFF762F908
:1029A00001E0FFF76FF90146D4F8040001EB500194
:1029B000B1FBF0F080B2A0F11001B1420CD8216857
:1029C000C8600AE013496068F0E7FFF76BF9EAE7CF
:1029D000606802EB5001EBE701250020206660668D
:1029E0002846BDE8F0810000F369FFEF00100140C8
:1029F000903802400044004000480040004C004035
:102A0000005000400014014000780040007C00406D
:102A10000048E8010024F4002DE9F04198461746EB
:102A20000E460446069D08E0681C06D0FEF71EF818
:102A3000A0EB0800A8420BD855B12068C06936EA5F
:102A4000000017D00020B842EED00020BDE8F08191
:102A50002168202000220B6823F4D0730B602168CA
:102A60008B6823F001038B606067A067032084F804
:102A70007020EBE70120E6E72DE9F041D0F898322D
:102A8000D0F89022DAB101EB8104002500EB840438
:102A9000E6694EB1C1EBC10703EB87035B6CB6FB84
:102AA000F3F703FB176323B1C2F814520020BDE80B
:102AB000F0810023E5611A4600F08DFCF6E7022064
:102AC000F5E770B5D0F89042054600F09BFBC4F8DE
:102AD0000C02D5F8900248B1D5F8940204F50371C0
:102AE000C268D4F804029047002070BD022070BD77
:102AF00070B500260446812100F0CCFA002520465E
:102B00000121E56200F0C6FA82212046C4F858513E
:102B100000F0C0FAD4F89002256448B1D4F89402C9
:102B200004F5247440688047206801F09FFF256009
:102B3000304670BD10B5D0E9A44159B194F80002F7
:102B4000FF2807D08B68214694F801229847FF2080
:102B500084F80002002010BD0A210180004870475F
:102B6000840000204321018000487047D4000020E9
:102B700043210180004870479000002043210180DC
:102B800000487047180100202DE9F0410125044656
:102B9000007C00264FF4007790B3402320460222A9
:102BA000812100F077FB4023E562022220460121CB
:102BB00000F070FB082320460322C4F858518221FC
:102BC00000F068FB4FF40770256401F0B9FFC4F80A
:102BD0009002F8B10546D4F89402006880470020BE
:102BE000C5F81402C5F81802207CD5F8042298B163
:102BF00040232046012100F059FB3046BDE8F0811A
:102C0000FFE702223B468121204600F043FB3B4682
:102C1000E562CAE70126F0E73B46EAE710B5D0F8DF
:102C2000901269B1027C002AD1F8042205D0402319
:102C3000012100F03BFB002010BD4FF40073F7E7CB
:102C4000022010BD002902464FF0020003D04FF0D1
:102C50000000C2F894127047D0F89002C0F8041235
:102C600000207047D0F89002C0F81022C0F8081277
:102C7000002070472DE9FC4105460C460020064621
:102C8000D5F890728DF80000ADF80400087810F0C7
:102C9000600122D020293CD1E288B2B1000608D5DB
:102CA000D5F894023946836860789847E2883946B7
:102CB00027E06078394687F80002A07987F801029A
:102CC0002846E28800F06AF828E0D5F8940200224D
:102CD000214683686078984720E0607820B10A2810
:102CE00009D00B2815D110E095F87402032810D1F3
:102CF000022201A905E095F87402032809D10122F6
:102D00006946284600F064F808E095F87402032844
:102D100004D02146284600F036F802263046BDE8A9
:102D2000FC8110B5D0F89012A1B1D1F814220AB1EB
:102D3000012010BD0122C1F81422D1F81022026333
:102D4000B1F81032D1F8082281219BB200F043FB88
:102D5000002010BD022010BD10B5D0F88C225268A2
:102D60009047002010BD13460A46002110B500F020
:102D70009DFA002010BD13460A46002110B500F050
:102D80002AFB002010BD10B58021044600F008FB8E
:102D90002046BDE81040002100F002BB10B5C0F88D
:102DA00048210323C0F86C321346C0F84C210A4670
:102DB000002100F07BFA002010BD0521002310B592
:102DC0001A46C0F86C12194600F070FA002010BDC7
:102DD00010B5C2610223C0F86C32134602620A4683
:102DE000002100F0F8FA002010BD0421002310B5E6
:102DF0001A46C0F86C12194600F0EDFA002010BD1A
:102E000004A00A46024910B500F0F5F8004810BDCC
:102E1000BC0A002043444320436F6E66696700008C
:102E200012200880004870472400002004A00A46B1
:102E3000024910B500F0DFF8004810BDBC0A0020C0
:102E400043444320496E7465726661636500000007
:102E500004200880004870472000002004A00A4693
:102E6000024910B500F0C7F8004810BDBC0A0020A8
:102E700053544D6963726F656C656374726F6E69EC
:102E80006373000004A00A46024910B500F0B3F8CD
:102E9000004810BDBC0A002053544D3332205669FF
:102EA000727475616C20436F6D506F727400000016
:102EB00010B51A2008800B480A490830021F09681B
:102EC00000681468081809D007490822FFF79AF922
:102ED0000549042220461031FFF794F90248801E6C
:102EE00010BD000020F4F01F460000200C200880D8
:102EF0000048704738000020F8B5044648880D4661
:102F0000010A06294CD006DC01290DD0022910D077
:102F100003294FD11BE007294AD00F294AD1D4F801
:102F20008812207CCA6937E0D4F88812207C0A68AD
:102F300032E0207C02260028D4F88C0205D0C16A39
:102F4000684688470146467041E0816AF8E7C0B2AA
:102F500006282FD2DFE800F003080D12171CD4F862
:102F60008812207C4A6817E0D4F88812207C8A688E
:102F700012E0D4F88812207CCA680DE0D4F88812D8
:102F8000207C0A6908E0D4F88812207C4A6903E0B2
:102F9000D4F88812207C8A6969469047014616E079
:102FA000207C38B9D4F88C02416B68468847F5E735
:102FB000207C20B129462046FFF7E5FEF8BDD4F875
:102FC0008C02016B68468847014607204870BDF8AF
:102FD000000048B1EA8852B1824200D90246204638
:102FE000ADF80020FFF7F4FEE8880028E6D120467F
:102FF000FFF7FBFEF8BD70B500284FF000061ED0AD
:103000000546344602E0641C6D1CE4B22B78002BAC
:10301000F9D1022505EB440414801278731C0325B2
:103020008A550024B21CCD5406E0551C8B54EAB2DC
:10303000531C401C8C54DAB20378002BF5D170BDC0
:1030400001004FF0000004D0012901D0022901D075
:10305000022070470120704710B580B1D0F88C3243
:1030600013B10023C0F88C3209B1C0F888120121D5
:10307000027080F8741200F0C9F8002010BD022020
:1030800010BD10B5D0F89802FDF72EFEBDE8104037
:10309000FFF7D6BF10B5D0F89802FDF7FFFDBDE8E9
:1030A0001040FFF7CDBF70B51646044649B1D4F8BD
:1030B0008C0242691AB194F87402032850D002209D
:1030C00070BDD4F86C32002504F11400022B03D03B
:1030D000042B3AD0C3B33CE0D0E90313994207D99B
:1030E000C91AC1608AB231462046FFF744FE12E099
:1030F0008068B0FBF3F103FB110199B9984211D339
:10310000D4F8701288420DD2002220461146FFF7F3
:1031100032FEC4F8705200231A461946204600F0C9
:10312000C5F816E0D4F88C02C16829B194F874028D
:10313000032801D1204688478021204600F030F93D
:103140002046FFF73AFE04E0FFE78021204600F02A
:1031500027F994F87802012804D184F8785201E024
:1031600020469047002070BD70B51546044649B111
:10317000D4F88C0282691AB194F87402032830D012
:10318000022070BDD4F86C1204F5A070032902D09F
:1031900005291ED027E0D0E903218A420BD9531A12
:1031A000C3600846834200D3034629469AB22046AC
:1031B000FFF7D9FD17E0D4F88C02016929B194F822
:1031C0007402032801D1204688472046FFF70DFEF0
:1031D00009E00020C4F86C020146204600F0E0F847
:1031E00001E020469047002070BD0020704710B5D8
:1031F000012180F87412D0F88C220179526890472E
:10320000002010BDD0F89802FDF79CBD70B5017884
:1032100039BB15490022022306254FF0A044C1F80E
:103220000004C0F898120846C1E90332C1E9063229
:103230000A624A62CA620A63C1E90045FEF798F869
:1032400008B1FDF70EFB08488021FDF7E5FC0648B4
:1032500040220021FDF7E4FC034880220121FDF714
:10326000DFFC002070BD0000B8060020D0F89822D6
:1032700001F07F000B06C0EBC00002EB800002D51E
:1032800090F83E00704790F8FE01704700207047AC
:103290000020704710B51C46D0F89802134622460D
:1032A000FDF759FDBDE81040FFF7CABE10B5D0F8D4
:1032B0009802FDF780FDBDE81040FFF7C1BE70B574
:1032C0000022044640231146FFF7E4FF4026C4F8DD
:1032D000506101253346002220468021C4F8445124
:1032E000FFF7D8FFD4F8901200206662A56184F839
:1032F0007452C4F86C026060C4F87C0229B1D4F83E
:103300008C020021426820469047002070BD90F852
:10331000751280F874120020704710B590F874127E
:10332000032904D1D0F88C12C96901B18847002063
:1033300010BD01740020704710B5D0F89802FEF758
:10334000F9F8BDE81040FFF77BBE70B5044600F504
:103350002070054600F048F8B4F88632012194F850
:10336000800210F01F02C4E99B130AD0012A0DD07D
:10337000022A10D000F08001204600F011F8002051
:1033800070BD2946204600F0A0F8F8E729462046FF
:1033900000F0CDF9F3E72946204600F020F9EEE7EA
:1033A00010B5D0F89802FDF728FDBDE81040FFF7F2
:1033B00047BE10B5D0F89802FEF7D7F8BDE8104028
:1033C000FFF73EBE90F87422042180F8752280F841
:1033D00074120020704710B5D0F89802FDF747FD31
:1033E000BDE81040FFF72CBE0A7802704A784270A0
:1033F000CB788A7802EB032242804B790A7902EB80
:10340000032282808A79C97902EB0121C180704749
:1034100002464FF0000011B1C2F88C127047022032
:10342000704710B5D0F88C2202241AB11268904768
:1034300000B90024204610BD70B5204D04468878A0
:103440000E46C1B20129297031D894F874020228BD
:103450000BD003280FD031462046FFF794FC297883
:103460002046BDE87040FFF777BCD9B1616003200A
:1034700084F8740209E071B16068884212D0C1B268
:103480002046FFF769FC297861602046FFF7C9FFF5
:1034900002280CD006E00220616084F87402204605
:1034A000FFF75AFC2046BDE87040FFF79EBC31464E
:1034B0002046BDE87040FFF766BC00008000002099
:1034C00010B5FFF776FF002010BD2DE9F0410A7816
:1034D0004FF0000612F0600208D0202A01D0402AE6
:1034E00070D1D0F88C22926890476DE04B78002222
:1034F00001250A2B66D2DFE803F0405D65576508B9
:1035000005652C29FFF7F8FC5EE004468888D8B9E9
:10351000C888C8B94888802816D294F8742200F068
:103520007F07032A10D03946204684F87672FFF7C9
:1035300003FF2046FFF759FC1FB1022084F87402F4
:1035400042E084F874523FE020463BE0FFF774FF0E
:103550003AE0CB88012B35D190F87432012B04D09E
:10356000022B02D0032B2DD104E000F10801826070
:10357000012216E00122011D13E090F87422012AB5
:1035800003D0022A01D0032A1CD1CA88022A19D1E9
:10359000D0F87C12C56009B10321C160022200F19C
:1035A0000C01FFF715FC0FE0498801290CD1C0F888
:1035B0007C5211E090F87432012B08D0022B06D017
:1035C000032B04D0FFF7DFFB3046BDE8F0814988CC
:1035D0000129F9D1C0F87C22FFF707FCF4E70A467D
:1035E0002DE9F041044610780979002710F06003B6
:1035F0000AD0202B01D0402B50D1D4F88C02114698
:103600008368204698478FE0C0F34110012806D018
:103610005078D0B301282AD003283FD107E0D4F84E
:103620008C02114683682046BDE8F041184794F8A3
:103630007402022802D0032872D10AE071B38029F3
:103640006ED02046FFF7ACFE80212046FFF7A8FE93
:103650006AE0508838B931B1802904D0D08810B9D7
:103660002046FFF79DFE2046FFF7BFFB5CE094F885
:1036700074020228E2D0032852D1508898BB480631
:10368000F1D02046FFF7FDFCEDE7FFE794F8740268
:103690000026022803D0032842D112E040E009B1FD
:1036A00080293DD1080601F07F0000EB800004EB8B
:1036B000800101D5143101E001F5A07102220E60F4
:1036C0002AE0080601F00F0000EB800004EB800008
:1036D0000AD5806920B301F07F0000EB800004EB85
:1036E000800514350BE01FE0D0F84401C0B101F0B3
:1036F0007F0000EB800004EB800505F5A07541B16B
:10370000802906D02046FFF7B1FD10B101202860C6
:1037100000E02E60022229462046FFF759FB03E015
:1037200011462046FFF72FFB3846BDE8F08170B503
:10373000054608780C4610F0600003D0202801D020
:10374000402816D195F87402012803D0022801D030
:1037500003280ED1207901280BD8D5F88C02826875
:1037600028469047E188014306D12846FFF73DFBF4
:1037700002E02846FFF707FB002070BD70B54D78CA
:1037800001230A78012D1C4C02F00F0503FA05F302
:10379000D0F81C5817D000EB421245EA0343C0F89A
:1037A0001C38D2F8000B00040BD40B89C978D2F86E
:1037B000000BC3F30A03184344EA81410843C2F8EB
:1037C000000B002070BD9EB23543C0F81C5800EBC2
:1037D0004213D3F800090004F3D40D89C978D3F853
:1037E0000009C5F30A058904284341EA82510843C8
:1037F0002043C3F80009E4E700800010D0F8001966
:103800006FF30A01C0F80019D0F80818C1F341019C
:10381000022905D1D0F8001941F00301C0F80019C0
:10382000D0F8041841F48071C0F8041800207047E3
:1038300070B504460698049D0D99012815D0E068DE
:1038400040F04000E060204600F028F8A16B41F411
:103850008031A163012D07D1A16841F00601A1606B
:10386000A16841F02001A16070BDA06B01290A4A46
:1038700020F48030A063E06800EA0200E060E068C5
:1038800020F44010E06003D1E06840F48010E06074
:10389000204600F003F8DDE7BFFFBDFF0C49012221
:1038A00002E0521C8A420BD80369002BF9DA036943
:1038B000012243F00103036104E0521C8A4201D952
:1038C000032070470369DB07F7D100207047000031
:1038D000400D030030B54C7801220B78012CD0F854
:1038E0003C5803F00F0402FA04F417D025EA04440C
:1038F000C0F83C480978D0F81C4801F00F018A4014
:1039000000EB431124EA0243104AC0F81C38D1F8F6
:10391000000B1040C1F8000B002030BDA4B2A5433D
:10392000C0F83C580978D0F81C4801F00F018A40D3
:1039300092B29443064A00EB4311C0F81C48D1F8F8
:1039400000091040C1F80009E6E700000078F3EF35
:10395000007833EC10B5D0F8041821F00201C0F85B
:1039600004180320FCF77EFF002010BD10B5D0F82E
:10397000041841F00201C0F804180320FCF772FF9C
:10398000002010BD2DE9F04F0E4604460021DDE970
:103990000B2BDDF840800D46099F084604EB800C98
:1039A000CCF80411401C0F28F8D32046A06BB8F1C6
:1039B000000F15D040F4001CC4F838C089460846F2
:1039C000C4F8000E2046D4F80018012AC4F80018E4
:1039D00034D0032A32D0D0F8001841F0030111E0AE
:1039E00020F4001CC4F838C0206840F0400CC4F833
:1039F00000C0206840F0800CC4F800C0DEE700BFC3
:103A000041F00101C0F80018102100F091FA00B156
:103A10000125204600F07CFA00B1012548464FF010
:103A2000006C4FF67F334FF0904AC4F81098C4F8FA
:103A30001498C4F81C980021994619E0D0F8001891
:103A4000002BDFD0DCE700BF04EB4112D2F80039D5
:103A5000002B06DA11B1C2F800A904E0C4F800C9CD
:103A600001E0C2F80009C2F81009C2F80899491C1F
:103A70008E42E9D8002113E004EB4112D2F8003B5A
:103A8000002B06DA11B1C2F800AB04E0C4F800CB99
:103A900001E0C2F8000BC2F8100BC2F8089B491CE9
:103AA0008E42E9D8D4F81018012F21F480722146F3
:103AB000C4F8102808D1144B144AC1F83038D1F892
:103AC00030181143C4F830186FF08041A061616173
:103AD0001FB9A06940F01000A061A069BBF1000F00
:103AE0000B4A40EA0200A06103D0A06940F0080040
:103AF000A061B8F1010F03D1A06906490843A06194
:103B00002846BDE8F08F000000018000030001009E
:103B100000383C8004000040816821F00101816090
:103B20000020704770B50B784E78414C0D78012E0F
:103B300000EB431320D0D3F8100B6FF31200C3F83F
:103B4000100BD3F8100B2040C3F8100B486908B1D4
:103B500088684861D3F8100B012A40F40020C3F8AC
:103B6000100BD3F8100B8A68C2F3120240EA02006D
:103B7000C3F8100B4FD052E04E69002ED3F81069F5
:103B800033D06FF31206C3F81069D3F810692640DA
:103B9000C3F810694E698C68A64200D94C61D3F80D
:103BA000104944F40024C3F81049D3F810494E6971
:103BB000C6F3120654EA0604C3F81049012A22D0BB
:103BC0004A694AB10B78D0F83428012103F00F0379
:103BD00099400A43C0F8342800EB4510D0F800198A
:103BE00041F00441C0F800191FE02640C3F81069F5
:103BF000D3F8104944F40024C3F81049D3F810490D
:103C00006FF31204D8E709690029E5D000EB4512EB
:103C1000C2F81419E0E7C86808B1C3F8140BD3F868
:103C2000000B40F00440C3F8000B002070BD000002
:103C3000FFFF07E010B5144C036CA34203D9D0F882
:103C4000003B002B1EDB0023C0F8103B0129D0F8FD
:103C5000101B41F40021C0F8101BD0F8101B41F0DC
:103C60001801C0F8101BD0F8101B41F0C041C0F87B
:103C7000101B07D1C0F8142BD0F8001B41F0802195
:103C8000C0F8001B002010BD0A30544F0B784A7852
:103C9000012A00EB43100BD0D0F8002B22F40012C5
:103CA000C0F8002BC978032914D0022912D017E0DC
:103CB000D0F8002922F40012C0F80029C97803299D
:103CC00001D002290CD1D0F8001941F08051C0F880
:103CD000001905E0D0F8001B41F08051C0F8001B2E
:103CE000002070470A784B78D1B2012B00EB4210CC
:103CF00012D0D0F8002B002A06DB29B1D0F8001B27
:103D000021F08041C0F8001BD0F8001B41F40011E5
:103D1000C0F8001B00207047D0F80029002A06DBFD
:103D200029B1D0F8001921F08041C0F80019D0F86D
:103D3000001941F40011C0F80019EBE7F8B50B7851
:103D40006FF060464F786E4DDCB2012F00EB4313ED
:103D500026D0D3F8104B6FF31204C3F8104BD3F8EE
:103D6000104B2C40C3F8104B4D69002D70D08C685F
:103D7000D3F8107B25446D1EB5FBF4F4A4B206EA1B
:103D8000C4452F43C3F8107BD3F8105B8E6866439D
:103D9000C6F312042543C3F8105B012A7ED097E0D6
:103DA0004F6927B3D3F810796FF31207C3F810796E
:103DB000D3F810792F40C3F810794F698D68D3F884
:103DC00010C92F447F1EB7FBF5F506EAC54545EA45
:103DD0000C05C3F81059D3F810594E69C6F31206F2
:103DE0003543C3F81059CD78012D10D01BE0D3F81E
:103DF00010692E40C3F81069D3F8105945F4002516
:103E0000C3F81059D3F810596FF3120509E0D3F82D
:103E1000105925F0C045C3F81059D3F8105945F092
:103E20000055C3F81059012A13D0CB78012B18D0B4
:103E30004B692BB30E78D0F83438012506F00F0605
:103E4000B5402B43C0F83438CB78012B09D017E0AC
:103E50002BE00B69002BF7D000EB4415C5F81439A3
:103E6000F2E7D0F80838DB0500EB4413D3F800592B
:103E700002D445F0005501E045F08055C3F80059E3
:103E800000EB4413D3F8004944F00444C3F800495C
:103E9000CB78012B32D100928B8A00E014E00A78B3
:103EA0009BB2C96800F03EF928E08D68D3F8104B4A
:103EB000C5F312052C43C3F8104BD3F8104B44F450
:103EC0000024C3F8104B68E7CA680AB1C3F8142B82
:103ED000C97801290CD1D0F80808C005D3F8000B27
:103EE00002D440F0005001E040F08050C3F8000BD5
:103EF000D3F8000B40F00440C3F8000B0020F8BDDD
:103F0000FFFF07E0816841F00101816000207047F8
:103F1000064A102101610021491C914201D9032068
:103F200070470369DB06F7D400207047400D03009B
:103F30002023074A43EA811303610021491C91426F
:103F400001D90320704703699B06F7D4002070470E
:103F5000400D0300D0F8080810F0060004D0022835
:103F600003D0062801D00020704703207047406925
:103F700000F001007047D0F81818D0F81C0808406D
:103F800080B27047D0F81818D0F81C080840000C10
:103F9000704710B5D0F8102801F00F0300EB411462
:103FA000D0F83418D4F80809D94001F0010142EAE8
:103FB000C111084010BD00EB4111D1F8081BD0F829
:103FC0001408084070474169806908407047D21C56
:103FD00000F580509308002210B502E00468521CDE
:103FE00010C19A42FAD3084610BD10B5C268012923
:103FF00022F0C042C26002D029B1012010BDC168C8
:1040000041F0005102E0C16841F08041C1603220BE
:10401000FCF728FC002010BDD0F800284FF4FE6308
:1040200003EA011322F4FE62C0F80028D0F8001859
:104030001943C0F80018002070470000032A3ED141
:10404000264A274B0A449A4201D20F2138E0254ADA
:10405000254B0A449A4201D20E2131E0234A244BD7
:104060000A449A4201D20D212AE0224A224B0A44F4
:104070009A4201D20C2123E0204B214A0B44934267
:1040800001D20B211CE01F4B1F4A0B44934201D26B
:104090000A2115E01D4B1E4A0B4493420FD31D4BC2
:1040A0001D4A0B44934201D2082109E01B4B1C4AD4
:1040B0001944914201D2072102E0062100E00921C2
:1040C000C2684FF4705322F47052C26003EA812335
:1040D000C1681943C160002070470000405327FFAA
:1040E00000350C00401E1BFF40420F0000DC0BFFA0
:1040F000804F1200808CF9FE20D6130060B6E5FEDA
:1041000060E3160000D3CEFE40771B00C05BB3FE19
:10411000C091210000CA91FE20753800E05459FE7C
:10412000E09C410010B5029C64B900EB0230DB1C3E
:1041300000229B0800F5805002E010C90460521C68
:104140009A42FAD3002010BDFEE7000037B51446AE
:104150000846064B6A46214600F0ECF804466946DC
:10416000002000F07EFC20463EBD0000634A0008AF
:10417000090700284FEA116104DB00F1E02080F814
:104180000014704700F00F0000F1E02080F8141DCB
:10419000704702E008C8121F08C1002AFAD1704710
:1041A0007047002001E001C1121F002AFBD17047B7
:1041B0002DE9FF5F82B00021DDE90430020DDDF85A
:1041C00040B0034318D044F61050A2F2FF324243ED
:1041D0001514119801281FD0A5EB0B00401C5FEAB5
:1041E000000A4FF000064E4FDFF83891B0465046B7
:1041F00015D5CAF1000413E0119801244AA301283F
:1042000001D16FEA0B010298119AC0E90031C0E9AF
:10421000024206B0BDE8F09FCBF10000DFE70446A4
:104220000021404A491842EB0450CDE9001012E049
:10423000E00707D032463B4640464946FCF718F9AE
:104240008046894632463B4610461946FCF710F92F
:1042500006460F466410002CEAD1DDE90401DDE9D1
:104260000023BAF1000F06DAFCF702F942464B468A
:10427000FCF7FEF805E0FCF76DF942464B46FCF70B
:1042800069F904460E460022284BFCF7EBF903D8E7
:104290004FF0FF30014607E00022254B2046314613
:1042A000FCF73FF8FCF7C5F9102409E0002C0ADB05
:1042B0000A220023FBF7A4FF039B30321A55641E29
:1042C00050EA0102F2D1641C039AC4F111031444B0
:1042D000119A012A03D0012208430DD10AE00843B4
:1042E00004D000204FF0110B119072E7A3EB0B05E7
:1042F0006D1E0DE05B4504DD4FF0000205F1010588
:1043000004E003DA4FF00002A5F10105002AECD029
:1043100002981199C0E90231C0E9004579E700002F
:10432000000014400000F03F300000000000F043A7
:104330000000E03F2DE9FF4F95B09B4689460646B9
:1043400000250FE2252877D100242746F84A0121CD
:10435000059400E0044316F8013F203B01FA03F006
:104360001042F7D130782A2811D06FF02F0330781F
:10437000A0F13002092A16D8059A44F0020402EB93
:10438000820203EB42021044761C0590EFE759F8D5
:10439000042B0592002A03DA504244F4005405909D
:1043A00044F00204761C30782E2816D116F8010F3E
:1043B00044F004042A280DD06FF02F023078A0F1C9
:1043C0003003092B09D807EB870302EB4303C71817
:1043D000761CF3E759F8047B761C30786C280FD0F4
:1043E00006DC4C2817D068280DD06A2814D104E0C8
:1043F000742810D07A280FD10DE044F400140AE09C
:1044000044F4801401E044F440147278824202D1F2
:1044100004F58014761C761C307866280BD013DCEB
:10442000582877D009DC002875D04528F6D04628D2
:10443000F4D047281AD19DE118E0632835D06428CC
:1044400079D0652812D195E1702873D008DC6728EF
:10445000F1D069286FD06E280DD06F2806D1B5E055
:1044600073282CD0752875D0782874D05A4617999F
:1044700090476D1C75E1C4F30250022809D003284F
:104480000DD0D9F8001004280DD00D6009F10409F1
:1044900067E1D9F80010EA17C1E90052F6E7D9F848
:1044A00000100D80F2E70D70F0E719F8041B8DF88D
:1044B000001000208DF80100EA46012003E059F8C1
:1044C00004AB4FF0FF3061074FF0000102D40DE064
:1044D00008F101018846B9420FDA8045F8DB1AF885
:1044E00008100029F4D108E008F101018846814252
:1044F000FADB1AF808100029F6D105985B46A0EB04
:10450000080721463846179A00F094FA284400EB31
:10451000080507E04DE029E10DE01AF8010B5A46C5
:1045200017999047B8F10108F7D25B462146384603
:10453000179A13E142E00A220092C4F302524FF0AC
:10454000000A022A08D059F804CB032A4FEAEC717A
:104550000AD00DE029E02AE009F1070121F0070265
:10456000F2E802C1914609E00FFA8CFC4FEAEC71C7
:10457000042A03D14FFA8CFC4FEAEC71002907DAC8
:104580000A460021DCF1000C61EB02012D2202E061
:10459000220504D52B228DF80420012203E0E20736
:1045A00001D02022F7E7904659E00A2102E01022CC
:1045B0000DE010214FF0000A00910BE010224FF0A7
:1045C000000A44F004040827009203E008224FF098
:1045D000000A0092C4F30252022A05D059F804CB13
:1045E0000021032A08D009E009F1070121F00702A0
:1045F000F2E802C1914605E01FFA8CFC042A01D1C1
:104600000CF0FF0C4FF00008220728D5702806D0C8
:10461000009B83F0100353EA0A0305D00EE040220A
:104620008DF80420012208E05CEA010206D0302265
:104630008DF804208DF8050002229046009B83F03F
:10464000080353EA0A030AD15CEA010201D16207B6
:1046500005D530228DF804204FF001087F1E582820
:1046600004D034A003900EA802900DE036A0F9E724
:1046700053466046009AFBF7C3FD84460398825C6C
:104680000298401E029002705CEA0100F0D102988C
:1046900006A9081A00F1200A600702D524F4803424
:1046A00000E00127574502DDA7EB0A0000E00020EB
:1046B00000EB0A01009005984144401A0590E00380
:1046C00006D45B462146179A059800F0B3F90544D5
:1046D000002706E001A85A46C05D179990476D1C57
:1046E0007F1C4745F6DBE0030CD55B462146179A55
:1046F000059800F09FF9054404E030205A461799C8
:1047000090476D1C0099481E00900029F5DC08E0D8
:10471000029802995A460078491C029117999047CD
:104720006D1CBAF10001AAF1010AF1DC65E100009B
:104730000928010030313233343536373839616277
:10474000636465660000000030313233343536373B
:1047500038394142434445460000000000F058F912
:104760000544761C307800287FF4ECAD19B028465B
:10477000BDE8F08F620700D4062709F1070222F096
:10478000070CFCE80223E14603F000485FEA080C4E
:1047900002D00FF2702C0DE05FEA045C02D50FF23C
:1047A000682C07E05FEAC47C02D00FF2602C01E0C5
:1047B000AFF2700C4FF0FF3823F00043CDF850C03B
:1047C00065280CD006DC452809D046281DD047288E
:1047D0003DD13DE0662818D067287ED138E0002121
:1047E000112F01DB112000E0781CCDE9000106A9A2
:1047F0000EA8FFF7DDFCDDE90F010E9A0391002101
:10480000009207F1010A04914DE04FF0004000973B
:10481000CDE9011006A90EA8FFF7CAFCDDE90F02D9
:1048200003920E9B11990022DDF80CA000930492D4
:1048300011B9791C00EB010AB7EB0A0004D4C0F1EE
:10484000FF3007F1010A0490AAEB0700019044E051
:10485000012F00DA01270021112F01DD112000E0D6
:104860003846CDE9000106A90EA8FFF7A1FCDDE955
:104870000F010E9A0391002104910092BA4621077C
:104880000CD40399514500DA8A46BAF1010F05DDCF
:10489000009AAAF10101515C302908D0B84202DA2D
:1048A00010F1040F06DA0121CDE9011015E0AAF19B
:1048B0000101E9E7002805DC049901440491AAEB11
:1048C000000102E0411C514500DD8A460499401A6E
:1048D000401C01904FF000400290200704D4019842
:1048E000504501DBCDF8048000208DF84F00029880
:1048F0000DF14F07B0F1004F25D02B200E900298FC
:104900004FF0020800280CDA404202902D200E9051
:1049100007E00A210298FBF7CFFC3031029007F83C
:10492000011DB8F10001A8F10108F2DC029800288D
:10493000EFD1791E0E980870307800F0200040F01A
:10494000450007F8020D12A8C01B00F107081498D3
:10495000007800B1012000EB0A01019801EBE07141
:1049600005984144401A401E0590E00306D45B467A
:104970002146179A059800F05DF8054414980078D0
:1049800018B15A46179990476D1CE00324D55B4631
:104990002146179A059800F04DF805441CE004984C
:1049A000002807DBDDE90301884203DD0098405C55
:1049B000179901E0179930205A469047049805F15D
:1049C0000105401C04900198401E019004D12E2046
:1049D0005A46179990476D1CBAF10001AAF1010AD5
:1049E000DDDC05E017F8010B5A46179990476D1C5E
:1049F000B8F10001A8F10108F4DC5B462146179AE2
:104A00000598ABE62D0000002B0000002000000000
:104A10002DE9F041044600251E461746880404D4BB
:104A200005E039462020B0476D1C641EF9D52846A4
:104A3000BDE8F0812DE9F041044600251E46904670
:104A4000C80301D5302700E02027880404D505E0FD
:104A500041463846B0476D1C641EF9D52846BDE86E
:104A6000F0810A68531C0B601070704710B5002865
:104A700021D0114B0022001F196803E0814203D8A6
:104A80000A4649680029F9D152B11368841A9C4238
:104A900004D1006818441060104602E0506000E045
:104AA000186039B102680B1A934203D10B681A449B
:104AB00002604968416010BD94010020FBF7E4FFEB
:104AC000FDF782FDFDF7BAFBFDF788FCFDF76EFCF4
:104AD000144961230020421C0B5490B20C28FAD3D5
:104AE00062230C204FF40072441C0B54A0B290427D
:104AF000FAD30D4D4FF47A77904600242E6807E0E4
:104B000008484146FBF796FE0028F9D1641CA4B280
:104B10002868801BB842F3D304A0214600F046F871
:104B2000EBE700001C02002078000020636F756E28
:104B30007465722076616C3A202575200D0A00009C
:104B4000F0B50B30154D20F007010024144A0FE09A
:104B500003688B420BD38B4205D95E1A4318476812
:104B6000C3E9006700E04368136002C004E0021D6F
:104B700010680028ECD12046002802D1286808B12E
:104B80000020F0BD064A07481060074A121A22F0BA
:104B90000702C0E9002401202860D7E7980100201F
:104BA00094010020C41C0020C02000200FB410B5C8
:104BB00003A9029800F004F810BC5DF814FB000093
:104BC00000B5B3B00A4601466846FFF7BFFA0028B1
:104BD00009DD6846FBF769FB82B204486FF07F434A
:104BE0006946FDF7B3FA33B000BD00009C01002018
:104BF000000000000000000001020304060708098D
:104C00000000000001020304284C000800000020FE
:104C10009C01000096070008F44C00089C0100204D
:104C200024270000A241000813212E1B0851041A5A
:104C30005D041A85041AB1041A01041A2D041AED30
:104C400004100B040309041201010202021640833E
:104C500004405726020102030114050F0C1C010732
:104C6000101721031A1A0313F9071B08F3041AEF8C
:104C7000041B1D085C3182105324F4130A062947D3
:104C80002A401C1C090243631125C032090419770C
:104C9000120113052416100105240118090104242A
:104CA000020205240678150582030815100904017F
:104CB00033020A1D07050102432C07058107093845
:104CC000442A40072A8107112B0907440A3B044460
:104CD00013892B1408F12A1408752C42081A351070
:104CE0001A79101AC304C11A71181A65041A7D04BE
:044CF0001A590481C8
:04000005080001C925
:00000001FF
