:020000040800F2
:1000000010040020DD0100088F0C0008F30A00082E
:100010008D0C0008E9020008650D000800000000D2
:10002000000000000000000000000000930C000829
:10003000EB02000800000000910C0008950C00087D
:10004000F7010008F7010008F7010008F7010008B0
:10005000F7010008F7010008F7010008F7010008A0
:10006000F7010008F7010008F7010008F701000890
:10007000F7010008F7010008F7010008F701000880
:10008000F7010008F7010008F7010008F701000870
:10009000F7010008F7010008F7010008F701000860
:1000A000F7010008F7010008F7010008F701000850
:1000B000F7010008F7010008F7010008F701000840
:1000C000F7010008F7010008F7010008F701000830
:1000D000F7010008F7010008F7010008F701000820
:1000E000F7010008F7010008F7010008F701000810
:1000F000F7010008F7010008F7010008F701000800
:10010000F7010008F7010008F7010008F7010008EF
:10011000F7010008F7010008F7010008F7010008DF
:10012000F7010008F7010008F7010008F7010008CF
:10013000F7010008F7010008F7010008F7010008BF
:10014000F7010008F7010008F7010008F7010008AF
:10015000F7010008F7010008F7010008F70100089F
:10016000F7010008F7010008F7010008F70100088F
:10017000F7010008F7010008F7010008000000007F
:10018000F7010008F7010008F7010008F70100086F
:10019000F7010008F7010008F7010008F70100085F
:1001A000F7010008F7010008F7010008F70100084F
:1001B000F7010008F7010008F7010008F70100083F
:1001C000F7010008F7010008DFF80CD000F07AF81A
:1001D00000480047A90D0008100400200648804789
:1001E00006480047FEE7FEE7FEE7FEE7FEE7FEE71C
:1001F000FEE7FEE7FEE7FEE7110D0008C901000873
:100200002DE9F05F0546002092469B46884606464B
:10021000814640241BE0284641464746224600F0DE
:1002200041F853465A46C01A914110D31146184618
:10023000224600F028F82D1A67EB01084F462246A7
:100240000120002100F01FF817EB00094E41201E8D
:10025000A4F10104DFDC484631462A464346BDE8A6
:10026000F09FD2B201E000F8012B491EFBD270478B
:100270000022F6E710B513460A4604461946FFF772
:10028000F0FF204610BD202A04DB203A00FA02F1DC
:10029000002070479140C2F1200320FA03F3194374
:1002A00090407047202A04DB203A21FA02F0002116
:1002B000704721FA02F3D040C2F120029140084376
:1002C00019467047064C074D06E0E06840F0010310
:1002D00094E8070098471034AC42F6D3FFF778FF54
:1002E000E00D0008000E0008FEE7704770B50446F8
:1002F00000F006F90546601C02D00448007804446A
:1003000000F0FEF8401BA042FAD370BD00000020B0
:100310002DE9F84FDFF89CE100224FF001084FF083
:10032000030B4FF00F0A00BF0B6808FA02F42340DA
:10033000A34271D14D68022D01D0122D0FD1D508E5
:100340000E69570700EB8505A9462D6AFF0E0AFACC
:1003500007FCBE4025EA0C052E43C9F820600F7942
:10036000550006680BFA05FC07F0030726EA0C06A1
:10037000AF40374307604E68012E05D0022E03D0F0
:10038000112E01D0122E0ED18668CF6826EA0C06F7
:10039000AF403743876046680F79A643C7F300171D
:1003A000974037434760C4688E6824EA0C04AE4027
:1003B0002643C6604C68E40075D53F4C256845F47B
:1003C00080452560246822F00306950704F48044E4
:1003D00000943A4C2D0F2644D6F80848DFF8E0C0C8
:1003E0000AFA05F7604524EA070401D100272EE048
:1003F000344FB84201D1012729E0334FB84201D12F
:10040000022724E0314FB84201D103271FE0304FCB
:10041000B84202D104271AE045E02E4FB84201D17C
:10042000052714E02C4FB84201D106270FE02B4FCF
:10043000B84201D107270AE0294FB84201D1082765
:1004400005E0284FB84201D1092700E00A27AF4054
:1004500027437546C6F808784E68DEF80040F60374
:1004600024EA030400D51C43124E2C60361D4D684F
:100470003468AD0324EA030400D51C430D4F3460F7
:1004800008374D683C68ED0224EA030400D51C439C
:10049000084D3C600C354E682C68B60224EA030413
:1004A00000D51C432C60521C102AFFF43DAFBDE860
:1004B000F88F0000003C0140443802400030014009
:1004C000000002400004024000080240000C02400C
:1004D000001002400014024000180240001C0240BC
:1004E0000020024000240240426931EA020200D1A9
:1004F0000904816170470AB1816170470904FBE713
:1005000001488068704700000000002002488168B0
:10051000027811448160704700000020032010B56C
:1005200000F060F8002000F005F800F023F800204B
:1005300010BD000070B50D4D04464FF47A700C4AA2
:1005400029781268B0FBF1F0B2FBF0F000F0BEFACF
:1005500048B9102C07D200222146501E00F022F884
:1005600000206C6070BD012070BD00000000002004
:100570000C0000200A4808B5016841F08051016074
:10058000006800F0805000900548001D016841F4AB
:1005900080410160006800F48040009008BD0000C8
:1005A000403802400E4BF0B41B680D46C3F30223E3
:1005B000C3F10706042E00D90426191D072901D20C
:1005C000002300E0DB1E012404FA06F19C40491ED2
:1005D0002940641E994014402143F0BC00F0C3BB85
:1005E0000CED00E0064900F0070210B54FF6FF04DD
:1005F0000868044B204040EA02201843086010BD00
:100600000CED00E00000FA052DE9F04705000F466B
:1006100063D0444E306800F00F00B84209D2306811
:1006200020F00F0038433060306800F00F00B8420F
:1006300053D128683C4C810712D5400703D5206868
:1006400040F4E05020602878000703D5206840F48B
:1006500060402060A968206820F0F0000843206016
:100660002878C0072AD0304968680839012810D096
:100670000968022810D0890700292EDA216821F0A4
:10068000030101432160FFF73BFF804641F28839B7
:100690000DE009688903EFE78901EDE7FFF730FF17
:1006A000A0EB0801494502D90320BDE8F08768683E
:1006B000216801F00C01B1EB800FEFD1306800F040
:1006C0000F00B8420BD9306820F00F00384330607B
:1006D000306800F00F00B84201D00120E5E728782B
:1006E000400705D5E968206820F4E0500843206001
:1006F0002878000706D52869216821F4604141EA7D
:10070000C000206000F016F82168084AC1F3031108
:10071000515CC840064908600020FFF70BFF00202D
:10072000C3E70000003C024008380240D00D00083A
:100730000C000020154910B51548096811F00C028D
:1007400013D04110042A0FD0082A0ED10F4C241FB9
:100750002268236802F03F025B0207D52068C0F3DD
:100760008810A0FB010106E0084610BD2168C1F316
:100770008811A1FB00010023FFF742FD2168C1F3AE
:100780000141491C4900B0FBF1F010BD083802409E
:100790000024F4002DE9F84F05004FF000076ED05B
:1007A0002878DFF81C93A9F1040AC007AAF1040411
:1007B0004CD0D9F800104846C1F38101012908D076
:1007C0000068C0F3810002280AD1DAF80000400274
:1007D00006D52068800339D568680028DFD035E069
:1007E0006868B0F5803F0BD010B1B0F5A02F11D0E4
:1007F000206820F480302060206820F4802002E00F
:10080000206840F480302060686890B1FFF778FE7F
:1008100006460AE0206840F480202060F0E700BF30
:10082000FFF76EFE801B642872D820688003F7D51E
:100830000CE0FFF765FE064605E000BFFFF760FE2F
:10084000801B6428F0D820688003F7D428788007BC
:1008500042D5D9F80010484611F00C0F08D00068B6
:10086000C0F3810002280BD1DAF80000400207D45F
:100870002068800718D5E868012800D114E01CE141
:10088000E8680028206817D040F001002060FFF7DA
:1008900037FE064605E000BFFFF732FE801B022848
:1008A000C2D820688007F7D52869216821F0F801AF
:1008B00041EAC00020600FE020F001002060FFF757
:1008C0001FFE064605E000BFFFF71AFE801B022848
:1008D0001ED820688007F7D42878000729D57848E3
:1008E00069696C3000298046016812D041F001012D
:1008F0000160FFF705FE064605E000BFFFF700FEBA
:10090000801B022804D8D8F800008007F6D510E034
:1009100089E021F001010160FFF7F2FD064604E0E5
:10092000FFF7EEFD801B02287DD8D8F80000800775
:10093000F6D4287840076BD5DFF8848108F13808B1
:10094000D8F80000C0000BD4D8F8001041F0805156
:10095000C8F80010D8F80000012700F0805000907F
:1009600058480168C90512D40168834641F4807172
:100970000160FFF7C5FD064605E000BFFFF7C0FDBB
:10098000801B64284FD8DBF80000C005F6D54C4E1C
:10099000A868683601280AD008B1052811D0306847
:1009A00020F001003060306820F0040002E0306880
:1009B00040F001003060A868A0B1FFF7A1FD8346B8
:1009C0000CE0306840F004003060F0E7FFF798FD7D
:1009D000A0EB0B0141F28830814266D83068800775
:1009E000F4D50EE0FFF78CFD834607E0FFF788FDA6
:1009F000A0EB0B0141F28830814256D83068800765
:100A0000F4D42FB1D8F8001021F08051C8F80010AC
:100A1000A869C8B3D9F80010C1F3810102294CD0EC
:100A20000228206800E040E020F08070206003D0C1
:100A3000FFF766FD05463BE0FFF762FD064604E072
:100A4000FFF75EFD801B02282FD820688001F7D4B5
:100A5000D5E90962D5E907011B4B570895F82C2009
:100A6000084303EB074343EA8611084340EA026068
:100A700040F00050CAF80000206840F0807020600C
:100A8000FFF73EFD054606E015E000BFFFF738FD25
:100A9000401B022809D820688001F7D50BE000BF71
:100AA000FFF72EFD401B022802D90320BDE8F88F76
:100AB00020688001F4D40020F8E70120F6E7000068
:100AC00008380240007000400000FFFF401EB0F1F7
:100AD000807F10B501D3012010BD4FF0E02460618C
:100AE0000F21601700F03FF90020A061072121616C
:100AF00010BDFEE72DE9F04F87B014216846FFF7DF
:100B0000B7FB5B48016841F004010160016801F036
:100B100004010591016841F080010160016801F064
:100B200080010591016841F001010160016801F057
:100B300001010591016841F002010160016801F0C5
:100B400002010591016841F008010160016801F0AE
:100B500008010591016841F040010160006844F21C
:100B6000810ADFF810B1002200F0400051460590E4
:100B70005846FFF7C0FC404800224021FFF7BBFC6D
:100B800000243E49DFF8F8904FF40058CDF800807B
:100B9000CDE9011469464846FFF7BAFB02256946CC
:100BA000322002AACDE90005032648460B2782E839
:100BB000D000FFF7ADFB8620694602AACDE900050B
:100BC000304882E8D000FFF7A3FB4FF00109CDF8D1
:100BD00000A0CDE90194694658460394FFF798FBBD
:100BE00002AA6946584682E8D000CDE90085FFF7A1
:100BF0008FFB30020294CDE9000507206946CDE95C
:100C000003602148FFF784FB40210091CDE9019466
:100C1000194869460394FFF77BFB80206946CDE9BC
:100C2000000415480294FFF773FB4FF4E85000905E
:100C30000A206946CDE903601248CDE90154FFF767
:100C400067FB28026946CDE900040E480294FFF7CD
:100C50005FFB4FF42050694602AACDE90005064823
:100C600082E8D000FFF754FB07B0BDE8F08F00002A
:100C70003038024000040240001802400000111009
:100C80000008024000000240000C0240FEE77047EE
:100C900070477047FFF73ABC10B592B030216846F4
:100CA000FFF7E6FA14210CA8FFF7E2FA16480168EC
:100CB00041F080510160006800F0805011901348AD
:100CC000016821F4404141F4804101600068022143
:100CD0000122009100F4404011901020002406945D
:100CE000CDE903206846FFF755FD4FF4805110947D
:100CF0000F20CDE90C04CDE90E4100210CA8FFF72F
:100D000083FC12B010BD000040380240007000406B
:100D1000104A30B51048146800210F4B44F4700499
:100D20001460083305680D4A0D4C45F00105056057
:100D300019600368051D1340074A03600C322C60DC
:100D40000568E305034C25F480250560803C1160AF
:100D5000236030BD88ED00E000380240FFFFF6FE62
:100D600010300024FEE7090700284FEA116104DB78
:100D700000F1E02080F80014704700F00F0000F14F
:100D8000E02080F8141D704702E008C8121F08C157
:100D9000002AFAD170477047002001E001C1121FFC
:100DA000002AFBD170470000FFF7B8FBFFF774FF84
:100DB000FFF7A0FE054C4FF4FA7580212046FFF79F
:100DC00093FB2846FFF792FAF7E700000004024081
:100DD00000000000000000000102030406070809EB
:100DE000000E00080000002010000000880D000820
:100DF000100E00081000002000040000980D0008EC
:100E00000100000010000000000000000024F400B9
:04000005080001C925
:00000001FF
