:020000040800F2
:1000000048050020DD01000863190008E916000812
:1000100061190008E90200087120000800000000D2
:10002000000000000000000000000000D91A0008D5
:10003000450300080000000065190008DB1A0008ED
:10004000F7010008F7010008F7010008F7010008B0
:10005000F7010008F7010008F7010008F7010008A0
:10006000F7010008F7010008F7010008F701000890
:10007000F7010008F7010008F7010008F701000880
:10008000F7010008F7010008F7010008F701000870
:10009000F7010008F7010008F7010008F701000860
:1000A000F7010008F7010008F7010008F701000850
:1000B000F7010008F7010008F7010008F701000840
:1000C000F7010008F7010008F7010008F701000830
:1000D000F7010008F7010008F7010008F701000820
:1000E000F7010008F7010008F7010008F701000810
:1000F000F7010008F7010008F7010008F701000800
:10010000F7010008F7010008F7010008F7010008EF
:10011000F7010008F7010008F7010008F7010008DF
:10012000F7010008F7010008F7010008F7010008CF
:10013000F7010008F7010008F7010008F7010008BF
:10014000F7010008F7010008F7010008F7010008AF
:10015000F7010008F7010008F7010008F70100089F
:10016000F7010008F7010008F7010008F70100088F
:10017000F7010008F7010008F7010008000000007F
:10018000F7010008F7010008F7010008F70100086F
:10019000F7010008F7010008F7010008F70100085F
:1001A000F7010008F7010008F7010008F70100084F
:1001B000F7010008F7010008F7010008F70100083F
:1001C000F7010008F7010008DFF80CD000F07AF81A
:1001D0000048004751210008480500200648804794
:1001E00006480047FEE7FEE7FEE7FEE7FEE7FEE71C
:1001F000FEE7FEE7FEE7FEE77D1B0008C9010008F9
:100200002DE9F05F0546002092469B46884606464B
:10021000814640241BE0284641464746224600F0DE
:1002200041F853465A46C01A914110D31146184618
:10023000224600F028F82D1A67EB01084F462246A7
:100240000120002100F01FF817EB00094E41201E8D
:10025000A4F10104DFDC484631462A464346BDE8A6
:10026000F09FD2B201E000F8012B491EFBD270478B
:100270000022F6E710B513460A4604461946FFF772
:10028000F0FF204610BD202A04DB203A00FA02F1DC
:10029000002070479140C2F1200320FA03F3194374
:1002A00090407047202A04DB203A21FA02F0002116
:1002B000704721FA02F3D040C2F120029140084376
:1002C00019467047064C074D06E0E06840F0010310
:1002D00094E8070098471034AC42F6D3FFF778FF54
:1002E000F021000810220008FEE70000084B064A33
:1002F00006491B68B3FBF2F24B6842434868C01AD8
:100300009042FBD37047000040420F00001000E015
:100310001C000020094A07490748106008480B687C
:10032000002243F080730B604260016841F00101DC
:1003300001607047FCED00E055CEACC5B01F00E099
:10034000001000E0704700002DE9F84FDFF89CE155
:1003500000224FF001084FF0030B4FF00F0A00BFCF
:100360000B6808FA02F42340A34271D14D68022DB4
:1003700001D0122D0FD1D5080E69570700EB850566
:10038000A9462D6AFF0E0AFA07FCBE4025EA0C05B5
:100390002E43C9F820600F79550006680BFA05FC5A
:1003A00007F0030726EA0C06AF40374307604E68A4
:1003B000012E05D0022E03D0112E01D0122E0ED107
:1003C0008668CF6826EA0C06AF40374387604668E8
:1003D0000F79A643C7F30017974037434760C468B7
:1003E0008E6824EA0C04AE402643C6604C68E400E4
:1003F00075D53F4C256845F480452560246822F07A
:100400000306950704F4804400943A4C2D0F2644CB
:10041000D6F80848DFF8E0C00AFA05F7604524EA94
:10042000070401D100272EE0344FB84201D1012743
:1004300029E0334FB84201D1022724E0314FB842BE
:1004400001D103271FE0304FB84202D104271AE040
:1004500045E02E4FB84201D1052714E02C4FB84299
:1004600001D106270FE02B4FB84201D107270AE040
:10047000294FB84201D1082705E0284FB84201D1E1
:10048000092700E00A27AF4027437546C6F80878D9
:100490004E68DEF80040F60324EA030400D51C434E
:1004A000124E2C60361D4D683468AD0324EA0304F7
:1004B00000D51C430D4F346008374D683C68ED0291
:1004C00024EA030400D51C43084D3C600C354E68FB
:1004D0002C68B60224EA030400D51C432C60521C8D
:1004E000102AFFF43DAFBDE8F88F0000003C01404A
:1004F0004438024000300140000002400004024045
:1005000000080240000C02400010024000140240AB
:1005100000180240001C024000200240002402405B
:100520000AB1816170470904FBE700000148806857
:1005300070470000100000200248816802781144D2
:100540008160704710000020032010B500F060F8B3
:10055000002000F005F800F023F8002010BD000096
:1005600070B50D4D04464FF47A700C4A2978126824
:10057000B0FBF1F0B2FBF0F000F06AFF48B9102CCC
:1005800007D200222146501E00F022F800206C60A5
:1005900070BD012070BD0000100000201C00002074
:1005A0000A4808B5016841F080510160006800F018
:1005B000805000900548001D016841F480410160B1
:1005C000006800F48040009008BD00004038024000
:1005D0000E4BF0B41B680D46C3F30223C3F10706AC
:1005E000042E00D90426191D072901D2002300E09A
:1005F000DB1E012404FA06F19C40491E2940641EBA
:10060000994014402143F0BC01F033BD0CED00E0F3
:10061000064900F0070210B54FF6FF040868044BC6
:10062000204040EA02201843086010BD0CED00E0B5
:100630000000FA051848F8B5016841F080510160E2
:100640000068164C00F080500090206840F4803024
:100650002060FFF76BFF4FF47A76054605E000BF98
:10066000FFF764FF401BB0420FD86068C003F7D5A6
:10067000206840F400302060FFF758FF054606E090
:10068000FFF754FF401BB04201D90320F8BD60685A
:100690008003F5D50020F8BD4038024000700040CE
:1006A0002DE9F84F04460078DFF824944FF0000657
:1006B0003746C0070ED0D9F8001021F40001C9F860
:1006C0000010D9F80010626B1143C9F80010606B7C
:1006D00000B90126FE4D2068843500030ED5E16B7C
:1006E000286820F4401008432860E06BB0F5801FB4
:1006F00001D010B102E0012600E0012720684FF48C
:10070000800BC0020CD5216C286820F440000843FF
:100710002860206C584501D1012601E000B901276D
:100720002068C10100D50126800666D5E84838302A
:10073000016841F0805101600068DFF898A300F083
:1007400080500090DAF8001041F48071CAF800106F
:10075000FFF7ECFE804605E0FFF7E8FEA0EB08009F
:1007600064287DD8DAF80000C005F5D5DFF860838D
:1007700008F16808D8F8000010F440702AD0218EE3
:1007800001F44071814225D0D8F80010D8F800203B
:1007900021F4407142F48032C8F80020D8F80020DB
:1007A00022F48032C8F80020C8F80010D8F8000001
:1007B000C0070FD0FFF7BAFE824607E0FFF7B6FE8C
:1007C000A0EB0A0141F288308142CAD8D8F8000073
:1007D0008007F3D5206BC0F3012103297ED0D9F81F
:1007E000001021F4F811C9F80010228ED8F800107A
:1007F000C2F30B021143C8F800102078C00607D5D9
:10080000286820F0807028602868A16B0843286061
:100810002188AF488830490405D5626E016821F40B
:100820004031114301602188090405D5A26E016899
:1008300021F44021114301602168C90305D5E26E0E
:10084000016821F44011114301602168890305D535
:10085000226F016821F4400111430160217800E01A
:1008600018E1490605D5626C016821F003011143C6
:1008700001602178090605D5A26C016821F00C0100
:10088000114301602188C90505D5E26C016821F09A
:100890003001114301602188890505D5226D016869
:1008A00021F0C001114301602188490505D5626D21
:1008B000016821F44071114301602188090505D5C3
:1008C000A26D016821F44061114301602188C904CF
:1008D00007D5E26D016821F4405100E041E0114389
:1008E00001602188890405D5226E016821F4404108
:1008F000114301602168490205D5A26F016821F00A
:1009000080611143016021684FF0006A890209D5B6
:10091000E26F016821F0006111430160E16F514510
:1009200000D1012721680A0700D50127490305D511
:10093000626F016821F04071114301602168090272
:1009400006D5D4F88020016821F080511143016060
:10095000DFF88491012E0ED02068B0F1007F0AD01C
:100960008FE05E4AD9F80030104023F4F8120243B9
:10097000C9F8002039E7D9F800004E4620F0806021
:10098000C9F80000FFF7D2FD804605E0FFF7CEFD75
:10099000A0EB080064287DD830680001F6D42178E7
:1009A0004B487C30C90712D0616B81B9237A6268E9
:1009B0000168D0F800C09201C1F3014142EA01424E
:1009C000CCF3036142EA016141EA037101602168ED
:1009D0000A0303D5E26BB2F5801F04D0C9021AD511
:1009E000216C594517D16368016894F80CC00268FE
:1009F0009B01C1F3014143EA0141C2F3027241EAA2
:100A00000C6141EA027101602968626A21F01F01EC
:100A1000521E114329602168C90110D5238A6268DA
:100A20000168D0F800C09201C1F3036142EA0342B9
:100A300042EA0162CCF3027142EA0171016021686D
:100A400089010CD56168228A237B94F808C089014A
:100A500041EA024141EA036141EA0C7101603168F7
:100A6000B04641F080613160FFF760FD064604E06A
:100A7000FFF75CFD801B64280CD8D8F8000000014B
:100A8000F6D56FB3D9F800004E4620F08050C9F873
:100A9000000000E079E0FFF749FD074605E000BFF0
:100AA000FFF744FDC01B64286FD83068C043800046
:100AB000F6D50748216880300A0301D5E26B1AB1E8
:100AC000C90225D5216C19BB63690168277E08E03E
:100AD000083802400070004000380240FFFCFF0F61
:100AE0005AE00268C1F301419B0143EA0143C2F3AA
:100AF000027143EA076242EA0171016029686FF0FE
:100B0000FF03A26A21F4F85103EB0222114329608A
:100B10002168890212D5E16F51450FD1238C62699A
:100B2000016807689201C1F3036142EA034242EAA5
:100B30000162C7F3027142EA01710160217809077D
:100B400016D561690268D0F800C08B01277FC2F317
:100B50000362CCF3014143EA014141EA026141EA07
:100B6000077101602868E16A20F44030084328607A
:100B7000306840F080503060FFF7D8FC044607E052
:100B8000FFF7D4FC001B642802D90320BDE8F88FCE
:100B90003068C0438000F3D40020F7E72DE9F04728
:100BA00005000F4663D0444E306800F00F00B84295
:100BB00009D2306820F00F0038433060306800F010
:100BC0000F00B84253D128683C4C810712D540072A
:100BD00003D5206840F4E05020602878000703D552
:100BE000206840F460402060A968206820F0F00090
:100BF000084320602878C0072AD03049686808393F
:100C0000012810D00968022810D0890700292EDA9F
:100C1000216821F0030101432160FFF787FC804632
:100C200041F288390DE009688903EFE78901EDE7B2
:100C3000FFF77CFCA0EB0801494502D90320BDE881
:100C4000F0876868216801F00C01B1EB800FEFD1EB
:100C5000306800F00F00B8420BD9306820F00F0068
:100C600038433060306800F00F00B84201D00120F6
:100C7000E5E72878400705D5E968206820F4E050CA
:100C8000084320602878000706D52869216821F4E8
:100C9000604141EAC000206000F036F82168084A4F
:100CA000C1F30311515CC840064908600020FFF7FA
:100CB00057FC0020C3E70000003C02400838024017
:100CC000D82100081C000020044905480968006874
:100CD000044AC1F38221515CC84070470838024081
:100CE0001C000020E8210008044905480968006844
:100CF000044AC1F34231515CC84070470838024091
:100D00001C000020E8210008154910B515480968A5
:100D100011F00C0213D04110042A0FD0082A0ED172
:100D20000F4C241F2268236802F03F025B0207D5A4
:100D30002068C0F38810A0FB010106E0084610BD42
:100D40002168C1F38811A1FB00010023FFF758FAC5
:100D50002168C1F30141491C4900B0FBF1F010BD0D
:100D6000083802400024F4002DE9F84F05004FF048
:100D700000076ED02878DFF81C93A9F1040AC00799
:100D8000AAF104044CD0D9F800104846C1F38101FF
:100D9000012908D00068C0F3810002280AD1DAF8DE
:100DA0000000400206D52068800339D56868002815
:100DB000DFD035E06868B0F5803F0BD010B1B0F5FA
:100DC000A02F11D0206820F480302060206820F40B
:100DD000802002E0206840F480302060686890B194
:100DE000FFF7A4FB06460AE0206840F4802020605C
:100DF000F0E700BFFFF79AFB801B642872D82068D9
:100E00008003F7D50CE0FFF791FB064605E000BF35
:100E1000FFF78CFB801B6428F0D820688003F7D490
:100E20002878800742D5D9F80010484611F00C0FF9
:100E300008D00068C0F3810002280BD1DAF8000066
:100E4000400207D42068800718D5E868012800D13F
:100E500014E01CE1E8680028206817D040F0010089
:100E60002060FFF763FB064605E000BFFFF75EFB6F
:100E7000801B0228C2D820688007F7D5286921681E
:100E800021F0F80141EAC00020600FE020F00100ED
:100E90002060FFF74BFB064605E000BFFFF746FB6F
:100EA000801B02281ED820688007F7D42878000706
:100EB00029D5784869696C3000298046016812D0CC
:100EC00041F001010160FFF731FB064605E000BF7C
:100ED000FFF72CFB801B022804D8D8F800008007FD
:100EE000F6D510E089E021F001010160FFF71EFB5B
:100EF000064604E0FFF71AFB801B02287DD8D8F8CD
:100F000000008007F6D4287840076BD5DFF884818D
:100F100008F13808D8F80000C0000BD4D8F8001049
:100F200041F08051C8F80010D8F80000012700F007
:100F30008050009058480168C90512D40168834662
:100F400041F480710160FFF7F1FA064605E000BF49
:100F5000FFF7ECFA801B64284FD8DBF80000C005CF
:100F6000F6D54C4EA868683601280AD008B1052885
:100F700011D0306820F001003060306820F00400AB
:100F800002E0306840F001003060A868A0B1FFF7CF
:100F9000CDFA83460CE0306840F004003060F0E7A2
:100FA000FFF7C4FAA0EB0B0141F28830814266D80A
:100FB00030688007F4D50EE0FFF7B8FA834607E003
:100FC000FFF7B4FAA0EB0B0141F28830814256D80A
:100FD00030688007F4D42FB1D8F8001021F0805188
:100FE000C8F80010A869C8B3D9F80010C1F381018E
:100FF00002294CD00228206800E040E020F08070F8
:10100000206003D0FFF792FA05463BE0FFF78EFA27
:10101000064604E0FFF78AFA801B02282FD82068D2
:101020008001F7D4D5E90962D5E907011B4B5708C0
:1010300095F82C20084303EB074343EA8611084345
:1010400040EA026040F00050CAF80000206840F01A
:1010500080702060FFF76AFA054606E015E000BFE1
:10106000FFF764FA401B022809D820688001F7D5F1
:101070000BE000BFFFF75AFA401B022802D90320F9
:10108000BDE8F88F20688001F4D40020F8E7012043
:10109000F6E7000008380240007000400000FFFF43
:1010A0002DE9F047040005D094F85D000025A56205
:1010B00018B107E00120BDE8F087204684F85C50B5
:1010C00000F050F8022284F85D204FF4E0632068BD
:1010D000016821F040010160E068984201D90021D7
:1010E00001E04FF48051B0F5706F02D0984200D00B
:1010F000A5624FF00109266B2EB9984201D92263EF
:1011000001E0C4F83090D4E90468D4E90102278BE7
:1011100046EA0806A36A104307F4007830432668BD
:10112000D4E907C240EA080040EA0C00CC46042794
:10113000104318433060D4F81880666B606AE26828
:1011400007EA1847236830433A431043084358607E
:101150002068C16921F40061C161256684F85DC021
:101160000020A8E72DE9F04186B004461421684626
:10117000FFF77EF81A49206888422DD11948016886
:1011800041F480510160006800F4805005901548DA
:101190001438016841F001010160016801F00101AA
:1011A0000591016841F00201016000684FF00508F7
:1011B0003024694600F0020002250026CDE90480B3
:1011C000032709488DE8F000FFF7BEF88DE8F0012D
:1011D00006486946FFF7B8F806B0BDE8F0810000A0
:1011E0000030014044380240000002400004024048
:1011F0002DE9F05F8B4690F85C1000271D460A9E93
:101200000129924604464FF001090ED0012084F8CE
:101210005C00FFF78BF9804694F85D006168012857
:101220000CD0B1F5827F07D102E00220BDE8F09F2B
:10123000A16809B9042801D00227FFE0BBF1000F23
:1012400024D0BAF1000F21D005B394F85D00042832
:1012500002D0052084F85D00A4F844500020A58742
:101260004FF4E062C4F838B0C4F840A0E1682066EA
:101270009142E0642065A4F84650E58701D8012D2D
:1012800006D92068416821F4805105E00127D5E0A6
:101290002068416841F48051416020680168490636
:1012A00003D4016841F040010160E0689042606849
:1012B00045D908B1012D3AD1A06B21680088C860DA
:1012C000A06B801CA063E08F401EE0872FE02068A9
:1012D000816889070FD5E18F69B1B9F1010F0AD192
:1012E000A26B4FF000091188C160A06B801CA06345
:1012F000E08F401EE08720688168C9070FD0B4F8EE
:10130000461061B1C0684FF00109226C1080206C5A
:10131000801C2064B4F84600401EA4F84600FFF785
:1013200005F9A0EB0800B04201D3701C74D1E08F26
:101330000028CCD1B4F846000028C8D175E008B127
:10134000012D6BD1E08F21680128A06B07D900889F
:10135000C860A06B801CA063E08F801E06E0007850
:101360000873A06B401CA063E08F401EE08755E02F
:101370002068816889071AD5E18FC1B1B9F1010FE1
:1013800015D1E18F0129A16B07D90988C160A06B34
:10139000801CA063E08F801E06E009780173A06BBB
:1013A000401CA063E08F401EE0874FF000092068DA
:1013B0008168C90728D0B4F8461029B3B4F846109C
:1013C000012914D9C068216C0880206C801C20641D
:1013D000B4F84600801EA4F84600B4F84600012880
:1013E00010D82068416841F4805141600AE0007BD8
:1013F000216C0870206C401C2064B4F84600401E2C
:10140000A4F846004FF00109FFF790F8A0EB0800A0
:10141000B04202D3701C01D018E0BEB1E08F0028AA
:10142000A6D1B4F846000028A2D142463146204653
:1014300000F099FA10B1202020660127012084F8DD
:101440005D000021384684F85C10EFE60327F5E7DD
:10145000401EB0F1807F10B501D3012010BD4FF0C8
:10146000E02460610F21601700F003FE0020A061FE
:101470000721216110BD000070B590F83C20012AC1
:1014800024D0134C012580F83C50022280F83D20E6
:1014900002685368A242966802D00E4CA24203D161
:1014A0004C6823F4700323430C6823F070038968AD
:1014B0001C435460002326F080060268314391608B
:1014C00080F83D5080F83C30184670BD022070BD59
:1014D00000000140000401402DE9F04104000D46E8
:1014E00003D094F83D0018B108E00120BDE8F08178
:1014F000002084F83C00204600F042F81F4A0220F9
:1015000084F83D0020688168114081602068211DB9
:1015100000F05EFB226840F20336AF6940F60C4CE7
:101520002B684FF2F00EA86891680B439169B143A4
:1015300041EA07210843D5E9031720EA0C00D5E961
:10154000076C20EA0E00D2F820E03F0140EA0626B0
:1015500068686D69314347EA0C37936023680F432D
:1015600001229F612EF0AA0141EA05132168184368
:10157000086284F83D200020B8E70000F8BFFEFFB5
:1015800010B586B0044614216846FEF771FE134973
:101590002068884220D11248016841F001010160B1
:1015A000006800F0010005900D481438016841F012
:1015B0001001016000680123022200F01000059074
:1015C00000204FF4206100916946CDE90120CDE96A
:1015D00003030448FEF7B8FE06B010BD000001404A
:1015E000443802400010024010B50446006891B132
:1015F000042904D00122002100F050FB20680122C0
:101600005FF0040100F04AFB2068016841F001012D
:101610000160002010BD01220021F3E710B5040095
:1016200002D0606F10B107E0012010BD002084F8E7
:101630007000204600F026F82420606720680168CA
:1016400021F001010160204600F0B8FB0128ECD038
:10165000606A10B1204600F02EFB2068416821F43A
:10166000904141602068816821F02A0181602068F2
:10167000016841F0010101602046BDE8104000F022
:101680007EBB000010B586B0044614216846FEF704
:10169000EFFD1249206888421ED11148016841F0CF
:1016A00010010160006800F0100005900C4814382B
:1016B000016841F00101016000680221002200F090
:1016C00001000590032307244FF4C0608DE81F003C
:1016D00004486946FEF738FE06B010BD0010014010
:1016E0004438024000000240FEE700002DE9F04FC0
:1016F00087B014216846FEF7BBFD5B48016841F0E6
:1017000004010160016801F004010591016841F0E4
:1017100080010160016801F080010591016841F0DC
:1017200001010160016801F001010591016841F0CA
:1017300002010160016801F002010591016841F0B8
:1017400010010160016801F010010591016841F08C
:1017500008010160016801F008010591016841F08C
:1017600040010160006844F2810ADFF800B1002204
:1017700000F04000514605905846FEF7D1FE3C4827
:1017800000224021FEF7CCFE00243A49DFF8E89021
:101790004FF40058CDF80080CDE901146946484661
:1017A000FEF7D2FD02256946322002AACDE90005E6
:1017B000032648460B2782E8D000FEF7C5FD8620A9
:1017C000694602AACDE900052C4882E8D000FEF760
:1017D000BBFD4FF00109CDF800A0CDE901946946A9
:1017E00058460394FEF7B0FD02AA6946584682E8BF
:1017F000D000CDE90085FEF7A7FD30020294CDE9C7
:10180000000507206946CDE903601D48FEF79CFDF1
:1018100040210091CDE90194154869460394FEF7F3
:1018200093FD80206946CDE9000411480294FEF73B
:101830008BFD4FF4C85000900A206946CDE9036043
:101840000E48CDE90154FEF77FFD4FF42050694664
:1018500002AACDE90005064882E8D000FEF774FD33
:1018600007B0BDE8F08F00003038024000040240AD
:101870000018024000001110000802400000024061
:10188000000C0240F0B40F484FF4E06400210C4E0D
:101890004FF482753023C0E9021401617215E0E84B
:1018A00005650724082580E80E00C1600161C0E9D4
:1018B0000514C0E90715F0BC0248FFF7F1BB0000B2
:1018C000003001402000002030B58DB02421684652
:1018D000FEF7CEFC14480024124B40F6FF75099425
:1018E00080220A9401210B94036003234460C0E921
:1018F00002450461C0E905420093CDE9014103942A
:101900000494CDE90541694607940894FFF7E4FD86
:10191000054809A909940A940B94FFF7ADFD0DB091
:1019200030BD000000000140840000200A48002172
:1019300030B4084C0C22094B0460C0E90131C1608D
:10194000C0E904128161C1610162416230BCFFF7EC
:1019500065BE000000100140C4000020D8EC0D005E
:10196000FEE770477047F8B515460E4604460B462D
:101970004FF4C0510092002200F019F888B90022FB
:10198000334680212046009500F05CF848B90022DB
:1019900033464FF4C0612046009500F008F8002857
:1019A00004D0206E40F0200020660320F8BD2DE911
:1019B000F0474FF4C0681D4617460E46DDF82090EC
:1019C00004460CE0464501D107B9007B681C06D0EF
:1019D000FEF7ACFDA0EB0900A84208D23DB120689B
:1019E00081683140B942EDD10020BDE8F087206820
:1019F000416821F0E00141606068B0F5827F0BD161
:101A0000A068B0F5004F02D0B0F5806F04D1206817
:101A1000016821F040010160A06AB0F5005F09D1C2
:101A20002068016821F4005101602068016841F4D8
:101A300000510160012184F85D10002084F85C00F1
:101A40000320D2E72DE9F0411D4617460E46044615
:101A5000DDF8188008E0681C06D0FEF767FDA0EBF3
:101A60000800A8420BD255B12068806836EA000011
:101A700030D00020B842EED10020BDE8F0812068CF
:101A8000416821F0E00141606068B0F5827F0BD1D0
:101A9000A068B0F5004F02D0B0F5806F04D1206887
:101AA000016821F040010160A06AB0F5005F09D132
:101AB0002068016821F4005101602068016841F448
:101AC00000510160012184F85D10002084F85C0061
:101AD0000320D2E70120CDE77047FEF72DBD0000BF
:101AE00030B5B3B0302121A8FEF7C2FB14212DA8D8
:101AF000FEF7BEFB84216846FEF7BAFB1D4801686D
:101B000041F080510160006800F0805032901A4826
:101B1000016841F440410160006800250DF1A40C0A
:101B200000F4404032900224219410210822D8234E
:101B3000CDE927458CE81C0001202C94CDE9240137
:101B400021A8FFF711F9FEF775FDE2024FF4A0514D
:101B50000F20CDE930122DAA072182E831002DA8EF
:101B6000FFF71CF84020119500906846FEF798FD9D
:101B700033B030BD4038024000700040104A30B5EC
:101B80001048146800210F4B44F4700414600833AB
:101B900005680D4A0D4C45F00105056019600368A4
:101BA000051D1340074A03600C322C600568E305ED
:101BB000034C25F480250560803C1160236030BD16
:101BC00088ED00E000380240FFFFF6FE10300024F0
:101BD000F0B5274B4FF0804E264D02689842264EB6
:101BE000264F274C09D0704507D0A84205D0B042F7
:101BF00003D0B84201D0A04205D1D1F804C022F0F0
:101C000070024CEA020298421BD0704519D0A842DB
:101C100017D0B04215D0B84213D0A04211D0194D00
:101C2000A8420ED0184DA8420BD0184DA84208D09B
:101C3000174DA84205D0174DA84202D0164DA84214
:101C400003D1CD6822F440722A434D6922F080020C
:101C50002A43026098428A68C2620A68826201D09E
:101C6000A04201D10969016301214161F0BD000079
:101C7000000001400004004000080040000C00404B
:101C80000004014000400140004401400048014080
:101C900000180040001C00400020004010B5046AFD
:101CA000012301F01F018B409C4304628A40016ABA
:101CB0001143016210BD90F82410C90706D00168D5
:101CC000836A4A6822F400321A434A6090F824106A
:101CD000890706D50168C36A4A6822F480321A432C
:101CE0004A6090F82410490706D50168036B4A68DA
:101CF00022F480221A434A6090F82410090706D57E
:101D00000168436B4A6822F400421A434A6090F823
:101D10002410C90606D50168836B8A6822F48052B4
:101D20001A438A6090F82410890606D50168C36BAF
:101D30008A6822F400521A438A6090F824104906F7
:101D400011D50168036C4A6822F480121A434A6074
:101D5000016CB1F5801F06D10168436C4A6822F41A
:101D6000C0021A434A6090F82410090606D501689B
:101D7000826C486820F4002010434860704738B5F2
:101D800000250446C567FEF7D1FB034620680068BE
:101D900000070BD56FF07E400090002220464FF4E4
:101DA000001100F035F908B1032038BD202060672C
:101DB00084F87050A067002038BD00002DE9F04184
:101DC00004468068DFF818C2864F2368D4E90452BD
:101DD000E16928431E6800250A438349104306EA47
:101DE0000C0606431E604FF400422068E668436814
:101DF00023F44053334343602368A669206AD3F831
:101E000008C030432CF4306606439E602068B84218
:101E10000AD1086810F0030052D001287BD00228B4
:101E20007AD003286ED186E0704B98420AD10868B8
:101E300010F00C0079D004287BD0082877D00C282B
:101E400060D178E06A4B98420AD1086810F03000FF
:101E50006BD010286DD0202869D0302852D16AE08C
:101E6000644B98420AD1086810F0C0005DD0402849
:101E70005FD080285BD0C02844D15CE05E4B9842A4
:101E80000DD1086810F440704FD0B0F5807F50D06D
:101E9000B0F5007F4BD0B0F5407F33D14BE0574BCE
:101EA00098420FD1086810F4406009D0B0F5806FF7
:101EB0003FD0B0F5006F3AD0B0F5406F22D13AE094
:101EC000012120E04E4B98420DD1086810F440509B
:101ED0002BD0B0F5805F2CD0B0F5005F27D0B0F5E7
:101EE000405F0FD127E0474B98420BD1086810F4B0
:101EF00040401AD0B0F5804F1BD0904217D0B0F5BB
:101F0000404F18D01021E0694FF6EF76904238D15B
:101F100009295DD202E00CE009E006E0DFE801F00B
:101F20000D1027582A5858582D000021EBE70221A0
:101F3000E9E70421E7E70821E5E7FEF7C5FE01E050
:101F4000FEF7D2FE0146D4F80400490001EB50012F
:101F5000B1FBF0F080B2A0F11001B14238D84FF6D9
:101F6000F0732168C0F342021840104324E0264970
:101F70006068EBE7FEF7C8FEE4E760684FF4803185
:101F8000E4E7092924D2DFE801F0050819231C231E
:101F900023231F00FEF798FE01E0FEF7A5FE014691
:101FA000D4F8040001EB5001B1FBF0F080B2A0F1D5
:101FB0001001B1420CD82168C8600AE0134960687A
:101FC000F0E7FEF7A1FEEAE7606802EB5001EBE7FD
:101FD00001250020206660662846BDE8F0810000EB
:101FE000F369FFEF001001409038024000440040C8
:101FF00000480040004C00400050004000140140E8
:1020000000780040007C00400048E8010024F40013
:102010002DE9F041984617460E460446069D08E015
:10202000681C06D0FEF782FAA0EB0800A8420BD885
:1020300055B12068C06936EA000017D00020B842C8
:10204000EED00020BDE8F0812168202000220B683E
:1020500023F4D0730B6021688B6823F001038B603D
:102060006067A067032084F87020EBE70120E6E7B3
:10207000FEE7090700284FEA116104DB00F1E020C8
:1020800080F80014704700F00F0000F1E02080F8A5
:10209000141D704702E008C8121F08C1002AFAD1B7
:1020A00070477047002001E001C1121F002AFBD1D8
:1020B000704700002DE9FF41224C002010254FF60B
:1020C000FF778DF804008DF80C502E048DF8080071
:1020D000A66101231C4801AA03A90097FFF788F80D
:1020E000A561052009E0A6610123174801AA02A9FC
:1020F0000097FFF77DF8A5611E20FEF7F7F89DF821
:1021000004001028EFD10520FEF7F0F8A6610123A6
:102110000E4A02A90C480097FFF76AF8A56105204E
:10212000FEF7E4F8A6610123084A02A90648521CFA
:102130000097FFF75DF8A5617820FEF7D7F8BDE8B6
:10214000FF81000000000240200000200600002067
:10215000FEF7FAF9FFF7C4FCFFF7C8FAFFF792FBA6
:10216000FFF7E4FBFFF7B0FB184800221021FEF751
:10217000D7F9FEF7CFF816483C21FFF735FA154896
:10218000FFF798FF13480027124C4FF47A76104D52
:10219000A41F008840BA2080FEF7C8F9C4E90207EE
:1021A0000CE00C48FFF786FFE068401CE060286800
:1021B0002188A288406A084410406080FEF7B6F982
:1021C000A168401AB042E7D2EBE7000000000240ED
:1021D0008400002006000020000000000000000035
:1021E00001020304060708090000000001020304BD
:1021F00010220008000000202000000094200008A9
:10220000302200082000002028050000A42000083B
:1022100000000000FF0F00000000000000000000B0
:102220000100000010000000000000000024F40085
:04000005080001C925
:00000001FF
